:020000040003F7
:10C00000B03C002015F503002FF5030031F50300C7
:10C010000000000000000000000000000000000020
:10C02000000000000000000000000000D5C0030078
:10C03000000000000000000035F5030037F50300A4
:10C0400039F5030039F5030039F5030039F503002C
:10C0500039F503000000000039F5030039F503004D
:10C0600039F5030039F5030039F5030039F503000C
:10C0700039F5030039F5030039F5030039F50300FC
:10C0800039F503007DD9030039F5030039F50300C4
:10C0900093D9030039F50300F7F3030039F50300E2
:10C0A00039F5030039F5030000000000000000002E
:10C0B0000000000000000000000000000000000080
:10C0C0000348854603F004FB004800472BC30300E8
:10C0D000B03C00200648704502D1EFF3098101E031
:10C0E000EFF30881886902380078024A104700009F
:10C0F000FDFFFFFF6DC10300401E00BF00BF00BF7A
:10C1000000BF00BF00BF00BF00BF00BF00BF00BF37
:10C1100000BFF1D170470000401E00BF00BF00BF4C
:10C1200000BF00BF00BF00BF00BF00BF00BF00BF17
:10C1300000BFF1D170470000056885F308884068AA
:10C14000FF2464B2EFF30585002D01D1A646004718
:10C150002546064621273FBAF0B4002400250026D4
:10C160000027F0B4F92040B20047000010B50C469B
:10C17000002802D00120086010BD2168002911D0DC
:10C180001E48421A814212D03C2A0DD201223C3074
:10C190003C310B7803701346521C401E491E3C2B49
:10C1A000F7D904E00E200BE03C2203F055FA002200
:10C1B0003C21124801F0E2FF1049891E088000204E
:10C1C000206010BD70B505000BD000223C210B484B
:10C1D00001F0D4FF094CA41E2188884203D00B2013
:10C1E00070BD0E2070BD3C220449284603F034FA8D
:10C1F0002088401C2080002070BD0000823F00206D
:10C200001CB50021032315200A460193009100F07C
:10C210002FF91CBD10B5F748F7490088884206D0B1
:10C22000132176DF002809D0F4A29E2104E074DFF8
:10C23000002803D0F5A28A2101F092F900F079FDDF
:10C24000002803D0EDA2A72101F08AF910BD10B596
:10C250001D2000F022F9092000F01FF91E2000F037
:10C2600017F9FFF7CDFF072000F012F9082000F0C2
:10C270000FF93CDF10BD10B500F03FF910BD10B54F
:10C2800001F0C0F810BDE54930B50A4608323CCA95
:10C290008BB0059206AA38C249680991002808D0D7
:10C2A00005A818DF002804D0FF21D4A2773101F0BF
:10C2B00057F90F20800313DF002804D0FF21CFA2FD
:10C2C0007B3101F04DF9D64B4822D64909A803F03D
:10C2D0006DF8002804D0FF21C8A27D3101F040F99B
:10C2E00001216A46084603F097F8002804D0FF2190
:10C2F000C2A2833101F034F901206946087368460F
:10C3000003F09EF8002804D0FF21BCA2873101F081
:10C3100027F9C54803F067F8002804D0FF21B7A229
:10C320008A3101F01DF90BB030BDC04DE869B1286C
:10C3300057D0002400F0B6F800F01FF9BC480F21D8
:10C3400040698903884205D0FF21ACA2C931002091
:10C3500001F006F9012000070069012189028842E5
:10C3600005D0FF21A5A2CA31002001F0F9F8B14B98
:10C37000B14A0621002001F010FB002804D0FF2163
:10C38000A2A2433101F0ECF8AC4A0121A34801F02C
:10C3900044FBFF254935002803D09CA2294601F023
:10C3A000DFF801F026FE01F06CFE00281FD001F03E
:10C3B00077FE002804D0FF2190A2D63101F0D0F8FA
:10C3C000204601214840FFF75EFF00F0C7F801F06A
:10C3D00090FE002810D0FF2188A2DC3101F0C0F8C7
:10C3E0000AE0012400F05EF80020E861A4E70120E3
:10C3F000FFF749FF00F0B2F803263603002C04D102
:10C40000B06801F04DFD00281BD1082000F045F870
:10C41000824800222946006801F039FB002804D038
:10C42000FF217AA21F3101F09BF801F0F4FD0028F2
:10C4300004D0FF2171A2F23101F092F8082000F03F
:10C4400027F8B06801F02CFD002806D001F019FE95
:10C45000002802D1B06801F0EAFD00F000F8BFF357
:10C460004F8F78497648C860BFF34F8F00BFFDE714
:10C4700030B552000A439900039C0A432102049DEF
:10C480000A4329040A43704980004018026030BD05
:10C49000012181406D4881607047012181406B48D6
:10C4A000C160704710B50321152000F0D3F80321B7
:10C4B0000D2000F0CFF8072000F091F8082000F0E0
:10C4C0008EF80720FFF7E9FF0820FFF7E6FF5F4A35
:10C4D00010695F4988604B6801E01069012384029C
:10C4E000E417641CF9D14B60886000E01069830494
:10C4F000DB175B1CFAD1886010BD10B50321152035
:10C5000000F0A8F8514B196951488C040022816051
:10C51000002C09DB0469641C0461642C05D90261E8
:10C52000FFF778FEFFF79BFF0261890208D4C1681C
:10C53000491CC160642904D90121C260017003E073
:10C54000C2600078002808D01869400DC007C00FED
:10C5500003D0FFF75FFEFFF77AFE10BD314A10B53A
:10C5600048321421082001F045F8002804D0FF21AA
:10C5700026A2923100F0F4FF10BD30B5274999B0E2
:10C580004C221831684603F067F8244914226431BC
:10C5900013A803F061F800246D46A0002858032179
:10C5A00000F058F8641C132CF7D3002413ADA0003E
:10C5B000285800F014F8641C052CF8D31D20FFF750
:10C5C0006CFF0920FFF769FF1E20FFF761FF0720BE
:10C5D000FFF75EFF0820FFF75BFF19B030BD1CB509
:10C5E000002100910B46012201911146FFF740FF07
:10C5F0001CBD0000A62C0020FFFF00002E2E5C2E8C
:10C600002E5C2E2E5C6D61696E2E63002E2E5C2ECC
:10C610002E5C2E2E5C6D61696E2E63002CF703007C
:10C62000FFF40300182F00207FC203000005004024
:10C63000001000109BDD0300082D002077C20300CE
:10C640000400FA0500ED00E000070050000500506E
:10C65000002C00201CB500220B46009211460192CE
:10C66000FFF706FFC4E70000FFB583B007460020D0
:10C670000C9C8646268805463AE07868A900421850
:10C680001188684681805188C1800022694601A8CE
:10C6900065DF002839D1684601780598814226D1A6
:10C6A0007046002801D0002200E00222208889186C
:10C6B00042180D998A4227D8714600290AD1401C98
:10C6C00080B22080069A049911542088401C208052
:10C6D00001208646218806980A18694601A865DF68
:10C6E000002812D1694620880978401820806D1CE6
:10C6F0003888A842C1DC704600280AD02088801BF8
:10C70000401E80B2FF2802D90C2007B0F0BD069968
:10C7100088550020F9E7FFB583B016460C9D0D9CA7
:10C720001F460222009501940398FFF79DFF002801
:10C73000EBD13B4610223146009501940398FFF758
:10C7400093FFE2E7F7B584B0002516880746158009
:10C75000406B1446002813D003780598032E51D35C
:10C760000221017021881122491C89B22180425482
:10C770002188491C89B2218043542088401C208094
:10C78000386B00281DD005462088059902461232D4
:10C79000B24237D811220A5420881022401C80B29D
:10C7A00020800A542088401C20800F202A5C238887
:10C7B000401ECA54228840B2521C22800028F5DA5A
:10C7C0000025384620300290807B002806D0334672
:10C7D0002246059900F0F9F8050096D10298407BB1
:10C7E000002806D032462146059800F018F90500C9
:10C7F0008BD1B878002822D0059886462088001D65
:10C80000B04201D90C2080E7684679DF0028FAD1D0
:10C81000218803207246505420881921401C80B280
:10C820002080115420887146401C80B2208041181D
:10C830006846008800F0C4F8218840182080F87805
:10C84000002817D0218803230A46FB56C91C0598E7
:10C85000B142D7D80221815421880122491C89B2D2
:10C86000218042542188491C89B221804354208868
:10C87000401C20807868002817D021880023C356E8
:10C880000A46C91C0598B142BCD8022181542188AE
:10C890000A22491C89B2218042542188491C89B24C
:10C8A000218043542088401C2080388900280AD0E9
:10C8B000009438460196062202210830059BFFF7B6
:10C8C0002AFF05009FD1388A00280AD000943846F4
:10C8D0000196072203211030059BFFF71CFF05007E
:10C8E00091D1388B00280AD0009438460196152241
:10C8F00014211830059BFFF70EFF050087D1386A19
:10C90000002806D033462246059900F006F90500B6
:10C91000D8D1786A002806D033462246059900F01F
:10C920003DF90500CED10298007B002807D03346A0
:10C9300022463846059900F065F90500C2D13878DD
:10C94000002807D0334622463846059900F096F86D
:10C950000500B7D12846D8E6F0B50C4693B01F21A4
:10C960006A461180072600279180002809D0C178E7
:10C9700049070DD502A9FFF7E5FE002809D102AD50
:10C9800001E000251780002C0ED0E078002802D0AE
:10C99000304613B0F0BD01AA0AA92046FFF7D2FE27
:10C9A0000028F6D10AAA02E068460022878068467D
:10C9B0008088C3B268460088C1B2284672DFE8E7C3
:10C9C0000870000A48700220704730B51588EC1CCA
:10C9D0009C4201D90C2030BD02244C5513881C25E3
:10C9E0005B1C9BB21380CD5413885B1C9BB21380DD
:10C9F000012807D0022807D0032807D0042807D031
:10CA0000072030BD002004E0012002E0CC5401E00A
:10CA10000320C8541088401C1080002030BD7CB515
:10CA2000054608880C460930904201D90C207CBD8F
:10CA3000684671DF0028FAD12188082068542088D0
:10CA40001B21401C80B220802954208800A9401C52
:10CA500080B2208040190622013102F0FDFD2088BD
:10CA60006946801D80B220800978002900D001210C
:10CA700029542088401C208000207CBDF8B50F463A
:10CA8000017814460546012902D16878002806D0AD
:10CA90002088821C9A422DD8012902D006E0072066
:10CAA000F8BD69784118891C994223D8181A801E4C
:10CAB00086B2684606802188B81C081869467DDF62
:10CAC0000028EDD12878022805D169460988B142AD
:10CAD00001D809210AE00821012805D16878B0426F
:10CAE00002D86A46108001E06846068068460088E1
:10CAF000FE2801D90C20F8BD2288401CB85420889B
:10CB0000401C80B22080395420886946401C208017
:10CB10000988401820800020F8BDF8B50646108826
:10CB200014468446801D0D46984201D90C20F8BD5C
:10CB300032880720062AFAD31927FF01554BBA423B
:10CB400001D99A42F3D171880629F0D3B94201D9AB
:10CB50009942ECD19A4203D0994201D08A42E6D858
:10CB600005216046295420881221401C80B2208073
:10CB700029542088401C80B2208041193088FFF75A
:10CB80001FFF2188401880B2208041197088FFF76C
:10CB900017FF2188401820800020F8BD70B514468A
:10CBA00082880E4605462088111D4118921C994224
:10CBB00001D8FE2A01D90C2070BD521C32542088A5
:10CBC000FF21401C80B2208031542088401C80B25C
:10CBD000208081192888FFF7F3FE2188401880B251
:10CBE0002080AA88002A09D0A968002908D08019C5
:10CBF00002F032FD2088A98840182080002070BDF6
:10CC0000072070BDFFB50746806A81B01446002832
:10CC10003DD0002538462030009033E00C20B96A22
:10CC200068430E18B088801CFE2802D90C2005B07D
:10CC3000F0BD22880299401C885420881622401C8E
:10CC400080B2208002990A542088401C80B2208043
:10CC5000029941183088FFF7B3FE2188401880B24E
:10CC60002080B288002A0AD0B16800290FD0029B28
:10CC7000C01802F0F1FC2088B188401820806D1C9B
:10CC80000098EDB2007BA842C8D80020CFE707206B
:10CC9000CDE70000FFFF000038B56749674A4888C4
:10CCA00090420FD04A78664C521CD2B24A70237B15
:10CCB000934208D3091D75DF002803D0A16900291C
:10CCC00000D0884738BD00254D70217C002907D051
:10CCD0003B2176DF002803D0A169002900D08847D6
:10CCE00061690029EED068460570884738BD70B587
:10CCF000054601461C22524802F0AEFC4E4C00266E
:10CD000026702968002906D00822201D02F0A4FC04
:10CD1000201D7ADF02E04848001D7BDF002807D194
:10CD2000401E60806670474A0021474800F075FE4B
:10CD300070BD10B54448006800F0E2FE10BDF8B5C3
:10CD40003D480C3000F06BF800263B4D3C4C002871
:10CD500007D0616900291CD001206A46107068461E
:10CD600016E02878002805D06169002911D06846AE
:10CD700006700DE0687800280DD0A16832480022C6
:10CD8000006800F084FE002803D0A169002900D0CB
:10CD900088472E70F8BD6168F0E7F8B5284C028826
:10CDA0000027254DE689102A17D02749112A21D0BE
:10CDB000122A2DD0502A0FD1C288801DB2420BD129
:10CDC0004289022A08D1427B037B10021843C00724
:10CDD000C00F13D0FFF7B3FFF8BD8188698001460B
:10CDE0001548082218310C3002F036FC6F70002E06
:10CDF000F0D0F8BD0020C04368806F70086800F074
:10CE00007FFE0028F5D0A1690029F2D08847F8BD3F
:10CE10000822811808480C3002F01EFCDAE741882D
:10CE20000548001D0288914204D34088814201D800
:10CE30000120704700207047142C0020FFFF0000E5
:10CE4000D030002099CC0300A4F7030030B585B0A2
:10CE5000002822D00388FE4CA34220D0FD4B1B7833
:10CE6000002B1CD0FB4B10255B1C1D70597000243F
:10CE700001259A70032269460A8200940194029463
:10CE80000394028A0A808D708C8004A90291039316
:10CE900000886946A6DF05B030BD0E20FBE70820FC
:10CEA000F9E7F0B58BB00C460546022168460173E0
:10CEB00001268674228982826289C28220460C30D1
:10CEC00000270690089768460184478407A80990C0
:10CED000A98A288808AAA5DF002804D0E96A0029C1
:10CEE00019D0884717E06846808BC007C00F12D062
:10CEF00068460782288803A9A8DF002812D1217B71
:10CF000020460D300B0002F0F5FB09420F1C2224D5
:10CF10002729402B4200FF20FE30694608822888DE
:10CF200003A9A8DF0BB0F0BD6A4617700BE006221C
:10CF30001BE069460E720190AA6A284690470020BD
:10CF4000F0E76A4616706289022AF2D2EFE7022001
:10CF500000E00320694614E00420FBE70520F9E720
:10CF60006189032905D2032208212846FFF76EFFB5
:10CF7000D8E741780278080210436946888002D0D9
:10CF800006200870D8E70720FBE70920E2E7032224
:10CF9000EBE730B585B00D46040038D0002D36D013
:10CFA0006868002833D00020C043AB4B20800FCBF3
:10CFB000049301AB07C3A9486946088001A8811EF4
:10CFC00063DF002822D1221D69460120A0DF00284E
:10CFD0001CD168468078A071204600F0CEF8002869
:10CFE00014D1204600F059F900280FD129462046D7
:10CFF00000F004F9002809D16868A062A868002838
:10D0000000D0E062934901200870002043E70E2021
:10D0100041E73EB5002828D0002926D0826A002AA0
:10D0200023D00A88102A21D0112A30D0502A1FD0AC
:10D03000512A1AD10A460446891D0878022814D1BB
:10D040004888238A984210D1907B04280DD0062866
:10D050000BD0052809D02046891CFFF722FF0028A5
:10D0600003D0E16A002900D088473EBD898810E0DE
:10D07000CB8802899342F8D108226B461A700A7C49
:10D080001A7212310191826A694690473EBD0021B1
:10D09000C94301803EBDF0B585B00A4605002DD0DC
:10D0A00028886B4988422BD06A480078002827D00E
:10D0B000684C1020641C2070072060700127A77046
:10D0C0000321684601820026E11C104600F04CF85E
:10D0D00001466846008A0918684601820096019652
:10D0E00002960396298A01808770868004A803949B
:10D0F000029028886946A6DF05B0F0BD0E20FBE748
:10D100000820F9E7F0B585B00A46050028D0288840
:10D110004F49884226D04F480078002822D04D4CF5
:10D120001120641C20700127684607820026611CBC
:10D13000104600F019F801466846008A091868464A
:10D1400001820096019602960396298A01808770D3
:10D15000868004A80394029028886946A6DFCBE75E
:10D160000E20C9E70820C7E70870020A4A70020CBF
:10D170008A70000EC8700420704730B58FB0054625
:10D180001C21684602F081FA6946087804210843A8
:10D19000694608700024019403940494059406944D
:10D1A000A87908A988702D486946801C0884601CED
:10D1B00000070794000F0C77103048778A7FF9201A
:10D1C0000240F720921C0240EF200240012002435F
:10D1D0008A77142109A802F058FA08A8099007A82C
:10D1E0000A9069468C851420CC8508860D942B46C0
:10D1F000A888083309AAA2DF0FB030BDF0B58FB000
:10D200000F4605461C21684602F03FFA6846017841
:10D210000226314301700024019403940494059480
:10D220000694A97908A881700C496846091D0184F3
:10D23000601C0107090F6846103107940177002030
:10D24000014668464177817FF9200140F72007E0D9
:10D25000FFFF0000282C0020A8F703003015000075
:10D26000891C0140EF20014001200143684681777D
:10D27000142109A802F009FA08A8099007A80A9041
:10D2800068468685C48506860D972B46A888203378
:10D2900009AA6946A2DF0FB0F0BD30B58FB00546D0
:10D2A0001C21684602F0F1F9694608780821084314
:10D2B00010221043694608700024019403940494DA
:10D2C00005940694A87908A98870144869460884CA
:10D2D000601C00070794000F0C7710304877887F98
:10D2E000F9210840F721801C084010430121084320
:10D2F00069468877142109A802F0C7F908A809909F
:10D3000007A80A9069468C851720CC8508860D945D
:10D310002B46A888103309AAA2DF6DE7311500005B
:10D3200031B5054C04E0401E00902046FEF7E4FEB7
:10D3300000980028F7D138BDE703000018225043B9
:10D34000854A002180180171816041610322816159
:10D350000261C160704770B57F4C182221780F20A0
:10D3600051430A197D4916795369121D4D68012EE2
:10D370000FD0032E0CD101200007006981B218469E
:10D3800002F054F9401928DF002801D10121A170D1
:10D3900070BDA802556851692D1A091892681818AD
:10D3A000101801229202954202D2AA0829DFEBE767
:10D3B000FF22013229DFE7E7F8B5674C069E657862
:10D3C0000A2D1DD027787D19EDB20A2D01D30A3D13
:10D3D000EDB218277D432D192871AA6103C9EE60AB
:10D3E000AB6069612861A1780020002904D1FFF7B2
:10D3F000B2FF112800D100206178491C6170F8BD8E
:10D400000420F8BDF8B5544C0022A17801293ED182
:10D410000023A3700646214608781827054678435E
:10D420004118022E03D0032E31D10D202CE04B48A1
:10D430004668761C46608968B6028E4214D3436003
:10D440006078401E6070681CC0B220700A2801D34A
:10D450000A3820701820684301191046091D00F091
:10D460006BF82846FFF76AFF607800280FD0A07895
:10D4700000280CD1FFF76FFF002808D0112806D034
:10D480002178182251430919091D00F055F8F8BDFB
:10D4900070B50024314E304874600470447084705C
:10D4A00025462846FFF74AFF6D1C0A2DF9D32A4965
:10D4B00034600020F43174608200401C8C500328DA
:10D4C000FAD3002070BD10B5244B1A68032A09D086
:10D4D0000A60214C9100F43400686050521C002016
:10D4E0001A6010BD042010BDF8B507461D4616464B
:10D4F0000C46084600F01AF800280CD0601900F01D
:10D5000015F8002807D033462246394601200095F9
:10D51000FFF752FFF8BD1020F8BD08B50B460022FA
:10D52000014603200092FFF747FF08BD800701D0A6
:10D53000002070470120704738B50C46E268064B62
:10D540009200F4339D5809786268009202462046A2
:10D550000C306369A84738BDEC300020302C002027
:10D560000EB56B461980019202906A460021194857
:10D5700000F034F80EBD18B501246B461C701B7802
:10D58000154B186059609A6012494942401807D0FB
:10D5900001280FD1DA60D86800889861D86807E060
:10D5A0001A6118698068586118690088986118695B
:10D5B0004068D861186858689868D86818695869C8
:10D5C0009869D86972B6684600780028FBD162B6BF
:10D5D00018BD000001400000EC31002010B50F2400
:10D5E000034B6405DC6000249C60FFF7C4FF10BDA2
:10D5F0000005005030B5CB0008339DB293070024DE
:10D60000002B01D0072030BD404B9A605219DA60E0
:10D610005C701C7058809980002030BDF7B53B4C81
:10D6200082B060880E4681423FD800256846384F58
:10D63000057000F0DDFB22786078A188884201DA6D
:10D64000401C00E00020C0B2904204D1684600783F
:10D6500000F0E6FB27E065786078884201DA401C3C
:10D6600000E0002060706846007800F0D9FBBD4201
:10D6700019D0A068EF000499C151029900290CD07B
:10D68000002E0AD0608832464543E068281801F031
:10D69000E3FFA0683818868002E0002138188180F6
:10D6A000002005B0F0BD0420FBE70920F9E70EB526
:10D6B00004E068468188029A0098904702AA01A96E
:10D6C000684600F003F80028F3D00EBD70B50F4B8C
:10D6D00005241D785E78AE4215D01D781C789E8892
:10D6E000B44201DA641C00E000241C705C88DE682F
:10D6F0006C43A41904609B68E800C418A4880C80DB
:10D70000185800241060204670BD0000382C0020FE
:10D71000FFFF00008307FF22DB0E9A408907090EF6
:10D72000994000280BDA0007000F08388308FF48EB
:10D730009B001818C36993430B43C3617047830868
:10D74000FB489B001B1818689043084318607047FB
:10D7500070B50124F74960040860F74940108860FB
:10D76000F54940398860F54D6C602F20FEF7D4FCF8
:10D77000AC60F34D00242F202C61FEF7CDFCEC7043
:10D7800070BDF8B5EE4DEC68002C37D0ED480027A1
:10D7900040682969401A0602360A2068B0421BD840
:10D7A000361AC7192246107CE469002812D00020DE
:10D7B00010746B69002B0AD0916950699847002852
:10D7C00008D0FF21E0A26631FFF7CAFE02E05169EE
:10D7D00090698847002CE0D16978A878814206D109
:10D7E000401CC0B2A870022801D10020A870D44902
:10D7F0000006800D18310F5000F0FAF9F8BDF8B5A9
:10D80000CF49C8680A690C780F79896886469446BA
:10D8100000913EE00099E20055182A7836E018237E
:10D8200053436968521CC918AB78D2B2934200D1F5
:10D8300000220B78022B02D0032B27D123E04E6865
:10D840000346014603E0B14204D00B46C9690029F2
:10D850001CD0F8E7002919D08B4208D1C0690028F4
:10D8600005D1B64F0126BE600026B44601270E68DA
:10D87000C969D961002909D00B689B190B6005E0C3
:10D880000174C06900E000210028F9D16978914253
:10D89000C5D12146641EE4B20029BBD1A849624625
:10D8A0000A61C8600F71704501D00120F8BD0020E9
:10D8B000F8BDF8B50446A2480026C1680091077873
:10D8C0004EE09F48F90080680D1843E0002C02D01C
:10D8D0002046E4691FE02878182141436A68401C0B
:10D8E000C0B251182870AA78904200D12E700A78E0
:10D8F0004868012A30D1027C002A2DD18A68426012
:10D90000CA6882600A69C260496981618C49097983
:10D91000002900D046608A4943680A699C46991AE2
:10D920000902984B090A994202D28268891807E0D5
:10D930006146511A09028268090A8A4202D9511ABB
:10D94000016000E006604660012186600174C661E6
:10D9500000F030F9002CB9D1287869788842BAD122
:10D9600038467F1EFFB20028ABD17548C1680098C9
:10D97000814201D00120F8BD0020F8BD824900207D
:10D98000086048608860C8607F4940390860486026
:10D99000F7E610B500F031F910BDFFB5900700258E
:10D9A00081B014460E46002833D1654F002C32D08A
:10D9B000FFF7CEFE049878610320387033461821B3
:10D9C000224600204B43BC601834C10089180D70FA
:10D9D0004D708E704C601C19401C0328F5DBFD60F7
:10D9E0007D7001246948BD70240504600321142062
:10D9F000FFF790FE4F4880380460524C0198A060B9
:10DA000003211120FFF786FE60683861002005B011
:10DA1000F0BD0720FBE7BD60FBE7494B9B68002B8F
:10DA200007D0002A07D0002805D00068037C002B0F
:10DA300003D00820704707207047417442610020DE
:10DA40007047EFF30580C005C00D1AD0103840B202
:10DA5000002808DA0107090F08398908334A8900C4
:10DA60008918C96904E08108314A89008918096860
:10DA70008007C00EC1400806800F012803D003288C
:10DA800003D0022070470020704701207047FEB588
:10DA90000D462B4917468968044600292AD0002CD8
:10DAA00028D0052D01D20720FEBD6069002821D0B5
:10DAB000607C012820D00026FFF7C3FFC00020496A
:10DAC000019089684018694600F0D7F8002815D001
:10DAD000012101701B49446049680830E2C01849BF
:10DAE00001988968411868460078487000F080F80D
:10DAF0000020FEBD0820FEBD2E46DDE70420FEBD51
:10DB0000F8B50F4D0446A96800294FD0002C4DD020
:10DB1000606900284AD000262674FFF792FFC700EC
:10DB2000A8686946381800F0A8F831E000ED00E078
:10DB300000E400E080E100E04013014000100140FB
:10DB4000482C0020001501402E2E5C2E2E5C2E2E1F
:10DB50005C2E2E5C2E2E5C2E2E5C636F6D706F6EB5
:10DB6000656E74735C6C69627261726965735C7412
:10DB7000696D65725C6170705F74696D65722E634A
:10DB800000000000FFFF7F004011014080E200E044
:10DB900000280DD0022101704460A8683918684639
:10DBA0000078487000F024F83046F8BD0820F8BD31
:10DBB0000420F8BD10B56C4BD968002906D0026866
:10DBC0000C68A24204D8A21A0A60C161D86010BDD4
:10DBD0000B4604E00B46C969121B002904D00C68EF
:10DBE0009442F7D3A41A0C600260C161D86110BDE1
:10DBF00001205E49000508607047FEB55A4C0025BB
:10DC00002769E0680290684600F04AF80190FFF743
:10DC1000F6FD06460198002822D000230098E1680E
:10DC200017E00E680A46864202D9301A086012E0F0
:10DC3000801BF31800261660D668D169B446002E02
:10DC400007D0FE183602360A566066469660D561E1
:10DC500015460029E5D12846E160FFF72AFE06E0D7
:10DC60002846FFF726FE002801D1002E02D0029898
:10DC700000F033F800202071FEBD42788378521CFA
:10DC8000D2B2934200D100220378934201D1002006
:10DC900070470A704168407818225043081870474E
:10DCA00010B5314900234A788C78A24212D0521C18
:10DCB000D2B24A70022A00D14B704A782A4B9200A5
:10DCC00018339A580260086910180002000A0861A7
:10DCD000012010BD0360002010BDF8B52248C168C6
:10DCE00000293ED00E6822494C680769C078E11BC4
:10DCF0000D022D0AED1C002815D101201D4A00043B
:10DD000050601C4A403A5060184940008031086019
:10DD1000194908601949012008602F20FEF7FCF915
:10DD200011490120C870B54200D23546E8190002F9
:10DD30000F4B000A403318600D4A5168001B091B45
:10DD40000902090A0002000AC91C814208D9506868
:10DD500018602F20FEF7E0F9012004494004086014
:10DD6000F8BDFFF7F5FCF8BD482C002000E200E00C
:10DD7000001501404013014000E100E000100140A7
:10DD800010B50446082904D008A214210020FFF78A
:10DD9000E7FB21686068884710BD1CB501910090C1
:10DDA000124A08216846FFF739FC1CBD2E2E5C2E56
:10DDB0002E5C2E2E5C2E2E5C2E2E5C2E2E5C636F27
:10DDC0006D706F6E656E74735C6C6962726172699E
:10DDD00065735C74696D65725C6170705F74696DA8
:10DDE00065725F61707073682E63000081DD0300EF
:10DDF00030B5EFF3108172B6134A54680123002C3A
:10DE000004D00370002900D162B630BD53600F4BBF
:10DE10001D680F4C254015601C6000220270F1E760
:10DE200009494A68002A0DD000280BD1EFF3108071
:10DE300072B60A68054B803B1A6000224A600028CF
:10DE400000D162B670470000DC2C002080E100E0C9
:10DE5000FC06FFBC10B5BD480378012B03D1012996
:10DE600001D102210170100003D0B94A4121FFF70E
:10DE700077FB10BD70B5B74DB74EB44C48DF0028E6
:10DE800003D0B34A5321FFF76BFBFFF710FC35605B
:10DE90002078022803D0032801D00428EED170BDD9
:10DEA00038B50068401C19D00024684600F05CF9C1
:10DEB00000980178012910D1418800290AD0816891
:10DEC000032000038068002200F058F90099498877
:10DED000814201D1012400E00024204638BD10B564
:10DEE00004469A481C21001DFFF717FB002803D0A9
:10DEF000974A8921FFF734FB944800231C222146CE
:10DF0000001DFFF7F1FA002803D0914A8F21FFF797
:10DF100027FB10BD0FB4F8B5684600F025F9684638
:10DF2000027E418B0123894CFF258C48002A12D0A8
:10DF3000012A16D0032A2AD00021022A36D0052A27
:10DF400046D0042A4ED0062A01D104202070F8BC05
:10DF500008BC04B0184741800999816003700571BD
:10DF600010E04180089A07998918099A89188160F8
:10DF7000A521017005710799C1600899426101618D
:10DF80000A99816123707548FFF7A9FFDFE70099BF
:10DF90000A7802704A88428089688160AA210171EA
:10DFA0000799C1600899016109990BE0009A1678F8
:10DFB000A52E09D006705688468092688260057149
:10DFC000C16001614161DDE7418081600570F6E774
:10DFD00000F061FD002803D05D4ADD21FFF7C0FAA3
:10DFE0000320B3E7418081600570009909790171D0
:10DFF000C9E70EB55A4A6B4607CA07C3FFF748FA86
:10E00000002807D15149FF208002091D4860684659
:10E01000FFF759FA0EBD10B500F0CBF9002805D175
:10E0200000F051FF0446FFF725FF204610BD70B5F4
:10E0300011DF002804D0FF21454A2F31FFF790FA65
:10E04000484900200A68474B012180330C46844030
:10E05000144204D0C506ED0E0C46AC401C60401CBA
:10E060002028F3D303242403A06813DF002804D05E
:10E07000FF21374A3431FFF773FAA06800F07AF8CD
:10E0800070BD08B5684600F06FF800980178A529C2
:10E0900004D00079AA2801D0002008BD012008BDC5
:10E0A00010B500F091FB002803D100F069FB0028B7
:10E0B0001ED06420FFF734F900F005FB002804D0DF
:10E0C000FF21234A5931FFF74BFA00F07DFB00286E
:10E0D00004D0FF211E4A5C31FFF742FA00F02DFB0D
:10E0E000041E04D0FF211A4A5F31FFF739FA204697
:10E0F00010BD00B51A4987B014220C3101A801F0F7
:10E10000ABFA0598009001A80FC8FFF703FFFFF7CF
:10E11000B1FE002007B000BD38B50446684600F0E7
:10E1200023F800980078207000984088608000985C
:10E130008168A16001792171C168E1600169216193
:10E14000416961618069A06138BD0000682C0020D0
:10E150001CF803003546526E000601400C320020C8
:10E16000B8F7030000E100E00149016070470000DA
:10E1700000FC030010B5FDF7DFFF10BD10B504462D
:10E18000002A02D01088002210E00A48FBE7030AA8
:10E1900000020343A05C584003061B0F43401803D2
:10E1A000584083B21806C00C5840521C8A42EED325
:10E1B00010BD0000FFFF000070B5FA4C1E466078ED
:10E1C0001546012902D0032916D108E0052813D1EC
:10E1D0006369002B10D03246294604200BE0022848
:10E1E0000AD1F14840688047032060706369002BC2
:10E1F00002D0324629469847280003D0EB4A5221E4
:10E20000FFF7AEF970BD00B5E64987B00120087090
:10E210000520694608710598009001A80FC8FFF70E
:10E2200079FE07B000BD10B5DE480078002801D0A7
:10E23000082010BDDE4C2068FFF762FC002803D0E8
:10E24000DA4A7521FFF78CF90F2100228904206832
:10E25000FFF71DFC041E03D0D44A7821FFF780F994
:10E26000204610BDCF4910B5CE48203101610221B2
:10E270004170C1682030FFF750F9002803D0CB4A25
:10E280008E21FFF76DF910BDC64910B5C54818318C
:10E290000161022141700320000381680F20800387
:10E2A000401A4105490D401A4108BE481830FFF791
:10E2B00034F9002803D0BD4AA021FFF751F910BD61
:10E2C000704700B5BA4987B01422091D01A801F0B2
:10E2D000C3F90598009001A80FC8FFF71BFEA0E73F
:10E2E00000B587B0012168460171AE488188684653
:10E2F000C1800320000380680590AB4890384168D6
:10E30000029181680391C0680490059800900A46C4
:10E31000049B02990198FFF7FDFD002081E730B5CD
:10E32000A14CA048903C87B02030E168FFF7F5F899
:10E33000002803D09D4AF821FFF712F99948E268B6
:10E340001830416800230830FFF7CEF8050012D1DD
:10E35000142101A801F099F9002168460171914842
:10E3600081886846C180E06804900598009001A803
:10E370000FC8FFF7CFFD284607B030BD00B587B006
:10E38000032168460171874881886846C1808648B4
:10E3900090384168029181680391C06804900598A3
:10E3A00000900A46049B02990198FFF7B3FD0020F4
:10E3B00037E7FEB57E4E6B463046183007C807C3B8
:10E3C000784C0025A5702146A58020316846FFF7CE
:10E3D0007AF8002801D06570FEBD03207149000362
:10E3E00080682031486020390A46126A8A610F210C
:10E3F0008903091A4A05520D891A490808186949FA
:10E400006C4A1831486000216948FFF706FB002874
:10E4100004D0FF21654A3F31FFF7A2F80F21002207
:10E4200089043068FFF733FB002804D0FF215F4ADE
:10E430004331FFF795F80120A56060700020FEBD14
:10E4400058494861704770B5426857481468536826
:10E4500091689038D26804604360C260816000783F
:10E46000440701D5840705D19C0703D18C0701D14E
:10E47000940701D0062070BD5B189A18494D0F23F0
:10E480009B02EA60994216D84B4B4C49464CC60752
:10E4900009D09868081A90420DD34948206049482D
:10E4A0006060494812E09B68C91A4B055B0DC91AA8
:10E4B0004908914201D20C2070BD44492160444971
:10E4C0006160800701D5434800E04348A060687858
:10E4D000012802D00826304670BDFFF7A4FE0600D2
:10E4E000FAD12168E8688847F5E770B5050004D0DF
:10E4F000287A800703D0102070BD0E2070BD294CF3
:10E500006078032803D0042801D0052801D0082012
:10E5100070BD6868E1688600A0688019884204D9E7
:10E520000020C043A0600C2070BDFFF77CFE0028D7
:10E53000FAD1A9683246A3682069FEF7D5FF002802
:10E54000F2D1A1688919A160E2689142ECD009205A
:10E5500070BD10B5134C0820A168002900D010BD73
:10E5600061780429FBD11048A178803800F078F94F
:10E57000002802D00021A17010BD0521617010BDDE
:10E58000F8B5084C07466078032804D0042804D066
:10E5900008252846F8BD04206070A06800281DD01A
:10E5A0000820F8BD742C0020D832002060F8030049
:10E5B000D8F7030007E203000030000000C00300AA
:10E5C00065E20300C3E20300E1E2030089E2030025
:10E5D000C1E203007DE303001FE30300FFF723FE16
:10E5E0000500DED178688600A0788119802901D9DC
:10E5F0000920F8BD954AB9681018324601F02CF888
:10E60000A0788019A070C4E710B5914C60780528F7
:10E6100013D1E168A06888420FD106206070FFF72F
:10E6200002FE002808D12069E168406800F053F933
:10E63000002801D10721617010BD082010BD10B560
:10E6400083484078072801D0082010BD8148006821
:10E65000FFF756FA002803D07F4A8049FEF780FF73
:10E660007A4880308068804710BD00B587B00620AA
:10E67000694608710598009001A80FC8FFF74AFC89
:10E68000CFE5F8B51C4617460D46064600F0C8F81B
:10E69000002817D001200003854207D92346291BF3
:10E6A000301B1A46FFF7EDFF00280BD13A462946EA
:10E6B000304600F0C0F8002804D13A4629463046DA
:10E6C00000F0AEF8F8BDF0B589B06846FFF724FD5C
:10E6D000039800282AD001210903069A4018904285
:10E6E00026D9501A45081046039A0C468718024648
:10E6F000680016180019079003200003806803992A
:10E7000088420DD261190846042200F094F80028CE
:10E710000CD121460422084600F08DF8002805D1CE
:10E72000BA1B2B4630460799FFF7ABFF09B0F0BD87
:10E73000039A069800F07FF8F8E700B58DB06846B8
:10E74000FFF7EAFC049800280DD0039800280CD0AD
:10E7500003990698401808900021049807918008B2
:10E76000099007A818DF0DB000BD032000038168E1
:10E770000F208003401A4205520D801A4008E9E735
:10E7800000B58BB004A8FFF7C7FC0898002810D08C
:10E790000F210798890300280DD0079A0A98019144
:10E7A000801802900322089800928008039068461F
:10E7B00018DF0BB000BD032000038268881A4305F0
:10E7C0005B0DC01A4008EAE730B58FB06846FFF726
:10E7D000A3FC0398002814D001210903069A4018CD
:10E7E000904214D9501A43081046039A5C008218CC
:10E7F0000019611803242403A468039DAC4202D2CB
:10E800000E200FB030BD121AFFF73BFFF9E70320CF
:10E810000BAB07C3039880080E900BA818DFF0E736
:10E820001FB503230190900803900093029168465E
:10E8300018DF04B010BD1FB50123019090080390AC
:10E8400000930291684618DFF3E700005832002079
:10E85000742C0020D8F7030060F803006502000064
:10E8600070B500250C290ED30446431800894100D9
:10E870000919581A0A38C2B21E48022A027002D375
:10E880000A318B4201D2092070BD1B4800F0E4FE22
:10E890001A481B4902888A4202D02388934218D121
:10E8A0004088884202D06188814212D1144A0323F1
:10E8B000521E20891B03A8420BD9690009194989F6
:10E8C000914204D09E896D1CB6B2B142F3D10020B2
:10E8D00070BD0B2070BD10B50022FFF74FFC064A3B
:10E8E0005178127809021143884201D00B2010BDE3
:10E8F000002010BD9C2C0020E4320020801000106D
:10E90000FFFF000008280CD004DC002807D00628F0
:10E910000FD108E00B280AD00C280AD105E001200D
:10E920007047022070470320704704207047042975
:10E9300001D0062070470520704770B515460A467D
:10E94000032827D0042824D1FE4C00290AD0E088CF
:10E95000FD4988421DD0132176DF002819D0FB4ADB
:10E96000E92114E0284600F077FC002803D0F74A9C
:10E97000EF21FEF7F5FDA069A8420AD1012203218B
:10E98000F348FEF763FA002803D0F04AF821FEF7B7
:10E99000E7FD70BD01211046FFF7B4FF02460121DB
:10E9A000EB48FEF753FA0028F3D0FF21E74A053180
:10E9B000EDE7F0B50546087A0E4685B081070DD023
:10E9C000032211462846FEF741FA002804D0FF2111
:10E9D000DE4A9831FEF7C4FD05B0F0BDD94900907C
:10E9E000143100F012FC010011D1D64C7168009A6C
:10E9F000606900F031FE009800F061FC010006D172
:10EA000020466946143000F066FC010003D0284619
:10EA100000F024FBE0E704200190009880080290B9
:10EA20006069039001A8FFF760FD07000BD0092F74
:10EA300010D0606900F010FC010002D0284600F000
:10EA40000DFB3946E3E7307A21694018206160699F
:10EA5000A061C1E7307A21694118216160780028FE
:10EA6000BAD06089401E0004000C6081B4D12846F1
:10EA7000FEF748FB002804D0FF21B44AD631FEF748
:10EA80006FFD20896081A7E710B52121AF4A0901F8
:10EA9000FEF766FD10BD10B5AA4C01202070E0887D
:10EAA000A949884208D0132176DF002814D0A74A4C
:10EAB000A849FEF755FD0FE0A07800280CD074DFC0
:10EAC000002804D05F21A14AC900FEF749FD1520A6
:10EAD00000F092FA0020A070FEF72BF9002804D075
:10EAE00045219A4A0901FEF73BFD002010BD70B593
:10EAF0000D7804460120934A2B0000F0FBFD0A2FFD
:10EB0000344C06152360654F6922FFF77DFD042113
:10EB1000FFF7F8FE024604212046FEF797F9002889
:10EB20000FD08A4A8C4933E0FFF7B5FF002804D0A4
:10EB30008949864A491DFEF713FDFFF780FD00282D
:10EB400009D170BDFFF7A7FF002804D082497F4A92
:10EB50001231FEF705FDFFF788FD70BD10714868A2
:10EB60000078507170BD022010714868007801284B
:10EB7000F8D1FFF7EEFC0221FFF7C4FE02460221A6
:10EB80002046FEF763F90028ECD073496F4A26311E
:10EB9000FEF7E6FC70BD0320107170BD12792046AF
:10EBA000012A06D0022A07D0032AF6D1FFF701FF77
:10EBB00070BD00F067FA70BD00F0AAFA70BD507029
:10EBC00088881081508170BD00205070108170BD08
:10EBD00020461169FEF75FFA0028F8D005215B4A4C
:10EBE000C901D5E710B50446594890B08179684607
:10EBF00081705A490180382101A800F046FD0221A8
:10EC00006846017100218171C471012181810490E4
:10EC1000002101A8FDF7A0FE002804D04E494B4A70
:10EC20006831FEF79DFC10B010BDF0B5454C8BB0BF
:10EC3000A07800283FD146481821183800F025FD5B
:10EC40002046434CC078183C0025012600283CD0C3
:10EC50002746483700950195029510226946F81D10
:10EC6000039500F01DFD002827D0F81D0890099796
:10EC70006846067509A804906846067708A80690B5
:10EC80000420FFF7AFFF25700220207204A8E06087
:10EC9000282020822E486582183873DF002804D08F
:10ECA0002D492A4AA531FEF75BFC01202C4940057D
:10ECB000C860244886700BB0F0BD0520FFF792FFB6
:10ECC0002670676025722582E4E70620FFF78AFF39
:10ECD000257065602572DBE7F0B50546194C0088A4
:10ECE00000270122E688A7B0192810D03ADC1128A5
:10ECF0005BD00EDC022875D0102808D1184980049A
:10ED0000C860152000F078F9A888E080A77027B0C7
:10ED1000F0BD0F4C303427461837132863D0142821
:10ED2000F5D1288A628D0021904200D13946002316
:10ED3000A888E21D86DF0028E9D00649034AB839D1
:10ED400030E00000A02C0020FFFF0000A8F8030026
:10ED50000833002047040000410200003015000085
:10ED600000050050512873D00EDC1A286FD01B28E4
:10ED7000CDD1287A0028CAD1A770E068401EE06093
:10ED80004FD0FFF752FFC2E7522860D05528BED1BE
:10ED9000A8790028BBD11321304676DF0028B6D0F1
:10EDA000FB4AFC49FEF7DCFBB1E78020694688801E
:10EDB0003220E060162000F01FF9012301AA06A905
:10EDC000E088AADF002804D01921F14A4901FEF7A2
:10EDD000C7FB2078002801D1FFF727FF0020C043A0
:10EDE000E08094E729E00722EB4912A800F034FC08
:10EDF0001022E11D0EA800F02FFC1C22394614A899
:10EE000000F02AFC0EA80B9014A80A9006ABE34A67
:10EE1000852130467FDF0028B5D0DE49DC4A09393C
:10EE2000C0E71422DE4906A800F016FC0A9806ACDA
:10EE300000900FCCFFF76EF869E70021304667DFDE
:10EE40000028A0D0D349D24A1731ABE700E01EE03A
:10EE5000A979002997D0A87B042803D0062801D0DF
:10EE6000052890D102290ED068460272FF20833017
:10EE70006946888102A93046A8DF002894D0C54998
:10EE8000C34A31318EE7022069460872EEE700F08E
:10EE9000B8F8002888D0BF49BD4A4C3182E710B588
:10EEA0000446FDF77AFFBC4821463038FEF7B1F83A
:10EEB0002046FFF711FF10BD10B57D21B44AC900EF
:10EEC000FEF74EFB10BD30B5B44D87B000241C3D9D
:10EED0002C702C71152000F089F8162000F086F8AF
:10EEE000152000F089F8162000F086F8AD4800F0F3
:10EEF00072FA002875D1AC48FFF7A2FA00F076F953
:10EF000000286ED1A448FDF75DF900286BD0684653
:10EF100071DF002804D09F499D4AE031FEF720FBB5
:10EF200069464878401C4870002070DF002804D0F3
:10EF30004321974A0901FEF713FB11206946087225
:10EF400007229AA102A87CDF002804D09149904AA8
:10EF50008731FEF705FB00940C216846019401807F
:10EF600018214180FF2184809131C1807ADF0028FF
:10EF700004D08849864A9131FEF7F2FA08206946A2
:10EF8000009408808B4801908B480290824830386A
:10EF9000FDF7FFFF002804D0FF217D4A8900FEF71E
:10EFA000DFFA1C21684600F070FB844801900120C4
:10EFB000800302900094032168460173C4810474A5
:10EFC0007F48069005946846FDF791FE002803D01F
:10EFD0006F4A7C49FEF7C4FA00F0CAF8FFF725FE35
:10EFE000002007B030BD0120E870A6E7764A032173
:10EFF0008000801801607047012181407348816062
:10F00000704770B5654C724D1C3CE088A84201D138
:10F01000082070BDE17800291BD05F490123082238
:10F020003431A9DF0028F4D1022300221146E08800
:10F03000A9DF0028EDD12A460C21E088A7DF654929
:10F04000884204D0082802D0891C8842E1D10020DF
:10F0500070BD00231A461946A9DF70BD10B50A46D7
:10F06000044603211046FFF74DFC024603212046CB
:10F07000FDF7ECFE002804D0FF21454A1F31FEF7C2
:10F080006FFA10BD30B5054687B0002000900190A2
:10F090000290039041486A461C3840791070404AFB
:10F0A0000C3A106892680490684606920590087AB7
:10F0B0000C280AD0032201212846FDF7C7FE0028AC
:10F0C0008FD0FF21324A3C311FE04C68204600F0CF
:10F0D00083F80190201D00F07FF802902046083050
:10F0E00000F07AF8039004A8FFF7ADF900280ED0DD
:10F0F0000121FFF707FC024601212846FDF7A6FE85
:10F10000002804D0FF21224A5131FEF729FA68E78E
:10F11000FEB50446087A82070ED08207920F0423B8
:10F120009B1A0022154604E04E683554401CC0B2BC
:10F13000521C9A42F8D3087201200090486802904D
:10F14000087A800801906846FFF71AFA00280ED066
:10F150000221FFF7D7FB024602212046FDF776FE8B
:10F16000002804D0FF210A4A8331FEF7F9F9FEBDD9
:10F170000A4981220878400840001040303040069B
:10F18000400E0870072048701020887070470000FB
:10F19000A8F803004A03000038330020BC2C0020EC
:10F1A00008F803009FEE03003BE903004466755432
:10F1B00061726700EFEA0300B9EE0300CD0C0000B6
:10F1C00089EA0300270200000007005000050050F4
:10F1D000FFFF00000230000010B5044600F06DFA99
:10F1E0000002E178000A0906084310BD4B480021DF
:10F1F00001704C484A4A02608160C1600161082286
:10F200004161426081610846704710B500291DD0F8
:10F2100000220A60434A5368002B1BD0202817D8CD
:10F220005B1E5360D0682423401CD06010691468B2
:10F230004343E3180B60012383409169401C194349
:10F240004007400F91611061002010BD0E2010BDDD
:10F250000C2010BD042010BDF0B5324A064691685E
:10F2600000292AD057691020791A4907490F1468D4
:10F270000B4624254D436519B54206D101249569F5
:10F280008C4065400020956104E0491C4907490F06
:10F290008F42EED1491C4E07760F956901210C462D
:10F2A0009C4025420AD19368002B07D05B1E9360D7
:10F2B00053685B1C53603346F1E70420F0BD194AE4
:10F2C0002423117C1268491E4907490F59432031F4
:10F2D00050500020704770B500281AD0002918D06F
:10F2E000104AD368002B16D05B1ED3609368242687
:10F2F0005B1C9360536915681C467343EE182033FA
:10F300000660E858641C08606007400F50610020E8
:10F3100070BD0E2070BD042070BD0000C12C002007
:10F32000743300209434002010B5FEF757F910BD57
:10F33000F8B5644C2078002837D02069002807D021
:10F340000026E068002805D00025002E04D013E038
:10F350000126F6E70125F8E7684652DF052806D0C2
:10F36000002806D0584A9321FEF7FAF804E0012657
:10F3700002E0216900988847002D12D16088694613
:10F380000880A06861DF052806D0002806D04E4A14
:10F39000B221FEF7E5F804E0012502E0E168A0688B
:10F3A0008847002ED8D0002DCFD0F8BD70B50029E9
:10F3B00001D08C0701D0072070BD424C0125A1600F
:10F3C00062804249636010DF0028F5D12570162065
:10F3D00000F03DF870BD002803D03A49C860002015
:10F3E00070470E207047002803D03649086100207E
:10F3F00070470E20704710B532484068002808D08A
:10F400008047002804D0FF212F4A6731FEF7A8F873
:10F4100010BDFFF78DFF10BD70B50E4605461446B2
:10F420001421104600F031F90120002120802161D3
:10F43000217326726572002D00D0A072002070BD6D
:10F440001CB5234901910091694660DF1CBD10B5D0
:10F450000121202805DA1F4A8140114201D11E48AE
:10F4600010BD8107C90E002808DA0207120F083AFA
:10F4700092081A4B9200D218D26904E08208184B05
:10F480009200D2181268CA401106890F042912D2BC
:10F49000002910D002290ED00A4914314C68C30645
:10F4A000DB0E01229A40002C08D0400980000B5846
:10F4B00013430B5004E00848401C10BD094802608B
:10F4C000002010BDC82C0020F4F8030029F303002D
:10F4D000002C0020FC06FFBC0120000000ED00E035
:10F4E00000E400E000E100E010B5002904D0074A84
:10F4F00013210020FEF734F8FFF71AFF10BD10B5F6
:10F500000021034A0846FEF789F810BD4CF90300B4
:10F51000E9F403000321094802680A43026008482D
:10F5200002680A4302600748804707480047FEE731
:10F53000FEE7FEE7FEE7FEE7FEE7000024050040E9
:10F54000540500404DF50300C1C0030010B500F0A4
:10F550003EF8002805D02F492D484860C8132E4991
:10F5600088612E48018CC9B201290BD1828C120707
:10F5700008D1028D1206120F042A03D1828D1206C1
:10F58000120F0AD0012921D1818C09071ED1018DCA
:10F590000906090F0A2904D007E0214A01219160D8
:10F5A000F5E7828D1206120F05D00D290ED1808D40
:10F5B0000006000F0AD11B480168012904D01A492E
:10F5C000016001680129FCD1C021416110BD1348CF
:10F5D000018CC9B2012917D1818C090714D1018D81
:10F5E00009060A0F03D1828D1206120F0ED0090FE1
:10F5F000012903D1828D1206120F07D0032903D1EE
:10F60000808D0006000F01D0002070470120704758
:10F61000DFFF07C000050040006C0040C00F00F095
:10F620000006004000EC06407593000030B50B4624
:10F63000014600202022012409E00D46D5409D42CC
:10F6400005D31D469540491B254695404019154652
:10F65000521E002DF1DC30BD03460B439B0703D047
:10F6600009E008C9121F08C0042AFAD203E00B7887
:10F670000370401C491C521EF9D27047D2B201E0FF
:10F680000270401C491EFBD270470022F6E710B5FD
:10F6900013460A4604461946FFF7F0FF204610BD00
:10F6A00030B504460020034600E05B1C934203D2C1
:10F6B000E05CCD5C401BF8D030BD0321001D401E36
:10F6C000037812021A43491EF9D51046704700000C
:10F6D000064C0125064E05E0E36807CC2B430C3CA5
:10F6E00098471034B442F7D3FCF7EEFCACF90300B2
:10F6F000CCF9030030B47446641E2578641CAB4218
:10F7000000D21D46635D5B00E31830BC184702E081
:10F7100008C8121F08C1002AFAD17047704700209C
:10F7200001E001C1121F002AFBD17047E82C002024
:10F7300000100000020000000000000000000000B7
:10F74000000000001A0000000D0000000C00000086
:10F750000E0000001B0000001C000000180000004C
:10F760001900000014000000130000001600000043
:10F77000170000000B0000000A0000001500000048
:10F78000110000000F000000120000001000000037
:10F790001D00000009000000070000000800000034
:10F7A0001E000000B030002023D1BCEA5F78231592
:10F7B000DEEF12120000000055DE03000000000022
:10F7C0000000000002000000000000000000000037
:10F7D00000000000000000002832002004000000AB
:10F7E0000000000000000000000000000000000019
:10F7F000B9E1030000000000000000000300000069
:10F8000000000000000000000500000000000000F3
:10F810000000000000000000000000002E2E5C2E02
:10F820002E5C2E2E5C2E2E5C2E2E5C2E2E5C636F9C
:10F830006D706F6E656E74735C6C69627261726913
:10F8400065735C626F6F746C6F616465725F646630
:10F85000755C626F6F746C6F616465722E6300001B
:10F860002E2E5C2E2E5C2E2E5C2E2E5C2E2E5C2ED2
:10F870002E5C636F6D706F6E656E74735C6C696225
:10F880007261726965735C626F6F746C6F616465DD
:10F89000725F6466755C6466755F6475616C5F62F7
:10F8A000616E6B2E630000002E2E5C2E2E5C2E2EC1
:10F8B0005C2E2E5C2E2E5C2E2E5C636F6D706F6E38
:10F8C000656E74735C6C69627261726965735C62A7
:10F8D0006F6F746C6F616465725F6466755C64669B
:10F8E000755F7472616E73706F72745F626C652E97
:10F8F000630000002E2E5C2E2E5C2E2E5C2E2E5CC5
:10F900002E2E5C2E2E5C636F6D706F6E656E747341
:10F910005C736F66746465766963655C636F6D6D57
:10F920006F6E5C736F66746465766963655F68614A
:10F930006E646C65725C736F66746465766963652A
:10F940005F68616E646C65722E6300002E2E5C2E03
:10F950002E5C2E2E5C2E2E5C2E2E5C2E2E5C636F6B
:10F960006D706F6E656E74735C736F6674646576CC
:10F970006963655C636F6D6D6F6E5C736F667464F5
:10F9800065766963655F68616E646C65725C736FF0
:10F9900066746465766963655F68616E646C6572E0
:10F9A0005F61707073682E6300000000CCF9030083
:10F9B000002C0020E80000000EF70300B4FA03005A
:10F9C000E82C0020C80F00001EF703000000000014
:10F9D0000000000000000000000000000000000027
:10F9E0000000000000000000000000000000000017
:10F9F0000000000000000000000000000000000007
:10FA000000000000000000000000000000000000F6
:10FA100000000000000000000000000000000000E6
:10FA200000000000000000000000000000000000D6
:10FA300000000000000000000000000000000000C6
:10FA400000000000000000000000000000000000B6
:10FA500000000000000000000000000000000000A6
:10FA60000000000000000000000000000000000096
:10FA70000000FFFF00000000320000000000000056
:10FA80000000000000000000000000000000000076
:10FA90000000000000000000000000000000000066
:10FAA0000000000000000000000000000000000056
:04FAB0000024F4003A
:020000040003F7
:10FC000001000000000000000000000000000000F3
:10FC100000000000000000000000000000000000E4
:10FC200000000000000000000000000000000000D4
:10FC300000000000000000000000000000000000C4
:10FC400000000000000000000000000000000000B4
:020000041000EA
:0410140000C0030015
:040000050003C0C173
:00000001FF
