:020000040001F9
:10B00000C03F002055B101006FB1010071B10100D6
:10B010000000000000000000000000000000000030
:10B0200000000000000000000000000073B10100FB
:10B03000000000000000000075B1010077B10100C0
:10B0400079B10100C9BA010031C2010079B1010032
:10B0500079B1010000000000F9B5010025B501003B
:10B0600079B10100ADC10100C5C1010079B1010094
:10B0700079B1010079B1010079B1010079B1010024
:10B0800079B1010089BC010079B1010079B10100F9
:10B090007DC0010005C101000DC1010079B10100B1
:10B0A00079B1010079B1010000000000000000004A
:10B0B0000000000000000000000000000000000090
:10B0C0000348854600F0E0F90048004719380200BF
:10B0D000C03F0020401E00BF00BF00BF00BF00BF38
:10B0E00000BF00BF00BF00BF00BF00BF00BFF1D165
:10B0F00070470000401E00BF00BF00BF00BF00BF80
:10B1000000BF00BF00BF00BF00BF00BF00BFF1D144
:10B1100070470000401E00BF00BF00BF00BF00BF5F
:10B1200000BF00BF00BF00BF00BF00BF00BFF1D124
:10B1300070470000401E00BF00BF00BF00BF00BF3F
:10B1400000BF00BF00BF00BF00BF00BF00BFF1D104
:10B15000704700000321094802680A43026008485A
:10B1600002680A4302600748804707480047FEE735
:10B17000FEE7FEE7FEE7FEE7FEE7000024050040ED
:10B180005405004049C10100C1B0010030B50B4673
:10B19000014600202022012409E00D46D5409D42B1
:10B1A00005D31D469540491B254695404019154637
:10B1B000521E002DF1DC30BD70B50024254600285C
:10B1C00001DA01244042002901DA01254942FFF752
:10B1D000DDFFAC4200D04042002C00D0494270BD9F
:10B1E00010B5431A934209D28318881803E0401E11
:10B1F00001785B1E1970521EF9D210BD03460B4335
:10B200009B0703D009E008C9121F08C0042AFAD21C
:10B2100003E00B780370401C491C521EF9D210BD8C
:10B22000D2B201E00270401C491EFBD270470022DE
:10B23000F6E710B513460A4604461946FFF7F0FF35
:10B24000204610BD421C0178401C0029FBD1801A09
:10B25000704730B504460020034600E05B1C934273
:10B2600003D2E05CCD5C401BF8D030BD03460A78C9
:10B270000270401C491C002AF9D118467047000092
:10B28000F0B51FB488B00B9909980024484009997B
:10B29000C00F490049080991C0070B990090490067
:10B2A00049080B9109990898A64608431CD00B99A8
:10B2B0000A98084318D0099801244000420D48001C
:10B2C000410D099824050003000B204309900B98B9
:10B2D0000003000B20430B9050181C49401800221B
:10B2E00001901446104605E0002001460DB0F0BD67
:10B2F000032801DA034600E003239C46C11A0AAE84
:10B300000AE05F0008ADED5B4F00F75B7D4300276F
:10B31000AA187C41491C5B1E6145F2DD410004AB6B
:10B320005A522104120C0A43240C401C0828DFDB6B
:10B33000019802900099704601910090059B049A33
:10B340000799069800F04EF8D0E700000DFCFFFFCB
:10B350000EB505490291002100910A460B46019164
:10B3600000F040F803B000BD330400004A000903B8
:10B370000123090B1B051943094B10B5520D9A42C5
:10B3800001DA002010BD064B34339A4203DC9A1ACE
:10B3900000F00AF810BD03495118884010BD0000A4
:10B3A000FF030000CDFBFFFF10B5202A04DB084699
:10B3B000203AD040002110BD0B46D340D04020247D
:10B3C000A21A91400843194610BD10B5002B08DAA7
:10B3D0000024401C614192185B411A4301D140088E
:10B3E000400010BDF0B51FB482B005460C0003D07C
:10B3F000084601F001F902E001F0FEF820300246B3
:10B4000000902146284600F051F8049B059A044616
:10B410000F4618431143084314D0184610431BD05D
:10B42000009840210A1A18460599FFF7BDFF054606
:10B430000E46009A0599049800F038F8084305D0A4
:10B44000012004E02046394607B0F0BD0020C117B6
:10B4500005430E432C43374300990E986305401A69
:10B460007905E40A00220C43FD0A0A3002D50020C7
:10B470000146E9E70105101969410C9C0D9D001971
:10B480006941FFF7A2FFDFE7064C0125064E05E004
:10B49000E36807CC2B430C3C98471034B442F7D3F5
:10B4A000FFF712FEB89C0200D89C020010B5202ABB
:10B4B00004DB0146203A9140002010BD914020233A
:10B4C0009C1A0346E3401943904010BD70B58C1898
:10B4D0000578401C6B075B0F01D10378401C2A11D3
:10B4E00006D10278401C03E006780E70401C491C0F
:10B4F0005B1EF9D12B0705D40023521E0DD40B700F
:10B50000491CFAE70378401CCB1A921C03E01D7813
:10B510000D70491C5B1C521EF9D5A142D8D30020E6
:10B5200070BD00000EB51D48C06800281CD1FF206A
:10B53000013008F017FB012008F01CFB00BF0020C1
:10B540001749086000BF01216846017000BF144818
:10B55000806801B2684681800120104988740846DD
:10B5600001686846884718E001F0A2FB002814D063
:10B57000012008F0FFFA0020694608700748C068FB
:10B5800001900648017C68460181012003498874C6
:10B59000084601686846884700BF0EBDC02E0020DF
:10B5A0000075004010B50321152009F0D4F80321DF
:10B5B0000D2009F0D0F809F023F90D49086006E0E4
:10B5C00009F01EF90A49086001200A49086015209F
:10B5D00004F028F80028F3D103E009F011F9044938
:10B5E00008600D2004F01EF80028F6D110BD000000
:10B5F0003C2100205C210020F0B58BB0002700200A
:10B600000A900024FF2001300990012500BF16E0B8
:10B61000099809F009F900280BD000BF704840686C
:10B620002840002805D0099809F0F6F83846284344
:10B6300007466D000998001D80B20990641C042C17
:10B64000E6D3FF207D3009F0EFF800280AD0FF2074
:10B650007D3009F0E1F80120C007074300BF6148D1
:10B6600000690A903807000F00282AD0012500241D
:10B6700025E02846384000281FD000BF5A485121F5
:10B6800009014018A10040581F2109020840000A82
:10B69000089000BF5448512109014018A1004058AA
:10B6A000032109040840000C0790204603F0ECFF3A
:10B6B000064607990898B04700BF6D00641C042C2B
:10B6C000D7D3F80FC00700287DD00020089007903E
:10B6D000401E069000BF00200890002464E043480C
:10B6E000005D0590C0210598884306463F480057F5
:10B6F000401C002857D00120B0400699084000287F
:10B7000051D0C0210598084080110490304603F0C4
:10B71000C3FF029003F0B8FF03900398002802D102
:10B72000049803283ED10120B04005460498032820
:10B7300002D107982843079000BF05200007072182
:10B7400009024018B1004058032109040840000CC8
:10B7500002900A982840002802D00298022806D0B9
:10B760000A98284000281CD10298032819D104986F
:10B7700003280FD10298022801D1032000E0022003
:10B7800001903046019908F0F3FF0898401CC0B2C0
:10B79000089000BF0398002803D03046039A04990C
:10B7A000904700BF00BF641C042C98D30898002861
:10B7B0000ED000BF0B49096908460A99884203D197
:10B7C0000021089103E008E00A900799069100BF64
:10B7D0000898002800D07EE700BF0BB0F0BD000045
:10B7E000006300400005005000600040C42D0020B0
:10B7F00010B5044600F002F810BD000010B5204856
:10B800000078012148401E4908701E480078002831
:10B8100014D01C480078022805D1072008F0CCFF7E
:10B82000082008F0E5FF17480078032827D10820F2
:10B8300008F0C2FF072008F0DBFF20E01248007884
:10B8400000280ED10E480078002803D0082008F008
:10B85000CFFF02E0082008F0AFFF072008F0C8FF84
:10B860000DE007480078002803D0072008F0C0FF4B
:10B8700002E0072008F0A0FF082008F0B9FF10BD83
:10B8800040210020382100200021002010B508F0C0
:10B890007DF910BDF7B50746002401202E490004AC
:10B8A000154688602D4EB078002802D02C48FFF74E
:10B8B000EDFF002F02D12B48FFF7E8FF706800284A
:10B8C00002D02948FFF7E2FF284677600127274D7D
:10B8D000002820D0012828D0022824D02448FFF7AF
:10B8E000D5FF2448B770002101600199611889B221
:10B8F00029602E6820494F606D680068002802D0DA
:10B900001E48FFF7C3FFA64211D3A54201D3B5429B
:10B910001CD31B4818E0184847606C68076015493D
:10B9200000200860DDE7AC68DBE72C68D9E7B542AA
:10B9300001D2012000E00020AC4201D8012100E04A
:10B940000021884202D10F48FFF7A0FF01200249E1
:10B950000004486003B0F0BD00A30040982400201C
:10B9600073000400750004007600040040A5004048
:10B970008900040040A1004040A000409B0004005A
:10B98000B0000400C9000400C206D20E012191409B
:10B99000014A11607047000080E200E0C206D20E4A
:10B9A00001219140014A11607047000080E100E0F0
:10B9B000C206D20E01219140014A11607047000079
:10B9C00000E100E0C206D20E01219140014A11605F
:10B9D0007047000000E200E010B5002819DA1A4AAA
:10B9E00003071B0F083B9B089B00D2588307DC0E04
:10B9F000FF23A3409A438B071B0E8407E40EA3404A
:10BA00001A43114B0407240F083CA408A4001A5140
:10BA100018E00E4A03231B02D21883089B00D25859
:10BA20008307DC0EFF23A3409A438B071B0E84077A
:10BA3000E40EA3401A43054B032424021B19840877
:10BA4000A4001A5110BD00001CED00E000E100E070
:10BA500010B5002819DA1A4A03071B0F083B9B0888
:10BA60009B00D2588307DC0EFF23A3409A438B0729
:10BA70001B0E8407E40EA3401A43114B0407240F46
:10BA8000083CA408A4001A5118E00E4A03231B0224
:10BA9000D21883089B00D2588307DC0EFF23A340F3
:10BAA0009A438B071B0E8407E40EA3401A43054BF1
:10BAB000032424021B198408A4001A5110BD00009D
:10BAC0001CED00E000E100E0F8B55F4C206967780C
:10BAD000401C2061607D002802D05C48FFF7D6FE44
:10BAE000204622785A4D00245A495B4E032A3FD102
:10BAF000CA68002A3CD0012F03D0022F2FD057480C
:10BB00009EE007460069032802D05548FFF7BEFEB5
:10BB100002203870B969491CB96152490C60C11ED4
:10BB2000A960514908604B48C460046004614460E6
:10BB3000032179707C603C753268117D00290AD040
:10BB40004A498B68BB75C461494B01209861494BD8
:10BB5000042098608C60D06800283AD1F8BD006954
:10BB6000012802D04448FFF791FE09F095FFF8BD87
:10BB7000032F64D0012F2ED0022FF6D042783F4BF6
:10BB80001201D218137B0027002B03D0CB68002BA7
:10BB900000D00127927A334B02701C60032A48D0F0
:10BBA0000022D243AA60304B02221A60CC600322EA
:10BBB00042700C600C614C60446004753068006930
:10BBC000002800D08047002FD1D03068806800283E
:10BBD000CDD08047F8BD0269012A18D0022AF9D1D8
:10BBE000CC600C610C601F490C60111FA96008211A
:10BBF00069600321017044600475306800690028A1
:10BC000000D08047306880680028E2D1F8BD0C6021
:10BC10004C600021C943A960012169603168097D38
:10BC2000002902D0134A042151601549C0684860B8
:10BC3000F8BD0822D243AA6008226A60B9E7114819
:10BC4000FFF724FEF8BD0000AC38002090010A0088
:10BC50000013004000110040A0240020A9010A00A8
:10BC60009F010A000012004080E200E04015004001
:10BC70000010004000F50140A4010A005C9B020096
:10BC800000150040D6010A0010B5002007490860E1
:10BC90000021064841608160C160002003494039AD
:10BCA000086048600DF0A4FA10BD0000401101408A
:10BCB000FFB581B004460E46174600BF1B4800780A
:10BCC000002801D100F0B8FA00BF18484069A0422E
:10BCD00027D900BF002C1AD01820604313494831DF
:10BCE0000E501820604340184760182161430F4AE6
:10BCF00048328918049888600022182060430B4954
:10BD0000483140180261182060434018C260182072
:10BD10006043064A483280180A99416100BF0025F5
:10BD200001E00025ED43284605B0F0BD8437002032
:10BD3000FFB581B004460E46174600BF1B48007889
:10BD4000002801D100F078FA00BF18480069A0422D
:10BD500027D900BF002C1AD018206043134918318E
:10BD60000E501820604340184760182161430F4A65
:10BD700018328918049888600022182060430B4903
:10BD8000183140180261182060434018C260182022
:10BD90006043064A183280180A99416100BF0025A5
:10BDA00001E00025ED43284605B0F0BD84370020B2
:10BDB000F8B504460D46164600BF0848007800282E
:10BDC00001D100F039FA00BF00BF324629462046B3
:10BDD00000F006F8074600BF3846F8BD843700205B
:10BDE000F7B582B0074616460398019018207843AD
:10BDF0001B494018009000984069002804D0012891
:10BE000011D0022826D11EE0009800F04DFA054618
:10BE1000B54201D2002405E034463246019900982B
:10BE200000F0C5FB18E0009800F03EFA0546B54268
:10BE300001D2284600E03046044622460199009887
:10BE400000F0B5FB08E032460199009800F072FB63
:10BE5000044601E0002400BF00BF204605B0F0BD4D
:10BE60009C370020F7B59AB00D46144602A81590ED
:10BE700040201690002017901A98199000201890D2
:10BE800000BF2E786D1C002E00D1E4E0252E79D164
:10BE900000270120149000BF2E78232E12D02B2EC5
:10BEA0000CD02D2E02D0302E10D103E001200743FC
:10BEB0006D1C0EE0022007436D1C0AE004200743BE
:10BEC0006D1C06E0082007436D1C02E00020149062
:10BED00000BF00BF14980028DED1129000BF2E785A
:10BEE000302E01DB392E00DD08E06D1C0A2112988E
:10BEF00048433146303940181290F0E700BF002027
:10BF000013902E782E2E11D16D1C00BF2E78302E5E
:10BF100001DB392E00DD08E06D1C0A21139848432F
:10BF20003146303940181390F0E700BF2E7800BF3B
:10BF30006C2E01D0682E02D12E786D1C00E000E03E
:10BF4000F6E700BF702E63D008DC252E72D0582E85
:10BF500038D0632E09D0642E71D114E0732E40D0F6
:10BF6000752E1FD0782E6AD12BE02168081D206025
:10BF7000086814901498C0B2019015A8019900F0B7
:10BF8000B7FA5DE05FE02168081D20600868149042
:10BF90001298019700900A2215A8139B149900F09B
:10BFA00091F94DE02168081D2060086814901298EE
:10BFB000019700900A2215A8139B149900F00AFA21
:10BFC0003EE000BF2168081D2060086814901298A8
:10BFD00001970090102215A8139B149900F0FAF90C
:10BFE0002EE02168081D20600868019000BF0198BC
:10BFF00006780198401C0190002E00D106E03146E1
:10C0000015A800F075FA18980028F0DA00BF17E0BC
:10C010002168081D206008681490002008210B4644
:10C0200010220091019015A8149900F0D3F907E0AF
:10C0300000E004E0252115A800F05AFA00E000BF56
:10C0400000BF6D1C03E0314615A800F051FA1898A6
:10C05000002800DB15E700BF189800280BDD1798B3
:10C06000002804D002A9179A1A98FFF7A1FE179981
:10C0700018984018189018981DB0F0BDF8B5204DCC
:10C080002C468034012080F310886068002832D06C
:10C0900020680C21484340190279310A09021143F2
:10C0A0004279FF231B02120299431A4011438279FD
:10C0B0001B02120499431A401143C2790E02360A38
:10C0C00011060E4381688289C08997B20004074334
:10C0D0006068401E60602068401C206020680A285C
:10C0E00001D300202060002080F310882B683A469E
:10C0F00030469847C6E7002080F31088F8BD00005E
:10C10000D038002010B50CF067FF10BD70B50C489A
:10C110000068002811D00A4800688047044600BF24
:10C120002546002D07D000BF064AFF21673128466B
:10C1300001F04AF800BF00BF01E006F0B1FD70BD9C
:10C1400034240020609C020010B506F085FE002813
:10C1500005D0104810494860C8131049886106F09E
:10C160005FFE002802D001200D49886006F0D6FE4F
:10C1700000280ED00B480068012807D00A4809495A
:10C18000086000BF074800680128FBD1C0200549AE
:10C19000486110BDDFFF07C000050040006C004093
:10C1A0000006004000EC06407593000010B5042224
:10C1B0000249034806F0D4FD10BD0000D42E002033
:10C1C0000090004070B501201349000488601348B6
:10C1D00000250560124C6068002802D11148FFF765
:10C1E00055FBA570636810480122656042600F48E6
:10C1F0004168006895031430A94205D20325AD03B8
:10C20000A84201D9627005E0814201D3012000E01B
:10C2100000206070984770BD00A3004040A100401E
:10C2200098240020EC00040040A0004040A50040FD
:10C2300010B50DF057F910BD10B5124C0220206159
:10C24000606111A0A0611349E161012189022162AD
:10C250000021A1626162E1620BA0A0640E49E16469
:10C26000102121650021A1656165E1650BA1E01D3B
:10C27000FEF7FCFF0AA12046FEF7F8FF2020A07180
:10C2800010BD0000843700205465726D696E616CCA
:10C290000000000074330020743700205254540012
:10C2A000534547474552000010B501460A69CB681F
:10C2B0009A4204D88C68641EE41AA01801E0D41ACB
:10C2C000601E10BDFFB585B006460F460F9D0E9C43
:10C2D000002F01DA784200E03846039001200490F4
:10C2E00007E007990398FEF767FF03900498401C46
:10C2F0000490079903988842F3DA049908988842D1
:10C3000001D908980490002C06D0002F03DB0420EC
:10C310002840042800D1641E02202840002802D0B2
:10C320000898002815D0E807C00F002811D1002C6C
:10C330000FD008E0641E2021304600F0D9F8F068E4
:10C34000002800DA04E0002C02D00498A042F1D3C7
:10C3500000BFF06800283ADB002F05DA7F422D216C
:10C36000304600F0C5F807E004202840042803D137
:10C370002B21304600F0BCF8F068002827DB0220B3
:10C380002840022818D1E807C00F002814D10898C7
:10C39000002811D1002C0FD008E0641E3021304657
:10C3A00000F0A6F8F068002800DA04E0002C02D0C3
:10C3B0000498A042F1D300BFF068002807DB019584
:10C3C000009439463046089B079A00F003F809B0FC
:10C3D000F0BD0000FFB585B0064617461D460E9C11
:10C3E0000698029001200390019007E039460298D8
:10C3F000FEF7CCFE02900198401C01900298B842D2
:10C40000F4D20198854200D901950F98C007C00F5A
:10C4100000281DD1002C1BD002210F9808400228B3
:10C4200004D1002D02D13020009001E020200090A6
:10C4300008E0641E3046009900F05AF8F0680028C1
:10C4400000DA04E0002C02D00198A042F1D300BF32
:10C45000F068002848DB0FE0012D01D96D1E08E0CF
:10C4600003990698FEF792FE04900498B84200D211
:10C4700003E0039878430390EEE700BF00BF039901
:10C480000698FEF783FE04900399049848430699A2
:10C49000081A0690154A0498115C304600F028F8F6
:10C4A000F068002800DA07E039460398FEF76EFED0
:10C4B000039003980028E2D100BF0F98C007C00F77
:10C4C000002811D0002C0FD008E0641E2021304637
:10C4D00000F00EF8F068002800DA04E0002C02D02A
:10C4E0000198A042F1D300BF09B0F0BD349B020017
:10C4F00070B504460E46A568681C6168814206D383
:10C5000020684655681CA060E068401CE0606168D7
:10C51000A06888420DD1A26821682069FFF748FC15
:10C52000A168884203D00020C043E06001E0002001
:10C53000A06070BDF7B582B0044617460020019098
:10C54000E56800BF206900900098A84203D90098D0
:10C55000401B461E04E0A1680098281A401C0E1AD1
:10C56000A068401BB04201D9304601E0A068401BE2
:10C570000646BE4201D2304600E0384606466168B3
:10C58000481932460399FEF72BFE01988019019055
:10C59000039880190390BF1BAD19A068A84200D171
:10C5A0000025E560002FCDD1019805B0F0BDF7B5AD
:10C5B00082B004461546E668A068871BAF4208D9DA
:10C5C000616888192A460399FEF70AFE7019E0602F
:10C5D00010E0019761688819019A0399FEF700FE3F
:10C5E000E81B0190039AD1196068019AFEF7F8FDE3
:10C5F0000198E06005B0F0BD2021020C01D01021AF
:10C600001046020A01D010460839020901D010462E
:10C61000091F820801D01046891E420801D0881ED9
:10C620007047081A704730B47446641E2578641C3D
:10C63000AB4204D3635D5B00E31830BC18471D4672
:10C64000F8E702E008C8121F08C1002AFAD17047B3
:10C650007047002001E001C1121F002AFBD1704782
:10C6600000BFEFF31081084672B6704710B5002086
:10C67000FA4908700EE0F94800784000F849085A75
:10C68000F64909784900F74A5052F4480078401CAE
:10C69000F2490870F14800780628ECDBF148008880
:10C6A000F1490880EF48408848800220EB49087033
:10C6B000084600784000EB49085AB42806DC002000
:10C6C000E64909784900E84A50526AE0E3480078B0
:10C6D0004000E449085AE549884206DBFF20DF496B
:10C6E00009784900E04A50525BE0DC48007840009D
:10C6F000DC49085AFF21913188420FDBD748007886
:10C700004000D849085AD9497839884206DC802047
:10C71000D24909784900D44A505242E0CF480078C3
:10C720004000D049085AFF219131884216DACB489F
:10C7300000784000CB49085AB4280FDDC749097872
:10C740004900C84A515AB439C801DC21FEF734FD0A
:10C75000C24909784900C44A505222E0BF480078D3
:10C760004000C049085AC14988421ADABB480078DB
:10C770004000BC49085ABD497839884211DDB749A3
:10C7800009784900B74A515AB84A783A891AC80113
:10C790007821FEF711FD8030B04909784900B24A8E
:10C7A0005052AE480078401CAC49087008460078EA
:10C7B0004000AC49085AB42806DCFF20A749097894
:10C7C0004900A94A50526DE0A44800784000A549AC
:10C7D000085AA649884206DB0020A049097849008A
:10C7E000A14A50525EE09D48007840009D49085A99
:10C7F000FF21913188420FDB984800784000994929
:10C80000085A9A497839884206DC80209349097889
:10C810004900954A505245E09048007840009149BF
:10C82000085AFF219131884218DA8C48007840007C
:10C830008C49085AB42811DD884909784900894A89
:10C84000515AB439C801DC21FEF7B6FCFF21081AA1
:10C85000824909784900844A505223E07F48007891
:10C8600040008049085A814988421BDA7B48007899
:10C8700040007C49085A7D497839884212DD774961
:10C8800009784900774A515A784A783A891AC80192
:10C890007821FEF791FC8021081A70490978490037
:10C8A000714A50526D480078401C6C490870084627
:10C8B000007840006B49085AB42806DC002067491C
:10C8C00009784900684A50526AE06448007840009C
:10C8D0006449085A6549884206DBFF205F490978A8
:10C8E0004900614A50525BE05C48007840005D4975
:10C8F000085AFF21913188420FDB584800784000E8
:10C900005849085A59497839884206DC80205349E9
:10C9100009784900544A505242E05048007840009B
:10C920005049085AFF219131884216DA4B48007865
:10C9300040004C49085AB4280FDD4849097849009D
:10C94000484A515AB439C801DC21FEF735FC434945
:10C9500009784900444A505222E04048007840009B
:10C960004049085A414988421ADA3C480078400058
:10C970003C49085A3D497839884211DD37490978E0
:10C980004900384A515A394A783A891AC8017821F7
:10C99000FEF712FC8030314909784900324A505282
:10C9A0002E480078401C2D49087008460078400049
:10C9B0002C49085AB42806DCFF2028490978490088
:10C9C000294A505278E02548007840002549085A05
:10C9D0002649884206DB0020204909784900224A7E
:10C9E000505269E01D48007840001E49085AFF2156
:10C9F000913188420FDB1948007840001949085AE4
:10CA00001A497839884206DC80201449097849009F
:10CA1000154A505250E01148007840001149085A18
:10CA2000FF219131884223DA0C48007840000D49FB
:10CA3000085AB4281CDD094909784900094A515AA5
:10CA4000B439C801DC21FEF7B7FBFF21081A0349FE
:10CA500009784900044A50522EE0000014230020B7
:10CA6000442A00205C2A0020502A00208A0200006C
:10CA70001248007840001249085A124988421BDACD
:10CA80000E48007840000E49085A0E49783988420D
:10CA900012DD0A4909784900094A515A094A783A87
:10CAA000891AC8017821FEF787FB8021081A0349FB
:10CAB00009784900044A505210BD00001423002098
:10CAC0005C2A00208A020000502A002038B52A483B
:10CAD000006800902949684607F03CF9044600BF09
:10CAE0002546002D06D000BF25A26021284600F073
:10CAF0006BFB00BF00BF284800681C21884308303A
:10CB000025490860084607F00FF9244800681C21F1
:10CB10008843083021490860084607F005F9204895
:10CB200000681C21884308301D490860084607F04A
:10CB3000FBF81C4800681C2188430830194908602C
:10CB4000084607F0F1F8184800681C2188430830AF
:10CB500015490860084607F0E7F8144800681C21EA
:10CB60008843083011490860084607F0DDF80620C0
:10CB70000F49087038BD0000709A0200D5CB010043
:10CB80002E2E5C2E2E5C2E2E5C626C655F617070AA
:10CB90005F6164632E630000E4220020EC22002029
:10CBA000F4220020FC220020042300200C2300207B
:10CBB000DE22002010B5054807F0B0FA07F0ECF8C7
:10CBC0000348007807F096F910BD0000689A02004B
:10CBD000DC22002070B50446207800281AD100BF5E
:10CBE00006E042006168895A4200134B9952401C8A
:10CBF00021898142F5D811490978491C0F4A1170E1
:10CC00001E2101228A400E4B9A6000BF01210D4A6D
:10CC1000117000BF00BF06210B4807F043F805461E
:10CC2000002D06D000BF09A25021284600F0CCFA02
:10CC300000BF00BF70BD0000442A0020DD2200209C
:10CC400000050050E0220020382A00202E2E5C2E05
:10CC50002E5C2E2E5C626C655F6170705F61646338
:10CC60002E63000010B500F08FF8FFF72FFF00F0E3
:10CC700069F800BF0621074807F014F80446002CA5
:10CC800006D000BF04A2B021204600F09DFA00BFEC
:10CC900000BF10BD382A00202E2E5C2E2E5C2E2EBA
:10CCA0005C626C655F6170705F6164632E6300003D
:10CCB00010B5FF20013006F055FF00BF00201E49CF
:10CCC000086000BF00BF0846806800B21B49C96801
:10CCD0001A4A527C520088521848407C401C17491E
:10CCE00048740846407C097C884223DA00241348B3
:10CCF00080684068002804D1104840680F49886067
:10CD000005E00E48806840680C49886001240B49A2
:10CD10008968086806F014FF00BF01200649086012
:10CD200000BF002C04D000BF054A106000BF00BF48
:10CD3000002010BD0120FCE700750040C02E00203F
:10CD40000070004070B50948007807F0EDF804461F
:10CD500000BF2546002D06D000BF05A2862128462B
:10CD600000F032FA00BF00BF70BD0000DC220020DE
:10CD70002E2E5C2E2E5C2E2E5C626C655F617070B8
:10CD80005F6164632E630000F0B585B007F0F0F8D2
:10CD9000044600BF2746002F06D000BF31A28D21D8
:10CDA000384600F011FA00BF00BF344903C90391AF
:10CDB0000290002069468872314A02A9314807F082
:10CDC00041F9044600BF2746002F06D000BF25A228
:10CDD0009521384600F0F8F900BF00BF2A480190BD
:10CDE00001200346009000212648019A07F00AF925
:10CDF000244807F0F7F80021224B1A688B001846E8
:10CE0000FF30413000BF151800BF00BF00BF002039
:10CE10001E49461800BF00BF1D4806F0FDFF04462E
:10CE200000BF2746002F06D000BF0EA2A121384622
:10CE300000F0CAF900BF00BF324629461448007806
:10CE400007F026F8044600BF2746002F06D000BF93
:10CE500004A2A421384600F0B7F900BF00BF05B016
:10CE6000F0BD00002E2E5C2E2E5C2E2E5C626C65BA
:10CE70005F6170705F6164632E630000749A0200EA
:10CE8000C18F0200689A0200007102000070004029
:10CE9000DC220020F7B582B004461646002537880C
:10CEA00000203080606B00280ED0616B08783B4614
:10CEB000324603990BF096FB054600BF002D02D0C9
:10CEC000284605B0F0BD00BF206B00280CD03B46C3
:10CED0003246206B03990CF023FA054600BF002D63
:10CEE00001D02846EDE700BF2E20005D00280DD0C0
:10CEF0002E21085D3B463246039906F05FF9054650
:10CF000000BF002D01D02846DBE700BF2D20005DCB
:10CF100000280BD03A463146039801F0E9FA05465D
:10CF200000BF002D01D02846CBE700BFA078002825
:10CF30000BD03A463146039800F038FB054600BF57
:10CF4000002D01D02846BCE700BFE07800280DD0B6
:10CF5000E17848B23B463246039904F040FC05466E
:10CF600000BF002D01D02846ABE700BF6068002855
:10CF70000ED00020616808563B46324603990CF0FB
:10CF800095FA054600BF002D01D0284699E700BF5D
:10CF9000208900280FDD01970096062202212046F5
:10CFA0000830039B0CF076FC054600BF002D01D035
:10CFB000284686E700BF208A00280FDD01970096EB
:10CFC0000722032120461030039B0CF063FC05462A
:10CFD00000BF002D01D0284673E700BF208B00283A
:10CFE0000FDD019700961522142120461830039B6F
:10CFF0000CF050FC054600BF002D01D0284660E72C
:10D0000000BF206A00280CD03B463246206A0399B4
:10D0100002F0CEFD054600BF002D01D0284650E7A6
:10D0200000BF606A00280CD03B463246606A039914
:10D0300006F054FC054600BF002D01D0284640E70D
:10D0400000BF2C20005D00280CDD3B463246204608
:10D0500003990BF077FB054600BF002D01D0284651
:10D060002FE700BF207800280CD03B4632462046F0
:10D07000039906F07FFC054600BF002D01D028462D
:10D080001FE700BF28461CE70146C878042210406D
:10D09000002801D1072070470020FCE770B598B048
:10D0A00038210AA8FEF7C3F80526022108A8017254
:10D0B00001218172C672684601870F490F912422AF
:10D0C0000E4901A8FEF78CF80D480E4B01AA00216D
:10D0D00000900AA800F0ECFD044600BF2546002D94
:10D0E00006D000BF08A20F49284600F06DF800BF27
:10D0F00000BF18B070BD000072210020449A0200E9
:10D100007DDC01008D6502002E2E5C2E2E5C2E2E05
:10D110005C626C655F6170705F677A6C6C5F686998
:10D12000642E63008706000070B5032000F056FFF0
:10D13000044600BF2546002D07D000BF04A27D2174
:10D140000901284600F040F800BF00BF70BD000094
:10D150002E2E5C2E2E5C2E2E5C626C655F617070D4
:10D160005F677A6C6C5F6869642E630070B574DF0A
:10D17000044600BF2546002D06D000BF03A20A4981
:10D18000284600F021F800BF00BF70BD2E2E5C2E97
:10D190002E5C2E2E5C626C655F6170705F677A6CCE
:10D1A0006C5F6869642E63006C08000070B504460B
:10D1B0000D4616460C2001F061FF324629462046F6
:10D1C00000F012F870BD0000FEB504460E4615468C
:10D1D00069460E80019502946A4600210148FFF7D6
:10D1E000E5FFFEBD0140000018B5012400946B4628
:10D1F0001B781E4B186059609A601D4BC318002B9A
:10D200000CD0012B19D1194BDA60DB681B88174C45
:10D21000A3612346DB685B68E3610EE0134B1A6190
:10D220001B699B68114C636123461B691B88A361C2
:10D2300023461B695B68E36100BF00BF0B4B1B68A3
:10D240000A4B5B68094B9B68084BDB68074B1B6903
:10D25000064B5B69054B9B69044BDB6972B600BFEB
:10D260006B461B78002BFBD162B618BDE02E002068
:10D27000FFBFFFFFF8B504460D4616460348076892
:10D28000324629462046B847F8BD0000402D002010
:10D2900070B504460D46204604F08AFA002805D0F1
:10D2A0002946204604F078FA002070BD0520FCE7EE
:10D2B00070B504460D46204604F07AFAA1888842EB
:10D2C00005D82946204604F081FA002070BD0420CC
:10D2D000FCE70000F8B505460C4627780C21A0684D
:10D2E000484306490E580648006800902A463946C9
:10D2F000204608302369B047F8BD0000B42E002056
:10D30000F023002010B5044606480078142250434C
:10D31000044A121D81182046FFF7DCFF04200BF0A1
:10D32000B3FA10BDE82D002010B503460C4600BF2F
:10D330000D480068002801D1082010BD00BF002A58
:10D3400001D10720F9E7002B01D10720F5E7186884
:10D35000007C002801D00820EFE71968002008743D
:10D360004C744A6100BFE8E70C240020FFB581B08F
:10D370000E4614461F4620468107890F002901D119
:10D38000012100E00021002902D1072005B0F0BDF5
:10D39000002C04D100201C4908600720F6E70AF0A1
:10D3A00039FF1A48076003201949087016480460BD
:10D3B000183400250CE0E900134A1268881800218F
:10D3C0000170417086704460182171430C196D1C06
:10D3D000032DF0DB00200F4908600F4908700F494A
:10D3E00008701520FEF7D0FA03211520FEF730FB58
:10D3F0001520FEF7DDFA01980AF0E2FE0AF0DAFEE7
:10D40000074908600020C1E70C24002024240020E4
:10D4100008240020102400202024002021240020A3
:10D4200014240020FEB504460D461746264600BFCC
:10D4300012480068002801D10820FEBD00BF002C62
:10D4400001D10820F9E7052D01D20720F5E7706921
:10D45000002801D10820F0E7707C012801D128467E
:10D4600000E0002002900CF0EBF9009701902A46B2
:10D470003146029B0BF050FEDFE700000C24002039
:10D4800070B50446254600BF0A480068002801D14F
:10D49000082070BD00BF002C02D06869002801D1AF
:10D4A0000820F6E70CF0CCF9064629460BF080FE82
:10D4B000EFE700000C24002010B500BF064800680C
:10D4C000002801D1082010BD00BF0CF0B9F90446B6
:10D4D0000BF04EFEF7E700000C24002070B5044668
:10D4E00021460B48FFF7E4FE0546002D0ED106F05D
:10D4F0009DFE00280AD107490548FFF7C9FE00280C
:10D5000004D10121034806F031FE0546284670BDCE
:10D51000742D0020CC23002070B5044600BFFFF717
:10D520009FF805460E48406800280ED101200C499E
:10D5300048600C4800680C490840094908600A48DE
:10D54000084908600020207001E001202070002DB3
:10D5500003D100BF62B600BF00BF00BF70BD0000B6
:10D560002C24002080E100E0FC06FFBC70B50446DE
:10D5700025460C484068002812D0002D10D1FFF736
:10D580006FF806460748006807490860002005490B
:10D590004860002E03D100BF62B600BF00BF00BFCD
:10D5A00000BF70BD2C24002000E100E0F8B5054666
:10D5B0000C4617462088001DB84201D90C20F8BD42
:10D5C000684679DF064600BF002E01D03046F6E7F8
:10D5D00000BF0320218868542088401C2080192027
:10D5E000218868542088401C208020884119684682
:10D5F00000880CF031F82188401820800020DEE7F8
:10D6000070B5144A01211448FFF78EFE044600BF8E
:10D610002546002D06D000BF10A217492846FFF767
:10D62000D3FD00BF00BF00220121C9030A480068E2
:10D63000FFF7F8FE044600BF2546002D07D000BFC7
:10D6400006A20D49491D2846FFF7BEFD00BF00BFD9
:10D6500070BD00003DDB01003C9A02002E2E5C2EC6
:10D660002E5C2E2E5C626C655F6170705F677A6CF9
:10D670006C5F6869642E6300BE07000001460448C1
:10D680000840002801D1012070470020FCE700007D
:10D6900007C0FFFFF0B549488BB003684849494AC5
:10D6A000012B02D04B6B002B05D153681B78202B2C
:10D6B00001D8012300E00023434D03242C700024F3
:10D6C000404A002B146057D084688268CA623D4A81
:10D6D00003A901920091C26801232146184608F06F
:10D6E00009FC002824D0012805D0022824D00328D2
:10D6F0004FD036484BE00398002802D03448FEF75C
:10D70000C5F8204608F06AFD002802D13148FEF72E
:10D71000BDF868680222817D684600260270019685
:10D720000681468144708170C67008F033FB30E09A
:10D730002948FEF7ABF82CE00398002802D12748CF
:10D74000FEF7A4F8204608F049FD002802D124483D
:10D75000FEF79CF868680222817D039E684602708D
:10D7600000236A460196138153814470012781701A
:10D77000C77008F00FFB0CE0002000900346024643
:10D780000146019008F0B6FB042802D01548FEF7C8
:10D790007DF80C4C2068002807D0012060751248E5
:10D7A0002061042028700BB0F0BD08F02BF9002098
:10D7B0006075206100F01AF80BB0F0BD0014004055
:10D7C000001500408838002084240020C805090086
:10D7D000B8050900B9050900BD050900C005090023
:10D7E000C1050900CF05090089D8010070B508F00E
:10D7F00009F91C4C00251C4E0120256130701B4886
:10D800001B490069086308F0EFFC00281FD008F0EE
:10D81000EBFC032802D01748FEF738F8022008F086
:10D82000EDF9002008F064FA08F0DEFC032802D0CD
:10D830001148FEF72BF83078012802D00F48FEF788
:10D8400025F8022030700E482561E06070BD08F0B8
:10D85000DDFA0228E2D308F053FD60600028DDD134
:10D860000848D9E788380020842400203838002070
:10D87000001500408005090088050900920509008F
:10D8800095D601007B05090010B5034905200870F5
:10D89000FFF7ACFF10BD00008424002030B585B038
:10D8A00014216846FDF7C3FC002000900121684662
:10D8B00001710020029064216846017300BF407B23
:10D8C00001090901491C68464173407BF0218843E6
:10D8D00020306946487300BF00BF6846807B00095E
:10D8E0000001401C88736846807BF021884320300B
:10D8F0006946887300BF00BF6846C07B000900010D
:10D90000C8736846C07BF02188436946C87300BF6E
:10D9100000BF6846007C01090901491C6846017482
:10D92000007CF021884320306946087400BF094814
:10D9300000F02CFD044600BF2546002D07D000BF97
:10D9400005A2FF21E9312846FFF73EFC00BF00BFDA
:10D9500005B030BD942900202E2E5C2E2E5C2E2E7C
:10D960005C626C655F6170705F677A6C6C5F686940
:10D97000642E6300F0B591B004460D46207D00286A
:10D9800019D00020099000BF08A8007901090901F9
:10D99000491C08A801710079F0218843103008A9BA
:10D9A000087100BF697B08A841718079062188430E
:10D9B000801C08A988711C210AA8FDF738FC08A85A
:10D9C000007A02218843811C08A80172007A102184
:10D9D0008843217D002901D0012100E000210901B7
:10D9E00010221140084308A9087200200B900D90E6
:10D9F0000E90207D002801D009A800E000200F90A3
:10DA00000020109000BF012168468173494981813F
:10DA100000BF00200290A97B68460172E97B417239
:10DA2000807A06218843811C68468172807A0821A9
:10DA30008843014668468172807A102188430146F6
:10DA400068468172807A4108490068468172297B64
:10DA50000191142104A8FDF7EAFB03A8049002A891
:10DA600005900121684601830021418301218183C2
:10DA700001A80890A088A31D04AA0AA9A2DF06464F
:10DA8000002E02D0304611B0F0BDA86800284DD05D
:10DA900000BF0121684681732749818100BF0020B2
:10DAA0000290287C6946087200BF6846407A0109E6
:10DAB000090168464172407AF021884369464872FC
:10DAC00000BF6846807A06218843811C68468172BF
:10DAD000807A08218843014668468172807A102145
:10DAE0008843014668468172807A41084900684649
:10DAF0008172A96801F042F80746142104A8FDF7D5
:10DB000096FB03A8049002A80590684607830021AD
:10DB10004183018B81830890E08822460E3204A95C
:10DB2000A3DF0646002E03D03046ACE70020E0819C
:10DB30000020A8E7192A00000829000010B50446B3
:10DB400000F002F810BD00007FB5194800880028D9
:10DB50000FDD17490888FDF7FBFB164A164B0191AC
:10DB60000090FDF78DFB03910290FDF7FFFB85B25E
:10DB700000E0002532212846FDF71EFBC6B23146E3
:10DB80000E4800F0BDFB0446002C0FD0082C0DD031
:10DB90000B4884420AD00B48844207D000BF0AA237
:10DBA000FF215E312046FFF70FFB00BF7FBD000065
:10DBB000502A0020F853E3A59BC41240942900206A
:10DBC00004300000013400002E2E5C2E2E5C2E2E20
:10DBD0005C626C655F6170705F677A6C6C5F6869CE
:10DBE000642E6300F3B593B00D461F21129111917D
:10DBF0001398002818D01398FFF746FA044600BF80
:10DC0000002C02D0204615B0F0BD00BF12AA09A911
:10DC10001398FFF73FF9044600BF002C01D02046BF
:10DC2000F1E700BF09AE02E0002600201290002DAF
:10DC300017D028460AF038FF044600BF002C01D058
:10DC40002046E0E700BF11AA01A92846FFF722F904
:10DC5000044600BF002C01D02046D4E700BF01AF2E
:10DC600002E000270020119010A88088C3B210A8FD
:10DC70000089C1B23A46304672DFC4E710B50446A7
:10DC800000BF04A2FF2143312046FFF79DFA00BFE9
:10DC900010BD00002E2E5C2E2E5C2E2E5C626C655C
:10DCA0005F6170705F677A6C6C5F6869642E630097
:10DCB000F8B504460F4615461E4600BF002C01D19C
:10DCC0000E20F8BD00BF00BF002D01D10E20F8E7E7
:10DCD00000BF002048490870484806604849069837
:10DCE0000860242229464748FDF77AFA00F06EF9C9
:10DCF0004548464908604648886038214548FDF750
:10DD000096FA207843490870A0788870E078C87047
:10DD100060784870626920694A6108610846E26873
:10DD2000A168C2608160E269A169C2618161606AC3
:10DD300000281BD038483749486238498160606AFA
:10DD400000883449496A0880606A80883149496A94
:10DD50008880002005E0616A8968095C2F4A1154B7
:10DD6000401C2C49496A89888142F4D8A06A00285D
:10DD700024D02B492B4881602649886228492548B0
:10DD8000806A8160A06A80882249896A8880A06A46
:10DD900000882049896A0880002005E0A16A896816
:10DDA000095C1F4A1154401C1A49896A89888142BA
:10DDB000F4D82C20015D174820300173206A002818
:10DDC0000BD0194813490862206A4088096A4880C4
:10DDD000206A00880F49096A08806068002804D01A
:10DDE00012480C4948606068486039460948FFF7A6
:10DDF000F9FE0090009864E74823002040230020AB
:10DE0000442300200C2B0020402B0020302B00202E
:10DE1000602B0020D42A0020802B00208C2B002097
:10DE2000B82B0020AC2B00204C23002050230020D6
:10DE300070B504462088102804D0112809D01B286A
:10DE40006CD11DE0A07D012802D1A0883549088051
:10DE500065E0002034490870A0883249098888426A
:10DE60000DD1012000F0BAF80546002D07D02F484B
:10DE70000068002803D028462C49096888474EE0EE
:10DE8000207A002849D12A480078012806D00228A3
:10DE900013D0032820D004283DD12FE0022000F029
:10DEA0009DF80546002D07D020480068002803D0C3
:10DEB00028461E49096888472EE0032000F08EF8A6
:10DEC0000546002D07D019480068002803D02846D1
:10DED0001649096888471FE0032016490870042086
:10DEE00000F07CF80546002D07D010480068002897
:10DEF00003D028460D49096888470DE000200D49E8
:10DF000008700D480068002804D0084600780A49C7
:10DF10000968884700E000BF00BF00E000BF00BF05
:10DF200070BD00005223002049230020442300201C
:10DF3000482300203C2300204023002070B50446E5
:10DF40000025022C02D0032C18D100E000BF0D48A0
:10DF50000078002811D000200A4908700A4800788B
:10DF600000F03CF80546002D07D00848006800285E
:10DF700003D0284605490968884700E000BF00BF74
:10DF800070BD0000342300204823002044230020DB
:10DF900001460C480078002801D108207047087815
:10DFA000094A1070002005E04A1C135C064A521C06
:10DFB0001354401C0628F7DB0020024A107000BFF3
:10DFC000ECE700004B2300203523002010B507218B
:10DFD0000148FDF72CF910BD3523002030B587B07E
:10DFE0000546A248057003F015FC002805D0012065
:10DFF0009F490870002007B030BDFFF7E7FF9D483C
:10E000004078002803D09948007801280FD099481B
:10E010008078002803D095480078012807D09548DB
:10E020008078002812D09148007802280ED19248BA
:10E030000068002807D001209049087008208E4908
:10E040000968884702E000208C49087087480078FA
:10E0500001280BD187484078002804D0884808F070
:10E0600029FF002802D10220804908707F480078EB
:10E0700002280BD17F488078002804D0804808F01F
:10E0800019FF002802D10320784908707948007BE5
:10E09000002806D175480078032802D1042073496E
:10E0A00008707448007E002808D170480078042861
:10E0B00004D100206D490870724908706E480068EC
:10E0C000002817D069480078032803D067480078F3
:10E0D00004280FD16748007800280BD06A480078E0
:10E0E000002807D1012069490870072062490968A2
:10E0F000884702E0002065490870182101A8FDF753
:10E1000096F800216846017100200290684601736C
:10E110000020049055480078012806D0022811D02C
:10E12000032823D004287CD152E05548401E029099
:10E130000121684601710021C1828182012051497B
:10E14000087079E04E48401E029001216846017136
:10E150004848008981B26846C1824648808881B2B9
:10E160006846818202204749087065E04148808AFC
:10E1700081B26846C1823F48008A81B26846818286
:10E1800043480BF01DFC00281ED03A4800780028B8
:10E190001AD03D480078002816D10220694608733D
:10E1A0003B48049004203B49C87000213948FFF7E0
:10E1B00019FD044600BF002C01D020461BE700BF1C
:10E1C00005203049087002E003202E49087033E032
:10E1D0002848808B81B2684681822648008C81B2B3
:10E1E0006846C1822A480BF0EBFB00281FD021486B
:10E1F000007800281BD024480078002817D102207E
:10E20000694608732248049004202249C8700021FE
:10E210002048FFF7E7FC044600BF002C02D0204650
:10E22000E9E608E000BF06201649087002E0042075
:10E230001449087000E000BF00BF0C4800780028B7
:10E2400008D001A873DF044600BF002C01D020468F
:10E25000D1E600BF08480068002804D009480078CB
:10E260000549096888470020C5E6000048230020CA
:10E27000342300200C2B0020402300204B230020BF
:10E28000362300203C230020492300204A2300207D
:10E29000302B0020D42A002010B502461448007804
:10E2A000002801D1082010BD1079124B1871107B85
:10E2B0001873002106E08B009068C0588B000E4C4C
:10E2C000E050491C0B48007B8842F4D8002106E04E
:10E2D0008B001068C0588B00084CE050491C054862
:10E2E00000798842F4D80020014B187000BFDAE7AB
:10E2F0004A230020302B0020602B0020402B0020E0
:10E3000033B587B00446002C02D10E2009B030BDD1
:10E310000025207C08A90978884233D00020059088
:10E3200006900121684681820021C18208A80690DA
:10E33000E188608A05AAA4DF0546002D03D108A85C
:10E340000078207401E02846E0E7608A0E498842A0
:10E3500017D0207D002814D0002001900290039057
:10E360000490E1886846818001218171C18A018120
:10E3700005A8039006980490608A01A9A6DF0546C7
:10E3800000E008252846C1E7FFFF0000F8B5044675
:10E390000D46002C01D0002D01D10E20F8BD2868BB
:10E3A00020600020C043608228792075FF202074FF
:10E3B00000BF0121684681700849018000BF221D0D
:10E3C00069460120A0DF0646002E01D03046E5E771
:10E3D00029462046FFF7CEFAE0E700000F180000BC
:10E3E00070B505460C46002D01D0002C00D170BD43
:10E3F0002088102804D0112807D050280FD109E018
:10E400002146284608F0F6F90AE02146284608F099
:10E410005DFA05E02146284608F00AFC00E000BF4E
:10E4200000BF00BFE3E7000070B505461C22294687
:10E430001448FCF7D5FE002013490870286800280E
:10E440000BD0082211482968FCF7CAFE0F487ADF72
:10E450000446002C08D0204670BD0C487BDF0446E3
:10E46000002C01D02046F7E70020C043084908806F
:10E47000002008490870084A00210848FEF754FFA8
:10E48000EAE70000D82B0020682300205423002056
:10E490005E2300205C230020A5970200B89A0200AA
:10E4A00010B504462088102806D0112808D012285C
:10E4B0000ED0502810D107E0204608F09FF90CE05C
:10E4C000204608F007FA08E0204608F0D9FB04E0EF
:10E4D000204608F083F900E000BF00BF10BD000037
:10E4E00010B502480068FEF7CBFF10BDB89A0200D5
:10E4F000FEB505460C46174620880930B84201D9BA
:10E500000C20FEBD684671DF064600BF002E01D01C
:10E510003046F6E700BF0820218868542088401C58
:10E5200020801B20218868542088401C208021885E
:10E530004819062200A90131FCF752FE2088801DEF
:10E54000208068460078002802D12188685402E0C3
:10E550000120218868542088401C20800020D0E7BA
:10E560007FB5044600BF0121684681735D49818102
:10E5700000BF5D4A03A90120A0DF0546002D02D09F
:10E58000284604B070BD208800280DDD5748009053
:10E59000228823463C335648616801F083F80546DB
:10E5A000002D01D02846ECE7208900280EDD5148D7
:10E5B0000090228923463C334D48401FE16801F01A
:10E5C00071F80546002D01D02846DAE7208A002898
:10E5D0000EDD49480090228A23463C334448001F00
:10E5E000616901F05FF80546002D01D02846C8E7B3
:10E5F000208B00280EDD41480090228B23463C33BF
:10E600003B48801EE16901F04DF80546002D01D020
:10E610002846B6E7208C00280EDD39480090228C71
:10E6200023463C333248C01E616A01F03BF8054680
:10E63000002D01D02846A4E7208D00280EDD3148AA
:10E640000090228D23463C332948401EE16A01F0A8
:10E6500029F80546002D01D0284692E7206B0028B6
:10E6600013D001A8216B0AF0D7FB274823463C337F
:10E67000082201A900901E48801F01F013F80546EA
:10E68000002D01D028467CE700BF606B00280FD02A
:10E690001E480090606B027923463C3301681448A1
:10E6A000401C00F0FFFF0546002D01D0284668E71A
:10E6B000A06B002813D001A8A16B08F031FC14480E
:10E6C00023463C33072201A900900948273000F077
:10E6D000E9FF0546002D01D0284652E700BF002083
:10E6E0004FE700000A1800006A2300206C23002076
:10E6F000292A0000742300207C230020842300208A
:10E700008C230020942300209C230020A42300209D
:10E71000AC23002010B50446204602F0B9F821468B
:10E720000A4800F0CFF9204607F0B4FF2046FFF773
:10E730007FFB2046FFF7B4FE2146054800F036F97E
:10E7400021460448FFF74CFE10BD0000BC29002004
:10E750001C2800209429002010B5204601F0A4FFB9
:10E7600003F0E6F8FEF79AFC0AF052F801F070FAAE
:10E77000FEF746FFFEF7D8FC10BD000070B5094853
:10E780000068FEF77DFE044600BF2546002D06D03A
:10E7900000BF05A20B492846FEF716FD00BF00BFCB
:10E7A00070BD00003C9A02002E2E5C2E2E5C2E2E98
:10E7B0005C626C655F6170705F677A6C6C5F6869E2
:10E7C000642E6300B50800007CB506460C46A07AAE
:10E7D0000A2805DC207C0A2802DC207E0A2801DDCC
:10E7E00007207CBD2068306060687060A07AB074DB
:10E7F000217C78208155217EDE2081550021C9436E
:10E80000FF207730815300BF01216846817147495D
:10E81000818000BF3246083201A90120A0DF0546F1
:10E82000002D01D02846DCE72146304604F0ACF943
:10E830000546002D01D02846D3E7207A002802D1D2
:10E84000607A002809D021463C31304608F032FC7D
:10E850000546002D01D02846C3E72146304604F086
:10E86000D1F90546002D01D02846BAE721463046A9
:10E8700008F0DCFA0546002D01D02846B1E7214614
:10E88000304602F04BFF0546002D01D02846A8E790
:10E890002146304609F01AFB0546002D01D02846D6
:10E8A0009FE7207A002818D03046FF304F302346AB
:10E8B000433308221E490090304600F08BFA05468B
:10E8C000002D01D028468CE72146304600F006FB9B
:10E8D0000546002D01D0284683E7607A002810D035
:10E8E0003046FF305F302346403308221049113153
:10E8F0000090304600F06EFA0546002D01D0284603
:10E900006FE72146304603F0A7FE0546002D01D0F3
:10E91000284666E721463E31304603F045FE05466F
:10E92000002D01D028465CE700205AE712180000AD
:10E93000222A0000FFB587B004460E461746A07C89
:10E94000B0422DDD0A207043214614314018069054
:10E95000FF207730005B144988421FD001970020C8
:10E960000290039004900590069801886846018102
:10E97000012181720021818101A804900A980590EB
:10E98000FF217731085B02A9A6DF0546002D04D1DF
:10E9900068468088B84200D00C2500E0082500E0D9
:10E9A000072528460BB0F0BDFFFF000070B50546F7
:10E9B0000C462088102806D0112809D050280CD0E9
:10E9C000512814D10EE02146284607F035FF0FE00C
:10E9D0002146284607F0A0FF0AE02146284608F015
:10E9E0007DF905E02146284608F00CF900E000BF5B
:10E9F00000BF70BDFEB504460D4616461F460020FA
:10EA000000900190684606804780089801900A228D
:10EA10006A4323467A33995AFF227732105B6A465B
:10EA2000A5DFFEBD70B586B004460E46244B0FCB65
:10EA300001AD0FC500BF002C02D10E2006B070BD85
:10EA400000BF00BF002E01D10E20F7E700BF00205D
:10EA5000C043A0823068A0610020A075214601A8B3
:10EA600063DF054600BF002D01D02846E6E700BF62
:10EA700021786846817501218182A21C05A90120A7
:10EA8000A0DF054600BF002D01D02846D6E700BF15
:10EA90003146204609F018FC054600BF002D01D084
:10EAA0002846CBE700BF314620460AF079FC0546F0
:10EAB00000BF002D01D02846C0E700BF0020BDE701
:10EAC000F09A020070B505460C46002D01D0002CCE
:10EAD00000D170BD2088102804D0112807D05028FC
:10EAE0000FD109E02146284607F0CBFE0AE0214677
:10EAF000284607F017FF05E02146284608F06CF984
:10EB000000E000BF00BF00BFE3E7000037B584B0FE
:10EB100004460D4600BF002C02D10E2007B030BDC8
:10EB200000BFA08A0F49884202D0A07D002801D1F1
:10EB30000820F3E76846008B142801DD0720EDE785
:10EB400000200090019002900390A1896846018006
:10EB5000039506A80290012168468170A08A694643
:10EB6000A6DFDBE7FFFF000070B504460D46284630
:10EB7000FCF768FB2080656070BD0000F8B50546B5
:10EB80000E46002432782146641C6A54727821466D
:10EB9000641C6A5400BF022C01D1012000E0002057
:10EBA0000746002F05D100BF03A22021FEF70CFB72
:10EBB00000BF00BF2046F8BD2E2E5C2E2E5C2E2EF0
:10EBC0005C2E2E5C2E2E5C2E2E5C636F6D706F6E35
:10EBD000656E74735C626C655C636F6D6D6F6E5CAB
:10EBE000626C655F7372765F636F6D6D6F6E2E63BF
:10EBF0000000000070B586B039480068059000BF7D
:10EC000000234822374905A809F0FAFE054600BF4F
:10EC10002E46002E06D000BF33A23A493046FEF7FA
:10EC2000D3FA00BF00BF00BF6A460121002009F0EF
:10EC3000C5FE044600BF2546002D07D000BF2AA20E
:10EC4000C321C9002846FEF7BFFA00BF00BF00BFBE
:10EC50002D4E304609F0DCFB044600BF2546002D52
:10EC600007D000BF20A2274909312846FEF7ACFA99
:10EC700000BF00BF00BF684609F01EFE044600BF8B
:10EC80002546002D07D000BF17A21E491131284686
:10EC9000FEF79AFA00BF00BF1C4809F0FFFD0446CA
:10ECA00000BF2546002D07D000BF0FA21549153122
:10ECB0002846FEF789FA00BF00BF154809F0E6FEB6
:10ECC000044600BF2546002D07D000BF06A20D490F
:10ECD00019312846FEF778FA00BF00BF06B070BDB4
:10ECE000409A0200E42900202E2E5C2E2E5C2E2E4F
:10ECF0005C626C655F6170705F677A6C6C5F68699D
:10ED0000642E630012060000E81F002015E70100D2
:10ED1000058E020010B5FFF76DFF10BD70B509F04C
:10ED20000BFA162009F0BEFB044600BF2546002D55
:10ED300006D000BF0BA212492846FEF745FA00BFD5
:10ED400000BF09F095FE044600BF2546002D07D000
:10ED500000BF04A20A49C91C2846FEF735FA00BFC5
:10ED600000BF70BD2E2E5C2E2E5C2E2E5C626C655C
:10ED70005F6170705F677A6C6C5F6869642E6300B6
:10ED8000930800007CB50446A1786A460D4808F057
:10ED900005FA0546002D13D161781C2251430A4A19
:10EDA00088181C231A46694608F04CFB0748807AED
:10EDB000800007490A58214668469047054600BF2B
:10EDC0007CBD0000B4230020D82C0020402D002062
:10EDD000CC9A0200F0B58FB005460E4617461C4689
:10EDE0000020079000BF6846007F01090901491C07
:10EDF00068460177007FF021884310306946087724
:10EE000000BF217868464177807F06218843811CB6
:10EE1000684681771C2108A8FCF709FA08A8007841
:10EE200002218843811C08A80170007808218843CA
:10EE3000A1780907090F002901D0012100E0002174
:10EE4000C90008221140084308A9087008A80078E2
:10EE500010218843103008A90870002009900B90F9
:10EE60000C9007A80D9000200E9000BF012168466D
:10EE70008171868000BF0020009061786846017033
:10EE8000A1784170807806218843811C6846817092
:10EE90008078082188430146684681708078102177
:10EEA0008843014668468170807841084900684679
:10EEB0008170142102A8FCF7BAF901A802906846F3
:10EEC00003900021018241828782002006902889D8
:10EED00002AA08A9149BA2DF0FB0F0BD30B58FB015
:10EEE00004460D461C2108A8FCF7A1F908A80078E3
:10EEF00002218843811C08A80170007808218843FA
:10EF0000411808A80170007804218843001D08A951
:10EF10000870002009900B900C900D900E9000BF8F
:10EF20000121684681721E49018100BF00200190C5
:10EF30004620415D684601714720415D6846417148
:10EF4000807906218843811C684681718079082177
:10EF500088430146684681718079102188430146C3
:10EF600068468171807941084900684681711421A1
:10EF700003A8FCF75CF902A8039001A80490002103
:10EF800068468182C1820121018300200790208987
:10EF90002346FF33573303AA08A9A2DF0FB030BDC1
:10EFA000322A0000F3B581B006460025002400E0B7
:10EFB000641C042C04D2A00029490858B042F7D19F
:10EFC000042C42D20298002825D0012802D0022821
:10EFD0003AD133E06000201822490D5C600020180F
:10EFE0004018407800280ED01F4800680A2250437D
:10EFF00001461E4A1E480068FEF714FA0746002F15
:10F0000001D11A480670600020181649401880780F
:10F010001849085518E016480068FEF731FA1548F7
:10F02000005D610061180F4A89188978884204D10F
:10F030006000201811464018857805E0600020180F
:10F0400008494018457800BF00BF002D07D00A4886
:10F050000068002803D02846074909688847FEBD94
:10F06000889A0200A82A00201C2300202C230020BC
:10F07000849A02002D2300202823002070B5044626
:10F08000002506480078C007C00F002803D020469E
:10F0900000F006F80546284670BD00002023002039
:10F0A000F8B50446002500262300FDF7BCFA180D2C
:10F0B0001E1F68B1F9F8F7F6F5F4F3F2F1F0EFEE90
:10F0C000EDECEBEAE9E8E7E600BFF74801680F205E
:10F0D000400588430F2149050840F4498860002015
:10F0E000C86000BFF248047080E200BF00BFEE4875
:10F0F00001680720800588430F2149050840EB4936
:10F1000088600020C86000BF084640680F2149059C
:10F11000484001214905084000280FD000BF08469B
:10F12000E24988600020C86000BF022C02D1E120C3
:10F13000C00001E07D20400106460EE000BF012036
:10F140004005DA49C8600020886000BF022C01D168
:10F15000C82001E0FF2091300646D54804706421A4
:10F160003046FCF713F8D3490968484307460022A4
:10F170003946D1480068FEF755F9054636E200BF2A
:10F18000C94801680720800588430F2149050840C8
:10F19000C64988600020C86000BF084640680F214B
:10F1A0004905484001214905084000280FD000BF0B
:10F1B0000846BE4988600020C86000BF032C02D109
:10F1C0001920400101E07D20400106460EE000BF0D
:10F1D00001204005B549C8600020886000BF032CAD
:10F1E00001D1C82001E0FF2091300646B0480470EC
:10F1F00064213046FBF7CAFFAE4909684843074619
:10F2000000223946AC480068FEF70CF90546EDE1EE
:10F2100000BFA54801680720800588430F214905E4
:10F220000840A24988600020C86000BF08464068C6
:10F230000F214905484001214905084000280FD009
:10F2400000BF0846994988600020C86000BF042CB0
:10F2500002D17D20400101E07D204001064623E0EF
:10F2600000BF012040059149C8600020886000BFB0
:10F27000042C16D1FF20913015E0B6E1AAE1A8E1F7
:10F2800095E182E16FE163E127E125E123E121E1FD
:10F290001FE113E1F0E0D9E0C0E0A9E090E05DE01B
:10F2A00014E0FF2091300646814804706421304606
:10F2B000FBF76CFF7F49096848430746002239463F
:10F2C0007D480068FEF7AEF805468FE100BF76483E
:10F2D00001680720800588430F21490508407349CC
:10F2E00088600020C86000BF084640680F214905BB
:10F2F000484001214905084000280ED000BF0846BB
:10F300006A4988600020C86000BF052C01D1C82070
:10F3100001E07D20400106460EE000BF01204005CF
:10F320006249C8600020886000BF052C01D1C82058
:10F3300001E0FF20913006465D48047064213046AC
:10F34000FBF724FF5B49096848430746002239461A
:10F3500059480068FEF766F8054647E100BF524885
:10F3600001680720800588430F21490508404F495F
:10F3700088600020C86000BF084640680F2149052A
:10F380004840012149050840002806D000BF084632
:10F39000464988600020C86007E000BF01204005A2
:10F3A0004249C8600020886000BF4148047041485D
:10F3B0000022016840480068FEF734F8054615E170
:10F3C00000BF394801680720800588430F2149059F
:10F3D0000840364988600020C86000BF00BF012097
:10F3E0004005C8600020886000BF31480470FDE01F
:10F3F00000BF2E4948680121890581432B4A91604D
:10F40000012189050140D16000BF2A48002201681E
:10F4100029480068FEF706F80546E7E000BF2349E3
:10F420004868012189058143204A916001218905AD
:10F430000140D16000BF1F4800688200811800228F
:10F440001D480068FDF7EEFF0546CFE000BF1749F5
:10F450004868012189058143144A91600121890589
:10F460000140D16000BF13480022016812480068C3
:10F47000FDF7D8FF0546B9E000BF0C4948680121F7
:10F4800089058143094A9160012189050140D160C4
:10F4900000BF084800688200811800220648006802
:10F4A000FDF7C0FF0546A1E0242300200005005021
:10F4B000182300201C2300207C9A020000BF0F208C
:10F4C00040054C49C8600020886000BF4A4804706D
:10F4D0008CE000BF00BF00BF00BF48480068FDF7D8
:10F4E000CFFF05461120061B002E23D0002D21D171
:10F4F0000120C00542490860012E10D9C82171437E
:10F5000008466421FBF742FE3E4909684843074626
:10F510000022394639480068FDF784FF054600BFE0
:10F52000374800680F21490508403249C86000206B
:10F5300088600CE000BF324800680F214905084090
:10F540002C4988600020C86000BF2D4908604DE04C
:10F5500000BF0F204005274988600020C86000BF19
:10F560002548047042E000BF0720800521498860DB
:10F570000020C86000BF00BF01204005C860002017
:10F58000886000BF1C48047030E000BF0D204005BB
:10F59000184988600020C86000BF00BF01208005B6
:10F5A000C8600020886000BF134804701EE000BFE0
:10F5B0000320C0050F4988600020C86000BF00BF5D
:10F5C00003204005C8600020886000BF0A4804701E
:10F5D0000CE000BF00BF0F2040050649C8600020B6
:10F5E000886000BF0448047000E000BF00BF2846E8
:10F5F000F8BD00000005005018230020809A02008A
:10F60000242300201C230020014601208840044AB6
:10F6100012681040002801D1012070470020FCE74B
:10F6200024210020014601208840044A126810402D
:10F63000002801D1012070470020FCE73C21002078
:10F64000014601208840044A12681040002801D178
:10F65000012070470020FCE78C21002010B594B0F9
:10F660004C22084901A8FBF7BBFD002406E0A100DD
:10F6700001AA5058032105F06EF8641C132CF6D330
:10F6800014B010BDDC99020001468800014A1058F0
:10F6900070470000842D0020014601484056704705
:10F6A000A42D0020F0B58FB007460D4614461E4627
:10F6B00000BF002D01D0012000E000200090009844
:10F6C000002805D100BF31A26D21FDF77DFD00BFEF
:10F6D00000BF00BF002C01DD012000E000200090F1
:10F6E0000098002805D100BF28A26E21FDF76CFD0F
:10F6F00000BF00BF1C2107A8FBF799FD6946087FE2
:10F7000002218843801C69460877002008900A90EF
:10F710000B900C900D9000BF012108A881766846DF
:10F72000078700BF00200190317868460171717829
:10F730004171807906218843811C684681718079F6
:10F7400008218843014668468171807910218843E9
:10F750000146684681718079410849006846817197
:10F76000142102A8FBF763FD0EA8029001A80390E4
:10F7700068460482002141828482069502AA07A974
:10F7800012480088149BA2DF0FB0F0BD2E2E5C2E15
:10F790002E5C2E2E5C2E2E5C2E2E5C2E2E5C636F2D
:10F7A0006D706F6E656E74735C626C655C626C65C7
:10F7B0005F73657276696365735C626C655F6469CB
:10F7C000735C626C655F6469732E63006A2300205A
:10F7D000F0B587B03E480078142148433C49091DE4
:10F7E0004418E7680C21A06848433A49401800894A
:10F7F00006900C21A068484336494018408905907E
:10F800000C21A0684843334940184068049007F031
:10F81000D0FD014602903846FBF7B8FC002901D123
:10F82000012000E0002003900599069848430499C0
:10F8300046186088C019A18845180020264908602C
:10F840000398002804D007F0B4FD618888420AD0EC
:10F850000398002804D0B54202D1A088002802D025
:10F86000A06802280CD107F0A4FD0146029038469A
:10F87000FBF78CFC19490860032009F005F824E027
:10F8800007F097FD0190A188C8190199FBF77EFC4C
:10F8900088081349086007F08CFD0146019028464E
:10F8A000FBF774FC002901D1012000E00020029048
:10F8B000B54206D00298002803D1B1B2A8B209F02F
:10F8C0002BFB022008F0E0FF00BF07B0F0BD0000F6
:10F8D000E82D0020B42E0020E0230020E4230020A7
:10F8E000DC23002010B5084800781421484306495D
:10F8F000091D44182078042802D000F0C1F801E066
:10F9000009F00EFA10BD0000E82D002010B50F48D8
:10F910000078142148430D49091D441860880C499A
:10F9200008602078012804D0032805D0042809D1D4
:10F9300005E009F0F5F906E0FFF74AFF03E009F0FA
:10F9400023FF00E000BF00BF10BD0000E82D002035
:10F95000F023002010B503484078002801D0FFF7BD
:10F96000D5FF10BDE82D00200023142141430C4A8F
:10F9700053541421414389184B80012314214143DE
:10F9800089188B600023142141438918CB6014210E
:10F99000414389180B611421414389188B807047BA
:10F9A000EC2D0020FFB581B0064617461C48407874
:10F9B0000A2830D01A4800781949497844180A2C86
:10F9C00000D30A3C142060431549091D0E5414202D
:10F9D000604340180761142060434118029805C82D
:10F9E000CA608860142161430D4A121D8918049869
:10F9F00048801421614389180A988880101F407834
:10FA0000401C111F487007480078002801D1FFF7FB
:10FA10007DFF002500E00425284605B0F0BD00006C
:10FA2000E82D0020D823002010B5002005490870DB
:10FA30004870002403E02046FFF796FF641C0A2C60
:10FA4000F9D310BDE82D002010B502F08BFB044661
:10FA5000FF2C06D1FE2002F0FFFA002007490870B3
:10FA60000AE002202040022803D100200349087048
:10FA700002E001200149087010BD000000210020B3
:10FA800010B50848007814225043064A121D811808
:10FA90000020FDF71FFC00F007F8002008F0F4FE3E
:10FAA00010BD0000E82D002010B509490878FFF7C7
:10FAB0005BFF07484078401E0549487008460078BB
:10FAC000401CC0B208700A2801D10020087010BD87
:10FAD000E82D0020FEB51B48006800282FD01948EB
:10FAE0000068056808F066FB019017480468214625
:10FAF000019809F03DFAC61C14480078002801D18D
:10FB000008F06AFBAE4201D2284600E030460419F4
:10FB10002402240A20460E49086000BF08F04AFB70
:10FB200000900199009809F023FAC71C204601991A
:10FB300009F01EFA874201D909F0A0FB01E008F0A4
:10FB400069FBFEBD1024002014240020282400207E
:10FB50004015014001460888062808DB088819225C
:10FB6000D201904205DD0888104A904201D007205A
:10FB700070474888062808DB48881922D20190423D
:10FB800005DD4888094A904201D00720F0E708883F
:10FB9000064A904208D04888904205D008884A8892
:10FBA000904201DD0720E3E70020E1E7FFFF0000CE
:10FBB000FFB581B006460D4614462088801D049985
:10FBC000884202D90C2005B0F0BD3046FFF7C2FFD5
:10FBD000074600BF002F01D03846F4E700BF0520DC
:10FBE000218868542088401C208012202188685475
:10FBF0002088401C208022885119308809F02CFD73
:10FC000021884018208022885119708809F024FD2D
:10FC10002188401820800020D5E7000010B5044658
:10FC200000BF04A2CF2189002046FDF7CDFA00BF16
:10FC300010BD00002E2E5C2E2E5C2E2E5C626C659C
:10FC40005F6170705F677A6C6C5F6869642E6300D7
:10FC500030B587B01C216846FBF7E9FA0020009018
:10FC60000520C00301900F20000402900321684684
:10FC700001730021C181017400200590094806909C
:10FC80006846FEF7D1FB044600BF2546002D06D08E
:10FC900000BF05A20B492846FDF796FA00BF00BF3A
:10FCA00007B030BD1DFC01002E2E5C2E2E5C2E2ECA
:10FCB0005C626C655F6170705F677A6C6C5F6869CD
:10FCC000642E63005303000038B51F4803F096F814
:10FCD000002829D11D48007800280AD01C48406916
:10FCE000002820D0002000901948416968468847C4
:10FCF00019E018480078002802D11548456801E04D
:10FD0000134885680022294613480068FDF78AFBDE
:10FD10000446002C07D00E488069002803D00C4808
:10FD20008169204688470AE009484069002806D0D2
:10FD300001200090064841696846884700BF0020BE
:10FD40000249087038BD00006023002068230020AD
:10FD5000D82B00205C230020B89A020070B503461F
:10FD60000C460820002115E00C254D430B4EAD1923
:10FD7000AD7A2540002D0CD0094DAB4205D00C25A5
:10FD80004D43AD192D899D4202D11160002003E041
:10FD90000520491C0029E7D000BF70BD342D00208C
:10FDA000FFFF000010B5044601210C2060430A4A01
:10FDB00080188172891E0C20604380180181FF2108
:10FDC0000C2060438018C1720C2161438818072100
:10FDD000FBF72DFA10BD0000342D00207CB5152452
:10FDE00003252E4600202B46024601460196009030
:10FDF000204604F09DFC00BF062001218140034AFB
:10FE0000116000BF8007024948607CBD00E100E04E
:10FE10000063004010B500BFEFF30580C105C90DB8
:10FE200000291FD00A46103A50B200280CDA0E4BB7
:10FE30000407240F083CA408A4001B598407E40EFF
:10FE4000E3401B069B0F0BE0084B032424021B1905
:10FE50008408A4001B598407E40EE3401B069B0F93
:10FE6000D8B210BD0420FCE71CED00E000E100E08A
:10FE700010B51C4800680821084000282FD11A48F6
:10FE80000068401C1849086018480068002803D022
:10FE9000042008F0ADFF24E003F014F8002803D09C
:10FEA000022008F0A5FF1CE011480068002813D0CC
:10FEB0000C480078C007C00F002809D10948006825
:10FEC0000121084307490860002008F091FF08E07D
:10FED000032008F08DFF04E008F05EFF01E008F069
:10FEE0006BFF10BDF4230020E4230020DC2300205E
:10FEF000E023002010B50C480068082108400028C5
:10FF00000FD10948006802210840002805D00648A2
:10FF100000680121084304490860022008F068FFD6
:10FF200001E008F049FF10BDF4230020FEB50446AF
:10FF30000E46A1786A46284807F030F90546002D9C
:10FF400049D160780C21484324494018807A4021E7
:10FF50000840402801D0022E01D1214F04E0012E9B
:10FF600001D1204F00E0204FA0781C2250431F4AAF
:10FF7000811800231C226846B8470546002D1AD177
:10FF8000022E18D060780C21484314494018807A1A
:10FF90004021884361780C225143104A89188872A5
:10FFA00060781C225043124A81181C231A46684666
:10FFB000B847054600BF022E0DD020780C214843DB
:10FFC0000C494018807A80000B490A58214668463F
:10FFD0009047054600BFFEBDB4230020342D00200D
:10FFE0008D77020061760200B58C0200142C00208F
:10FFF000D82C0020402D0020BC9A0200704770478A
:020000040002F8
:10000000FFFFFFFFFFFFFFFFFFFFFFFFFFFFFFFF00
:10001000FFFFFFFFFFFFFFFFFFFFFFFFFFFFFFFFF0
:10002000FFFFFFFFFFFFFFFFFFFFFFFFFFFFFFFFE0
:10003000FFFFFFFFFFFFFFFFFFFFFFFFFFFFFFFFD0
:10040000F0B5454885B00068012803D04348406BEB
:10041000002806D1424840680078202801D80125EC
:1004200000E000253F4C01266069002804D104F05B
:1004300079F9002800D1666105F0D6FE012802D0C6
:100440003948FBF723FA39484068007D002802D07C
:100450003748FBF71BFA05F0D5FA002D57D00121DC
:10046000084605F011FE052840D2010079440979BB
:1004700049188F4402381D383800002705F0A2FEC5
:100480000390A689E58905F0A3FE02462748694640
:100490004068837D0F700399019169460E814D81FB
:1004A0004A7000208B70C870684605F073FC1DE030
:1004B000002705F087FE0390A689E58905F088FEF0
:1004C00002461A4869464068837D0F70039901917E
:1004D00069460E814D814A7001208B70C870684654
:1004E00005F058FC02E01348FBF7D0F903F084FB59
:1004F000206111481149426962602378022B01D0C2
:10050000002A06D0C0680860002003F0A9FB05B0EF
:10051000F0BD8068F7E700000014004000150040BF
:10052000883800206C380020A806090084240020A8
:10053000A9060900C806090038380020A0380020A4
:10054000F8B505460E461B4F00242EE01C206043E4
:1005500019494018807EFF2826D13078022814D00F
:100560001C2060434018807E022188431C21614387
:10057000114A891888761C21614389180846103071
:1005800007223146FAF72CFE0BE01C2060430A4993
:100590004018807E410849001C206043064A8018AC
:1005A00081762C70002702E0641C072CCED300BF9C
:1005B0003846F8BD43800000142C0020F8B50546ED
:1005C0000E4617460520009000241BE0002D06D1A2
:1005D0001C2060430E494018008BB8420DD0002DFE
:1005E0000FD01C2161430A4A89180846103007229F
:1005F0002946FAF72EFE002803D13460002000902F
:1006000002E0641C072CE1D300BF0098F8BD000095
:10061000142C00207CB50546A9B26A46084806F0AD
:10062000BDFD0446002C09D17C21684606F008FE79
:100630000446002C02D1284606F04AFC20467CBD28
:10064000B4230020F8B505460E46144600BF2746E1
:10065000002F06D000BF0BA211493846FCF7B4FDAD
:1006600000BF00BF3078142802D0212806D100BF77
:10067000042229460B48FAF7B3FD00BF00BF002053
:10068000F8BD00002E2E5C2E2E5C2E2E5C626C655A
:100690005F6170705F677A6C6C5F6869642E63007D
:1006A000930600006D2100207FB5064600200390D0
:1006B0003B4800F02BFC044600BF2546002D06D029
:1006C00000BF38A23E492846FCF77EFD00BF00BFB0
:1006D00006F074FE044600BF2546002D07D000BF7B
:1006E00030A23749091D2846FCF76EFD00BF00BF48
:1006F00003A800F019FC044600BF2546002D07D0D2
:1007000000BF28A22E49C91D2846FCF75DFD00BF89
:1007100000BF052101A80130FAF789FD684640793C
:1007200041084900491C68464171407902218843CB
:100730000146684641714079042188430146684674
:1007400041714079082188430146684641714079EA
:1007500070218843014630316846417140798021DB
:100760008843014668464171072181711021C1719A
:10077000144800900121684601716946124800F052
:10078000BBFD044600BF2546002D07D000BF05A2D3
:100790000B4917312846FCF717FD00BF00BF7FBD8E
:1007A0006D2100202E2E5C2E2E5C2E2E5C626C6540
:1007B0005F6170705F677A6C6C5F6869642E63005C
:1007C000AF060000450602006C21002030B593B052
:1007D0000221684601712049C1802049018101211F
:1007E0004181402103A8FAF722FD1DA103A8FEF7CD
:1007F000BBF901A8119000BF10A8007A01090901F6
:10080000491C10A80172007AF0218843203010A9F9
:10081000087200BF00BF12A840780009000112A9A9
:10082000487012A84078F021884312A9487000BF90
:1008300003A8FDF795FE044600BF2546002D07D00E
:1008400000BF0CA2FF21D0312846FCF7BDFC00BF41
:1008500000BF13B030BD000015190000EEEE00001F
:100860004E6F7264696353656D69636F6E6475631F
:10087000746F72002E2E5C2E2E5C2E2E5C626C65C8
:100880005F6170705F677A6C6C5F6869642E63008B
:10089000F0B591B00446FF200F900026002009908B
:1008A00000BFFE480078002801D111B0F0BD00BFA4
:1008B00000BFFB480068002800D1F6E700BF0EA883
:1008C00000F024FB054600BF2F46002F06D000BFD6
:1008D000F44AF5493846FCF777FC00BF00BF00201A
:1008E0000A900025201D0C902C2168468186FF214E
:1008F00008A8817600210176002010902088102819
:1009000013D0A08810AA0221FFF728FA0546002D6F
:100910000BD10C2110984843E4494018C17A08A82B
:1009200081761098C1B208A84176208819287DD018
:1009300008DC10280DD011287ED0132878D0142878
:1009400077D1B7E01A2875D01E2874D05228F7D175
:10095000A3E210AF3A460121D548FFF7FFF908900E
:100960000898002807D102210C2238685043CF4A4A
:100970008018817201E00420089008980546002D37
:1009800053D10126112108A801731098C1B208A8FB
:100990004176A1880C2210985043C44A80180181E6
:1009A00002210C2210985043C04A801881720C22F8
:1009B00010995143BD4A8818072221460831FAF799
:1009C0000FFCE07D304000280AD0E07D4008B949A6
:1009D000085CFF280BD0E07D4008085C0F9006E023
:1009E000B34A0FA920460830FFF7E8FD0546002D61
:1009F0001BD10F98C1B20C2210985043AB4A8018FB
:100A0000C1720C211098484311464018807A082181
:100A100008430C2210995143A44A8918887208A9E6
:100A20000F9888760EA8FEF7ADF945E212E103E0D3
:100A300085E040E2CFE139E20C21109848439B4920
:100A40004018807A022188430C2210995143974A1A
:100A5000891888720C211098484311464018807AF2
:100A60000821084008280ED10C211098484311464F
:100A70004018807A8021084080280FD100210EA8DC
:100A8000FFF754FA0AE008A8807EFF2806D008A9DC
:100A9000887E06F01DFAFF2008A9887610210C2216
:100AA00010985043814A801881720126122008A9AB
:100AB000087301E20C21109848437C494018C07A21
:100AC000FF2823D1228A0FA90020FFF777FD0546D2
:100AD000002D1BD10F98C1B20C2210985043734ABD
:100AE0008018C1720C211098484311464018807A32
:100AF000082108430C22109951436C4A89188872C6
:100B000008A90F9888760EA8FEF73CF90C211098DA
:100B1000484366494018C07AFF2805D01C21109828
:100B200048436549401809901C2310995943634B69
:100B3000CA18A0880023099986DF0546BCE1132066
:100B400008A908730C211098484358494018807A26
:100B5000042108430C2210995143544A8918887281
:100B600001260C211098484311464018C07AFF28EE
:100B70003ED10C22109850430A4681180FA8FFF767
:100B8000DFFC0546002D0BD108A90F9888760F9839
:100B9000C1B20C2210985043444A8018C17201E03F
:100BA0000A950126002005900C21109848433F49E2
:100BB0004018C07A1C214843404941180691002141
:100BC000079108911C21109848433B494018019017
:100BD0000020029003900490A08801AB304A121DBF
:100BE00000217FDF0546002D01D00A95002630E068
:100BF0000C21109848432D494018807A4021084321
:100C00000C2210995143294A89188872162008A984
:100C10000873002005900C21109848431146401895
:100C2000C07A1C21484325494118069100210791AB
:100C30001C21109848432049401801900020029040
:100C40000390A08801AB164A121D00217FDF0546E4
:100C500000BF31E11248407A400840001049487214
:100C60000C211098484311494018807A0421884388
:100C70000C22109951430D4A89188872142008A932
:100C800008730126207A002827D00C2110984843A9
:100C900011464018807A4021084011E0C02300200E
:100CA000402D0020D09B0200F1090000342D0020CF
:100CB000FFFF0000C1230020D82C0020142C0020AE
:100CC000402809D00C2210995143894A8918C87AC2
:100CD000FFF7A0FC207A0A907CE0607A4007C00F02
:100CE000002877D008A8807EFF2873D00C211098A8
:100CF00048437F494018807A082108430C22109904
:100D000051437B4A89188872607B8007C00F002896
:100D10000FD008A8807E1C21484376494018807E69
:100D20004108490008A8807E1C225043714A80185F
:100D300081760C21109848436D494018C07AFF28ED
:100D400048D00C21109848436949085C022820D0FB
:100D50000C23109A5A430B46D11808AA927E1C23E2
:100D60005A43644BD218104610300722FAF738FA6B
:100D700008A8807E1C2148435E494018807E0221DD
:100D8000884308A9897E1C2251435A4A89188876CB
:100D90001CE01C211098484357494018418A08A874
:100DA000807E1C225043534A8018018308A8807E0D
:100DB0001C21484311464018807E4108490008A87C
:100DC000807E1C2250434B4A8018817601210EA858
:100DD000FFF7ACF870E0207A000901283CD1207AB6
:100DE0000007000F012837D10C21109848434049D3
:100DF0004018807A0821084008282DD110998901CF
:100E00003E4A891808183821FAF711FA162008A95D
:100E100008730C211098484335494018807A2021E6
:100E200008430C2210995143314A891888720C21C9
:100E30001098484311464018807A402108430C22FC
:100E4000109951432A4A891888722D48407A022104
:100E500008432B4948721CE00C2110984843244950
:100E60004018807A802108430C2210995143204A6F
:100E700089188872152008A908732148807A800093
:100E8000204A11580EA888470546002D01D01E485B
