:0900000002073C90815BE0FF2245
:10000B00020DFF000405070B32536601172D2D1A45
:0E001B00440C4023490D171A2D0B4D02158F72
:10002B00022672758901758C15758A54D2A975884B
:0F003B001022D2B9D2BDD2ADC20BA20C9292222A
:10004B00022BA57F60021C427F08021A5502158FF6
:07005B000234CA75A4012262
:0300630002322046
:10006B000227E40203B6E86480F8E933E833601151
:10007B000460F0ED33EC337009E8FCE9FDEAFEEBCC
:10008B00FF220460DED3EB9FEA9EE99DE8C2E78C7A
:10009B00F0C2F795F0400CE8CCF8E9CDF9EACEFACE
:1000AB00EBCFFB12038185D0F05804700320D5B33E
:1000BB00E80470075002B2D50203C092D5EC04607D
:1000CB00F7E4CCC0E0C398F8603B94186008400D8F
:1000DB00D0E0FB020398E4FBFAC9FC8028E830E48B
:1000EB0006E4C9FBE4CAFCE830E305E4C9CACBFC6F
:1000FB00E854076010F8C3E913F9EA13FAEB13FBA2
:10010B00EC13FCD8F130F52FC3E49CFCEF9BFFEE16
:10011B009AFEED99FDD0E0FBEF4E4D4C701222DBB9
:10012B00030203BDEC2CFCEF33FFEE33FEED33FD8E
:10013B00ED30E7EB020398EF2BFFEE3AFEED39FDC6
:10014B00D0E0FB50130BBB00030203C0ED13FDEE1D
:10015B0013FEEF13FFEC13FC020398EC4D6011E858
:10016B00497017ED33EC3304600DE4FCFFFEFD2208
:10017B00E933E8330470F80203B6120381580460C4
:10018B0009E4CC248150062850090203C0284003FF
:10019B000203BDC0E0EB4A7044B98006D0E0FB021D
:1001AB0003ACEF4E701CBD8008EBFFEAFEE9FD804F
:1001BB00EBE98DF0A4FEE5F002024FE9CDF9EAFE82
:1001CB00EBFFEF89F0A4FCE5F0CE89F0A42EFFE461
:1001DB0035F0CD89F0A42DFEE435F08067EF4E703D
:1001EB0005BD80D780C3EF8BF0A4ACF0EE8BF0A4F1
:1001FB002CFCE435F0F8EF8AF0A42CE5F038FCE4A5
:10020B0033CB8DF0A42CFCE5F03BF8EE8AF0A42C5C
:10021B00FCE5F038F8E433CF89F0A42CFCE5F0389A
:10022B00CF3400CE89F0A42FFFE5F03EFEE433C9B6
:10023B008DF0A42EFEE5F039CD8AF0A42FFFE5F06A
:10024B003EFEE43DFD33D0E0FB50070BBB000F023D
:10025B0003C0EC2CFCEF33FFEE33FEED33FD02035A
:10026B00980203C0EC5D046005E8590470030203B7
:10027B00B6120381580460F6EC4860F2EC7004FD92
:10028B00FEFF22C860DB2481C85009C3986002506E
:10029B00060203BD9850CAF582E9294B4A7005AB9B
:1002AB00820203AC75F0007C1A7880C3EF9BEE9A48
:1002BB00ED99400DC3EF9BFFEE9AFEED99FDE842E1
:1002CB00F0DC23ACF0D0E0FFD0E0FED0E0FDAB8261
:1002DB0020E7101BEB60BAEC2CFCEF33FFEE33FE88
:1002EB00ED33FD020398E803F830E705C0F075F035
:1002FB0000EF2FFFEE33FEED33FD40B830E7C28049
:10030B00AA75F020800E75F010800575F0087D0041
:10031B007E007F003392D530D50312050BEC3340B2
:10032B0010EF33FFEE33FEED33FDEC33FCD5F0ED88
:10033B0022E5F0247EA2D513CC92E7CDCEFF22EDA1
:10034B00D2E7CD33EC3392D524814006E4FFFEFD9A
:10035B00FC22FCE4CFCECDCC24E0501174FF80ED19
:10036B00C3CC13CCCD13CDCE13CECF13CF0470F0A3
:10037B0030D5DE02050BE9D2E7C933E833F892D565
:10038B00EDD2E7CD33EC33FC5002B2D522EC30E7A3
:10039B00100FBF000C0EBE00080DBD00040BEB6070
:1003AB0014A2D5EB13FCED92E7FD2274FFFCFDFECE
:1003BB00FF22E480F8A2D574FF13FC7D80E480EF6C
:1003CB00BB010689828A83E0225002E722BBFE0230
:1003DB00E32289828A83E49322BB010CE58229F50F
:1003EB0082E5833AF583E0225006E92582F8E6227E
:1003FB00BBFE06E92582F8E222E58229F582E58338
:10040B003AF583E49322BB010FF8E58229F582E5E7
:10041B00833AF583E028F0225009C58229F8E5825A
:10042B0026F622BBFE09C58229F8E22582F222F8C4
:10043B00EA2583F583E9932822BB010689828A8307
:10044B00F0225002F722BBFE01F322F8BB010DE5AF
:10045B008229F582E5833AF583E8F0225006E925F7
:10046B0082C8F622BBFE05E92582C8F222EF8DF089
:10047B00A4A8F0CF8CF0A428CE8DF0A42EFE22BC25
:10048B00000BBE0029EF8DF084FFADF022E4CCF819
:10049B0075F008EF2FFFEE33FEEC33FCEE9DEC987E
:1004AB004005FCEE9DFE0FD5F0E9E4CEFD22EDF804
:1004BB00F5F0EE8420D21CFEADF075F008EF2FFFA7
:1004CB00ED33FD4007985006D5F0F222C398FD0F8F
:1004DB00D5F0EA22C5F0F8A3E028F0C5F0F8E582E4
:1004EB00158270021583E038F022A3F8E0C5F025E1
:1004FB00F0F0E582158270021583E0C838F0E8222F
:10050B00C3E49FFFE49EFEE49DFDE49CFC22A42536
:10051B0082F582E5F03583F58322E0FBA3E0FAA3B5
:10052B00E0F922F8E0FBA3A3E0F925F0F0E5821552
:10053B008270021583E0FA38F022EBF0A3EAF0A305
:10054B00E9F022E493FB740193FA740293F922BB52
:10055B00011A89828A83D0F0D0E0F8D0E0F9D0E09C
:10056B00FAD0E0FBE8C0E0C0F00205455016E9F810
:10057B00D083D082D0E0F9D0E0FAD0E0FBC082C0CB
:10058B0083020721BBFE16E9F8D083D082D0E0F9B5
:10059B00D0E0FAD0E0FBC082C08302073322BB015C
:1005AB000DE58229F582E5833AF58302052550078F
:1005BB00E92582F8020718BBFE07E92582F8020736
:1005CB002AE58229F582E5833AF58302054ED0832D
:1005DB00D082F8E4937012740193700DA3A393F877
:1005EB00740193F5828883E4737402936860EFA3BC
:1005FB00A3A380DF8A838982E473E5092582F582D0
:10060B00E5083583F583B508048582092210AF060A
:10061B00858209F50822858209F508D2AF22E50902
:10062B002582F582E5083583F58322E709F608DF95
:10063B00FA8046E709F208DFFA803E88828C83E76E
:10064B0009F0A3DFFA8032E309F608DFFA806EE3E4
:10065B0009F208DFFA806688828C83E309F0A3DF56
:10066B00FA805A89828A83E0A3F608DFFA804E89E2
:10067B00828A83E0A3F208DFFA804280D280FA807C
:10068B00C680D4805580F28029801080A680EA80B5
:10069B009A80A880DA80E280CA802988848C858938
:1006AB00828A83E493A30592F0A31592DFF5DEF320
:1006BB00800B89828A83E493A3F608DFF9ECFAA90D
:1006CB00F0EDFB2288848C8589828A83E0A30592D6
:1006DB00F0A31592DFF6DEF480E389828A83E4933C
:1006EB00A3F208DFF980D688F0EF60010E4E60CDE3
:1006FB0088F0ED2402B4040050C3F582EB2402B45D
:10070B00040050B9232345822390068673E6FB0829
:10071B00E6FA08E6F922EBF608EAF608E9F622E231
:10072B00FB08E2FA08E2F922EBF208EAF208E9F236
:10073B0022787FE4F6D8FD75088875090075814C21
:10074B00020789020F71E493A3F8E493A34003F625
:10075B008001F208DFF48029E493A3F85407240CFA
:10076B00C8C333C4540F4420C8834004F4568001DB
:10077B0046F6DFE4800B010204081020408090074E
:10078B00CEE47E019360BCA3FF543F30E509541FB8
:10079B00FEE493A360010ECF54C025E060A840B8DF
:1007AB00E493A3FAE493A3F8E493A3C8C582C8CA5D
:1007BB00C583CAF0A3C8C582C8CAC583CADFE9DE30
:1007CB00E780BE4680580000000000004C805E00B1
:1007DB000000000000000000000000428043000009
:1007EB004180000046805100000000000041800263
:1007FB0000418001004C8045000100010100020115
:10080B0000030100040A00000000438120031728A5
:10081B0045814D010306090C41811BFF41815500A8
:10082B004181580042815900004281230000010E92
:10083B000041811A000005010906A101050719E015
:10084B0029E71500250175019508810295017508A9
:10085B00810195057501050819012905910295017D
:10086B007503910195067508150025650507190097
:10087B00296581000905150026FF0075089502B151
:10088B0002C005010905A10115002501350045012F
:10089B007501950C05091901290C8102950481013B
:1008AB0005012507463B017504950165140939813E
:1008BB004265009501810126FF0046FF00093009C2
:1008CB0031093209357508950481020600FF0920AC
:1008DB0009210922092309240925092609270928A1
:1008EB000929092A092B950C810226FF0346FF03D0
:1008FB00092C092D092E092F751095048102050865
:10090B000943150026FF00350046FF0075089501C9
:10091B009182094491820945918209469182060090
:10092B00FF093009310932093309347508950581FE
:10093B000226FF0346FF03C005010905A1011500AF
:10094B002501350045017501950C05091901290C87
:10095B0081029504810105012507463B017504952C
:10096B000165140939814265009501810126FF005B
:10097B0046FF0009300931093209357508950481A4
:10098B00020600FF09200921092209230924092550
:10099B000926092709280929092A092B950C8102FF
:1009AB0026FF0346FF03092C092D092E092F75106D
:1009BB009504810205080943150026FF0035004602
:1009CB00FF00750895019182094491820945918236
:1009DB00094691820600FF093009310932093309B2
:1009EB003475089505810226FF0346FF03C00501F8
:1009FB000905A10115002501350045017501950C6F
:100A0B0005091901290C81029504810105012507AE
:100A1B00463B0175049501651409398142650095C2
:100A2B0001810126FF0046FF000930093109320917
:100A3B00357508950481020600FF0920092109225A
:100A4B000923092409250926092709280929092A1F
:100A5B00092B950C810226FF0346FF03092C092D58
:100A6B00092E092F751095048102050809431500FD
:100A7B0026FF00350046FF00750895019182094459
:100A8B00918209459182094691820600FF0930093E
:100A9B003109320933093475089505810226FF03A4
:100AAB0046FF03C005010905A1011500250135000D
:100ABB0045017501950C05091901290C8102950455
:100ACB00810105012507463B017504950165140954
:100ADB0039814265009501810126FF0046FF00091F
:100AEB00300931093209357508950481020600FF7A
:100AFB000920092109220923092409250926092787
:100B0B0009280929092A092B950C810226FF03467E
:100B1B00FF03092C092D092E092F7510950481024D
:100B2B0005080943150026FF00350046FF00750830
:100B3B0095019182094491820945918209469182DE
:100B4B000600FF093009310932093309347508955C
:100B5B0005810226FF0346FF03C0FF0C83FF088DB0
:100B6B00B6FF0CA3FF0943B605010905A10115004A
:100B7B002501350045017501950C05091901290C55
:100B8B0081029504810105012507463B01750495FA
:100B9B000165140939814265009501810126FF0029
:100BAB0046FF000930093109320935750895048172
:100BBB00020600FF0920092109220923092409251E
:100BCB000926092709280929092A092B950C8102CD
:100BDB0026FF0346FF03092C092D092E092F75103B
:100BEB009504810205080943150026FF00350046D0
:100BFB00FF00750895019182094491820945918204
:100C0B00094691820600FF0930093109320933097F
:100C1B003475089505810226FF0346FF03C01201B8
:100C2B00000200000020151900020001010203015F
:100C3B0012010002FFFFFF085E048E027305010222
:100C4B0003011201000200000040BC206512730575
:100C5B00010503011201000200000040BC200055F9
:100C6B0073050106030109024900020100A03209C4
:100C7B00040000020300000009211001000122B64C
:100C8B00000705820340000107050203400002092B
:100C9B00040100020300000009211001000122B62B
:100CAB000007058303400001070503034000022AE8
:100CBB0003580055004E00200054004F004E0047D3
:100CCB0000200054004500430048004E004F004CEC
:100CDB00004F004700590020003C035B00580055B3
:100CEB00004E00200054004F004E0047002000280B
:100CFB0000470041004D004500200046006F0052A8
:100D0B00002000570049004E0044004F005700538D
:100D1B000029005D001603FFFFFFFFFFFFFFFFFF32
:100D2B00FFFFFFFFFFFFFFFFFFFFFF160334003442
:100D3B000049004E0044004F00570053005700304D
:100D4B00002803580055004E00200054004F004E61
:100D5B00004700200043004F004E00540052004F4C
:100D6B00004C004C00450052002A03580055004E21
:100D7B0000200054004F004E004700200042004668
:100D8B00004D002000470041004D00450050004140
:100D9B00004400FF0CBAFF0CE4FF0D20FF0D36FFE3
:100DAB000D4CFF0D7400000000000000000000005F
:100DBB0000000000000000000000000000003031C7
:100DCB0032333435363738394142434445460002D5
:100DDB0006080B140004FFFFFFFFFFFF0001003F9D
:100DEB00FFFFFFFFFFFFFFFFFFFF003F00030001BF
:100DFB00FFFFFFFFC0E0C0F0C083C082C085C0848E
:100E0B00C0925392FEC0D075D010758C15758A5454
:100E1B00B280B281B282B283784C7600784CE6FF16
:100E2B00C39402502E740A2FF806740A2FF8E6C3E7
:100E3B00942D401A784CE6FF240AF87600EF75F0F3
:100E4B0003A42446F582E43480F5837401F0784CD6
:100E5B000680C9D0D0D092D084D085D082D083D018
:100E6B00F0D0E032E4FFFEFDED75F003A42446F56F
:100E7B0082E43480F583E0700C04A805088002C37B
:100E8B0033D8FC4EFE0DEDB402DEE4FDED75F00340
:100E9B00A42446F582E43480F583E0B4011BED75A0
:100EAB00F003A42446F582E43480F583E4F0ED24CA
:100EBB0002FF740A2DF8E4F6220DEDB402CEEEC457
:100ECB0054F04FFF22E4908192F01229F9EF600465
:100EDB0064017066C2AF12004ED2AFEFD3942040C4
:100EEB000280737B017A80798A9080B11205451B51
:100EFB007A0079009080B41205450B7A80798B12B9
:100F0B0019AC90808BE024E060192420702AD16FFB
:100F1B00780EEFF6540F60227B017A80798B1213D7
:100F2B00BB8017D16F780EEFF6540F600D7B017AF3
:100F3B0080798B122C378002F161120003EF701550
:100F4B00FDFC7F0612136590817EE060057F051224
:100F5B00135B1214A822121634121F26E49081542C
:100F6B00F0C20402003DE4783CF678417601F5943A
:100F7B007580FF12002E1228351217F57BFF7A00B1
:100F8B00795890808E1205457A00792690809112BF
:100F9B0005457A1A79399080941205457A22793D64
:100FAB007F01122C907BFF7A2079B77D207F8112F5
:100FBB0011AF7BFF7A2079CD7D207F821211AF7B21
:100FCB00FF7A2079E37D207F831211AF7BFF7A209C
:100FDB0079F97D207F841211AF7BFF7A21790F7D08
:100FEB00207F851211AF7BFF7A2179257D207F052C
:100FFB001211AF7BFF7A21795D7D207F0431AF7BAE
:10100B00FF7A2179957D207F0331AF7BFF7A2179A0
:10101B00CD7D207F0231AF7BFF7A2279057D207F4A
:10102B000131AFD1A8B1D47F05B11FAC06EF443C61
:10103B00FD7F057165D2AFB18F908057E0147002C0
:10104B0021A70470F4120ED0122FC2BF04EB9080B4
:10105B0002E06006E4F0908000F0122C8A1229F96D
:10106B00783DEFF664026012E6FF6403600CEF64F8
:10107B00046007EF6405600221A1783DE6FF1219B9
:10108B001E783EA607C2AF12004E783FA607D2AF1E
:10109B00E6D394204005120F61809E7B007A007985
:1010AB003F9080B11205457A0079001219A1E478BE
:1010BB0040F67840E6FFC39402502FEF2402FFE482
:1010CB0033FE783DE6B5071DE4B506197840E6FF1B
:1010DB0075F003A42446F582E43480F583E4F074C0
:1010EB000A2FF8E4F678400680C8783DE664027073
:1010FB0023B2805198783EE6FF25E0245EF582E42A
:10110B003480F583E4F0A3F074512FF582E434803E
:10111B00F583E4F0783DE664037023B2815198784F
:10112B003EE6FF25E0245EF582E43480F583E4F0AF
:10113B00A3F074512FF582E43480F583E4F0783D0D
:10114B00E664047023B2825198783EE6FF25E024D2
:10115B005EF582E43480F583E4F0A3F074512FF54F
:10116B0082E43480F583E4F0783DE66405600201A7
:10117B0044B2835198783EE6FF25E0245EF582E485
:10118B003480F583E4F0A3F074512FF582E43480BE
:10119B00F583E4F00144908000E0014412005E12FC
:1011AB00193C014490808A120545AC07EC547FFF33
:1011BB0014FE7401A807088002C333D8FC90808DFD
:1011CB00F0E4FDEC30E74C90808A120525EE75F0CB
:1011DB0003A424D8F582E43480F58312054590806E
:1011EB008A120525E94A4B90C7AC6014E0FF90804A
:1011FB008DE0FEEF4E90C7ACF090C7DEE04EF022D4
:10120B00E0FF90808DE0F4FEEF5E90C7ACF090C7EE
:10121B00DE805D90808A120525EE75F003A424E72D
:10122B00F582E43480F58312054590808A120525FA
:10123B00E94A4B90C7AD6027E0FF90808DE0FEEF51
:10124B004E90C7ADF090C7DFE04EF0EC75F002A406
:10125B0024C5F974C735F08982F58374FFF022E059
:10126B00FF90808DE0F4FEEF5E90C7ADF090C7DF8E
:10127B00E05EF022F07F8251B57F02713E7F0274F7
:10128B00582FF582E43480F5837401F02208E6FFD1
:10129B00713E783EE6FF518A783EE64480FF7B0143
:1012AB007A80796A08E690808EF090808B120545E3
:1012BB0090808AEFF0547F75F080A4FFC374009F79
:1012CB00F974C795F0AF01908090F0A3EFF0908088
:1012DB008AE0547F75F002A424B5F974C735F0AFDA
:1012EB0001908092F0A3EFF0E490808FF090808ECD
:1012FB00E0FFA3E0FEC39F502790808B1205258E45
:10130B00827583001203E4FF908090E0FCA3E02E33
:10131B00F582E43CF583EFF090808FE004F080CD14
:10132B0090808EE0FF908092E0FCA3E0F5828C83AE
:10133B00EFF0227D507CC3ED1DAA0470011C4A60A6
:10134B000E74582FF582E43480F583E070E9222285
:10135B00B11FAC06EF4401FD7F05AE07D134EEC3E0
:10136B0094105049EE25E0242DF582E43481F58369
:10137B00ECF0A3EDF0EE24FB603124FD602424FCA3
:10138B006024146012240D7024ED4C6006ED640192
:10139B004C701AC2038016ED64014C7010FFD149DA
:1013AB00800BD20A8007121DC68002D20202003DBA
:1013BB009080AB120545E4908192F0B1B37F05B1FB
:1013CB001F7842A6077F04B11F7843A607122A266F
:1013DB00EF70028194E4FDFC7F057165E4FDFC7FF9
:1013EB000471657D967C007F067165120F6191A873
:1013FB00120003EF70FA784476087B007A00794587
:10140B007D04122BEF780EE67849F60876017B0007
:10141B007A007944E49080B7F07D07121F7C7D5EE3
:10142B007C017F0671657D017C007F05716591A84C
:10143B00120003EF60327B007A0079009080B112CA
:10144B0005459080B41205459080AB120525121905
:10145B00ACEF60DC9080AB1205251203CBB401D04E
:10146B009081927401F080C8121F38120F61E4FD55
:10147B00FC7F0671657842E6FD7C007F057165781F
:10148B0043E6FD7C007F0480127842E67C0054FE2C
:10149B00FD7F0571657DF47C017F067165B1B3300D
:1014AB000258D134C202D2017B017A81794DE4FF1B
:1014BB00D1677FFF121C5AE49080B3F09080B3E0A9
:1014CB00FFC39406502F74017E00A807088005C344
:1014DB0033CE33CED8F9FF908137E05EFEA3E05FC9
:1014EB004E600A9080B3E0FF7D01121CD29080B356
:1014FB00E004F080C77F01121E1D7F01D149E490EB
:10150B00811DF0A3F090815B7402F0D292D290D245
:10151B000C02003DAE07D134EEC3941050151200EF
:10152B003DEE25E0242DF582E43481F583E0FEA326
:10153B00E0FF2212003DE4FEFF2290808BEFF012C1
:10154B00000390808CEFF090808BE0FF90817EE029
:10155B006F6030B1B390808BE07F056004715B806E
:10156B0011B11FAC06EF54FEFD7F057165E4908150
:10157B0091F090808BE090817EF090808CE0B402B3
:10158B000291A822E4908057F0B1A3E4FDFC7F0404
:10159B0071657F01B14581A890805AF0908059F018
:1015AB0090805BF0A3F0A3F090815BE0B4010AD2D2
:1015BB000990815BE0601180F890815BE0B40208D8
:1015CB00D134122A4B12003D227B017A80798A7D1D
:1015DB0004122BEF7B017A80798A12284E7F05B19A
:1015EB001FAC06EF4402FD7F057165E490817EF030
:1015FB00908192F0908191F090817DF0FDFC7F06BF
:10160B00616590808AEFF09080577401F0E4B1A38C
:10161B0075A522120F61E4FFB14590808AE0600846
:10162B007D017C007F0491A622A2AFE433C2AFC23E
:10163B00B9C2BDC2ADD20BD29224FF92AF22EF60E2
:10164B00132007177F01121D5C7F03AE071FEE707F
:10165B00FAD20722E4FF121D5CC207229080B5125A
:10166B0005459080B4EFF014600A24FB501C600415
:10167B0024067028121C2C9080C1EFF09080B4E0EF
:10168B00242AFFA3120525021FC59080B4E0240A6B
:10169B00FFA31205251203CBFD121CB222788A7C04
:1016AB00807D017BFF7A0D79DA7E007F051206F2D1
:1016BB00D134C290A20B9292C20C7F01121E497FB1
:1016CB0001121E757FFF123578E490811FF0908117
:1016DB002A7403F0C209C20AE490811CF0C208D23A
:1016EB0001D202C206D20090812BF0A3F0C203C23A
:1016FB0004C205908154F07B017A81794DFFD1674B
:10170B007B017A80798A7F01D16790808A7403F09C
:10171B007B017A80798A7F02D16790808A7404F08A
:10172B007B017A80798A7F03D16790808A7405F078
:10173B007B017A80798A7F04D16790808A7406F066
:10174B007B017A80798A7F05D16790811FE0242005
:10175B00F582E43481F583E0FF1227D1E490812DEB
:10176B00F0A3F0A304F0A37490F0A3E4F0A374022D
:10177B00F0A3E4F0A37415F0E4A3F0A3F0A3F0A39B
:10178B00F0908143F0A3F0908139F0A3F0A3F0A384
:10179B0074FAF0A37404F0A374B0F0A37401F0A373
:1017AB00749AF0E4A3F0A3F0908145F0A37403F0D6
:1017BB00E4A3F0A3F0A3F0A37464F0A3E4F0A37488
:1017CB0064F0121DC67F01121EA37F02121EE07F62
:1017DB0005123563121F66121F26121F2F7FB07E54
:1017EB0004122389122A4B02003DE490808AF07880
:1017FB00237C00FD7BFF7A0D79B0FE7F051206F28C
:10180B0078287C007D007BFF7A0D79B57E007F14F4
:10181B001206F2900DA412054EAE02AF01E4F522B2
:10182B00E5222402FDE433FCEF2DF582EE3CF5833B
:10183B00E493F4600690808A7401F00522E522B4EB
:10184B0014DE90808AE07066F522D2FB740B2522A1
:10185B00F582E433F583E0FD74232522F8A605C257
:10186B00FB74232522F8E6C4540F900DC993FDE5B4
:10187B002225E025E02428F8A60574232522F8E686
:10188B00540F93FDE52225E025E0242AF8A6050553
:10189B0022E522B405B4EF2402FFE43EFE7B007A7E
:1018AB00007928908090E4F0A37414F011BA229080
:1018BB00808D120545908094E58EF0758E01A2AF58
:1018CB0092D5C2AF75FAAA75FA55D2FD908092EEF9
:1018DB00F0A3EFF090809074FFF5F01204F545F053
:1018EB00602490808DE475F00112052E1203CBFF5E
:1018FB00908092E475F0011204F585F082F583EF88
:10190B00F030FCD080FBC2FDA2D592AF908094E06A
:10191B00F58E22EF24FD600D14600D14600D240371
:10192B00700C7F02227F03227F04227F05227F001F
:10193B00227B007A0079009080B112054531A1EF2E
:10194B006007908001E004F022908001E0D39405C1
:10195B004004E4F0316222908103E030E10C75A089
:10196B00407F017E003176E4F5A022AD07AC063155
:10197B00883188ED1D70011C144C70F3227FFA7EA8
:10198B000031927FFA7E000000000000EF1F700113
:10199B001E144E70F2229080B41205450B7A80799A
:1019AB006A9080AE12054512163430047B12004E3D
:1019BB009080B8EFF0D39420506BE060689080AECD
:1019CB00120525120053908154E0D394004010E08F
:1019DB0014F0E02427F582E43481F583E08001EEF6
:1019EB009080B7F09135EF6002C2049080B412057D
:1019FB0025E94A4B600F9080B7E0FF9080B4120549
:101A0B0025EF1204449080B1120525E94A4B600F73
:101A1B009080B8E0FF9080B1120525EF12044412BC
:101A2B00003D7F0122120F6112003D7F002290FFCB
:101A3B00FF120605EFF075D901850883850982E051
:101A4B00FF12160D9000010206059080BA12054593
:101A5B009080B9EFF09080C17401F09080BAE09063
:101A6B0080BFF0EF14600C24FB600824FE60182488
:101A7B00087032912C9080BDEFF0A3F0C291908052
:101A8B00B9E0240AFF801AB1889080B9EFF0C394B3
:101A9B0007501212004E9080BDEFF0A3F0C2917F61
:101AAB0061B19A8009E49080BEF09080BDF0908087
:101ABB00BFE0FF704B9080BA1205259080C2E9F011
:101ACB00E4F5E5C2C09080C1E070119080C0E0FEEB
:101ADB009080C2E0F8A606E004F08005E49080C197
:101AEB00F030C0FD9080C0E5E5F09080BDE014F0D3
:101AFB0070CE9080C0E0FE9080C2E0F8A606811DFB
:101B0B00EF640170639080BA120525AF019080C21B
:101B1B00EAF0A3EFF0E4F5E5C2C09080C1E0701EDF
:101B2B009080C0E0FF9080C2E0FCA3E0F5828C8344
:101B3B00EFF09080C2E475F0011204DF8005E490B1
:101B4B0080C1F030C0FD9080C0E5E5F09080BDE035
:101B5B0014F070C19080C0E0FF9080C2E0FCA3E065
:101B6B00F5828C83EFF0811D9080BFE064FE704B9B
:101B7B009080BA1205259080C2E9F0E4F5E5C2C069
:101B8B009080C1E070119080C0E0FF9080C2E0F8BF
:101B9B00EFF2E004F08005E49080C1F030C0FD90DE
:101BAB0080C0E5E5F09080BDE014F070CE9080C071
:101BBB00E0FF9080C2E0F8EFF280579080BA1205F8
:101BCB00259080C2120545E4F5E5C2C09080C1E0C6
:101BDB00701B9080C0E0FF9080C2120525EF1204AD
:101BEB00449080C3E475F0011204DF8005E490801B
:101BFB00C1F030C0FD9080C0E5E5F09080BDE014F1
:101C0B00F070C49080C0E0FF9080C2120525EF12E7
:101C1B000444D2919080B9E0FE9080BEE0FDEDFFD0
:101C2B00227F039142EF2402FF227F179142EF5450
:101C3B0001FF22EFF07F06C2918FE5C2C030C0FDDD
:101C4B00AFE5E4F5E5C2C030C0FDAFE5D29122901F
:101C5B0080B4EFF07F0291429080B5EFF07F01915D
:101C6B00429080B6EFF09080B4E0FF24FA50062447
:101C7B0007601B80207401A807088002C333D8FCBF
:101C8B00F4FD9080B5E05DF0A3E05DF08007E4909B
:101C9B0080B5F0A3F09080B591AE9080B6E0FD7F5B
:101CAB00018004E0FD7F02C291EF2420F5E5C2C064
:101CBB0030C0FDAFE5AE058EE5C2C030C0FD9081F2
:101CCB00BFE5E5F0D291229080B4EFF0A3EDF07F69
:101CDB000291429080B6EFF07F0191429080B7EF76
:101CEB00F09080B4E0FF24FA50062407603C805348
:101CFB007401A807088002C333D8FCFD9080B6E0BE
:101D0B004DF09080B5E060089080B7E04DF08033E7
:101D1B009080B4E0FF7401A807088002C333D8FC9D
:101D2B00F4FF9080B7E05FF080199080B6743FF0BD
:101D3B009080B5E060089080B7743FF08005E49028
:101D4B0080B7F09080B691AE9080B7E0FD7F0181B7
:101D5B00B29081BCEFF0E4FF91429081BDEFF09027
:101D6B0081BCE0B40107A3E04402F080079081BD81
:101D7B00E054FDF09081BDE0FDE4FF81B2B191EF45
:101D8B00540EC313FF22C2917FFFB19AD291228FBF
:101D9B00E5C2C030C0FDAFE5227D707F0791B2EF89
:101DAB0054709080C6F0E0FFC0077F079142EF545C
:101DBB000FFED0E04EFF9080C6F022908145A3E04D
:101DCB00FF9080AE913E9080AFEFF09080AEE054EC
:101DDB000325E0FFA3E054F94FF0E0FD7F0681B24D
:101DEB00C2B9C2BDC2ADD20BD292B1A4EF30E60CD8
:101DFB00D204D114EF24FF9205122AFEC20BA20CBF
:101E0B009292D2B9D2BDD2AD227F099142EF540149
:101E1B00FF229080B4EFF0E4FF91429080B5EFF099
:101E2B009080B4E0B40107A3E04401F080079080F8
:101E3B00B5E054FEF09080B5E0FDE4FF81B29080F8
:101E4B008FEFF07F1D9142908090EFF090808FE0AC
:101E5B007F0060027F01EF540125E0FF908090E04E
:101E6B0054FD4FF0E0FD7F1D81B290808FEFF07F2E
:101E7B001D9142908090EFF090808FE07F00600288
:101E8B007F01EF540125E025E0FF908090E054FBAB
:101E9B004FF0E0FD7F1D81B290808F913E9080903E
:101EAB00EFF090808FE0600C24FE7015908090E036
:101EBB0044208006908090E054DFF0E054F7F080EF
:101ECB000B908090E054DFF0E04408F0908090E0BD
:101EDB00FD7F0681B290808FEFF0E4FF91429080FE
:101EEB0090EFF090808FE014601014601A24027051
:101EFB0021908090E054F7F08018908090E0440897
:101F0B00F0E054FBF0800B908090E04408F0E0444C
:101F1B0004F0908090E0FDE4FF81B2C2917FE2B1CA
:101F2B009AD29122C2917FE1B19AD29122121634A8
:101F3B00F12F02003D9080AE1205459080B1EDF07F
:101F4B001215B3F1389080AE1205259080B1E0FDEB
:101F5B00A3E09080B7F0F17C0214A87D707F07910D
:101F6B00B2EF5470FF227F179142EFC4135401FF5D
:101F7B00229080B31205459080B6EDF0121634E036
:101F8B00FF600AD394205005F171EF600612003DFB
:101F9B007F00229080B7E0FF9080B31205259080E0
:101FAB00B6E09080BCF0F1B912003D7F0122EF4406
:101FBB00A8FF9080BCE09080C1F09080BE120545D8
:101FCB009080BEE0FDC2918FE5C2C0ED7029120575
:101FDB00259080C3E9F09080C3E0F8E6FEE004F0C2
:101FEB0030C0FD9080C2E5E5F08EE5C2C09080C1A7
:101FFB00E014F070E101ABED6401703E9080BE1215
:10200B000525AB019080C3EAF0A3EBF09080C3E011
:10201B00FEA3E0F5828E83E0FE9080C3E475F001B1
:10202B001204DF30C0FD9080C2E5E5F08EE5C2C042
:10203B009080C1E014F070D48066ED64FE702C903B
:10204B0080BE1205259080C3E9F09080C3E0F8E2D2
:10205B00FEE004F030C0FD9080C2E5E5F08EE5C2F5
:10206B00C09080C1E014F070E180359080BE120505
:10207B00259080C31205459080C31205251203CB12
:10208B00FE9080C4E475F0011204DF30C0FD908037
:10209B00C2E5E5F08EE5C2C09080C1E014F070D7C8
:1020AB0030C0FD9080C2E5E5F0D2912290FFFD1289
:1020BB000605120545E4908059F07F6090000602FA
:1020CB00060590FFFD120605120545E490805AF0B7
:1020DB007F6090000602060590FFFD1206051205B3
:1020EB0045E490805BF07F6090000602060590FF50
:1020FB00FD120605120545E490805CF07F609000B0
:10210B000602060590FFFD120605120545E49080B8
:10211B005DF07F6090000602060590FFFD1206053C
:10212B001205459080027401F090000312062912EB
:10213B0005251203CBFF7E008508838509821205D6
:10214B002578237C807D011206F27FFF900006022A
:10215B00060590FFFD1206051205459080027401DD
:10216B00F09000031206291205251203CBFF7E0007
:10217B0085088385098212052578237C807D0112D1
:10218B0006F27FFF90000602060590FFFD12060582
:10219B001205459080027401F0900003120629127B
:1021AB0005251203CBFF7E00850883850982120566
:1021BB002578237C807D011206F27FFF90000602BA
:1021CB00060590FFFD12060512054590800274016D
:1021DB00F09000031206291205251203CBFF7E0097
:1021EB0085088385098212052578237C807D011261
:1021FB0006F27FFF90000602060590FFFD12060512
:10220B001205459080027401F0900003120629120A
:10221B0005251203CBFF7E008508838509821205F5
:10222B002578237C807D011206F27FFF9000060249
:10223B00060590FFFD12060512054590FFFF1206DD
:10224B0005850883850982A3120525C003C002C03A
:10225B000190000412062912052590808D12054568
:10226B009000071206291205259080901205457BD8
:10227B0001850883850982A982AA83908093120520
:10228B0045D001D002D003910ABF010A850883858E
:10229B000982E0FF805E850883850982A3120525EC
:1022AB009000011203E4640970481203CB30E5423D
:1022BB009000021203E46403703890C6C0E064849B
:1022CB007030A3E06457702AC2AFFF71667D02E4E1
:1022DB00FFFE71057D787F017E007105E4FD7F02B5
:1022EB00FE710590C7D6E04408F07F0A7E00712C82
:1022FB0080FE7F0090000A020605A98E758E01A252
:10230B00AF92D5C2AF75FAAA75FA55D2FD8F828EF0
:10231B0083EDF020FCFDC2FDA2D592AFAF018F8EF5
:10232B00229081BAEEF0FCA3EFF0FD7F08AB07EC37
:10233B00F5ABEDF5ACAF038FAD22AE078D828C8381
:10234B00E4FDFC7F0B7138C2C5EEFD7F097138AE21
:10235B0083AF82AD07AC067F0A80D2AE8E758E013D
:10236B00A2AF92D5C2AF75FAAA75FA55D2FD8FFA04
:10237B0020FCFDC2FDA2D592AFAF068F8E229080BE
:10238B008FEEF0A3EFF0FDAC06E4120311E4FBFAC1
:10239B0079807840120166E4FBFA794078401202AA
:1023AB006FA804A905AA06AB077F807EFF7D7F7C03
:1023BB004712007112034A8ECB8FCA8ECD8FCC90F1
:1023CB00808FE0FCA3E0FDE4120311E4FBFA79FA41
:1023DB0078461201667B007A247974784912026F71
:1023EB00E4FBFAF9783F12007512034A90808FEEE6
:1023FB00F0A3EFF024FFFDEE34FFFCE4FF6145900A
:10240B00808A120545E4908096F090809312052502
:10241B00E412044490808A1205259000011203E413
:10242B006406600281FF9000021203E424DF606EF9
:10243B00146002C16C9080967401F090811AE06078
:10244B0002A17490808A1205259000041203E47592
:10245B00F007900B6812051912054EC003C002C09D
:10246B000190808D12052512055A90808A12052540
:10247B009000041203E475F007900B6B120519E43E
:10248B0093FF9000051203E4FEEFC39E50028002FF
:10249B00AF06908090120525EF120444A174908032
:1024AB00967401F090811AE0702790808A120525AE
:1024BB009000041203E475F007900B6512051912D6
:1024CB00054EC003C002C00190808D120525120578
:1024DB005A90808A1205259000051203E4FF7409B7
:1024EB00C39F50047F098000908090120525EF1246
:1024FB000444807590808A1205251203CB20E502D7
:10250B00C16C9000011203E424FE60481460642443
:10251B00FA7002C13414604B147002A1DE240A60FD
:10252B0002C16C9080967401F0E490815DF0908113
:10253B005CF07B017A81795CC003C002C0019080A2
:10254B008D12052512055A908090120525740312E1
:10255B00044480159080967401F0908093120525A9
:10256B00E4C1529080967401F0908093120525740B
:10257B0004C1529080967401F090808A12052590C8
:10258B0000041203E4FF74017E00A807088005C352
:10259B0033CE33CED8F9FF90817CE0FDEF5D7F0029
:1025AB0060027F0190815CEFF07B017A81795CC0E6
:1025BB0003C002C00190808D12052512055A908030
:1025CB009012052574011204449080931205257412
:1025DB000480749080967401F090808A1205259087
:1025EB0000031203E4B4011A90817CE0FF90000415
:1025FB001203E4FE7401A806088002C333D8FC4F13
:10260B00801990817CE0FF9000041203E4FE7401BA
:10261B00A806088002C333D8FCF45F90817CF0904D
:10262B0080931205257405801E90808A12052590D3
:10263B0000021203E4FFB403139080967401F09030
:10264B00809312052574051204448015EFB4021112
:10265B0090809312052574051204449080967401A2
:10266B00F0908096E0FF22C0E0C0F0C083C082C033
:10267B0085C084C0925392FEC0D075D000C000C0FC
:10268B0001C002C003C004C005C006C007C2C6908B
:10269B008057E0704390806275F0011204DF9080E8
:1026AB0060E475F0011204DF908064E475F00112B0
:1026BB0004DF908066E475F0011204DF908068E41B
:1026CB0075F0011204DF908000E0600A908043E413
:1026DB0075F0011204DFF104D007D006D005D00449
:1026EB00D003D002D001D000D0D0D092D084D085EE
:1026FB00D082D083D0F0D0E032C2B9C2BDC2AD120D
:10270B002A7C90815BE064026002E1C4122AE37EC2
:10271B00009081B8EEF0A3EFF0D20BD29290811F14
:10272B00E06F7001E46029C290A20B9292C20C90F0
:10273B0081B8A3E02420F582E43481F583E0FFF136
:10274B00D1D292D290D20C9081B8A3E090811FF09D
:10275B00122B169081B8EEF0A3EFF0122B16EF4E62
:10276B00700F7F01121649D206D292D290D20C80F2
:10277B000FC290A20B9292C20CC206E4FF12164932
:10278B0090811DE475F0011204DF908139E0FEA306
:10279B00E0FF9081B8EEF0A3EFF0D39400EE94003D
:1027AB0040179081B8E0FEA3E0FF90811EE09F9060
:1027BB00811DE09E4003122A4BC20BA20C9292D2B7
:1027CB00B9D2BDD2AD22EF547FFF9081BEE05480D1
:1027DB004FF0E0FD7F05021CB2C0E0C0F0C083C02B
:1027EB0082C085C084C0925392FEC0D075D000C009
:1027FB0000C001C002C003C004C005C006C00790E2
:10280B008057E0B40103122704D007D006D005D0BF
:10281B0004D003D002D001D000D0D0D092D084D03D
:10282B0085D082D083D0F0D0E032D2B9758E02E45D
:10283B00F5B5C29075E61075C810D2C82290812AE2
:10284B00E0FF2290808E1205457BFF7A00790EE423
:10285B00FF310F90808E120525E94A4B6054E490AE
:10286B008091F090808E120525908091E0FFF5828B
:10287B007583001203E4FE74962FF582E43480F521
:10288B0083EEF0908091E004F0E0B404D690809158
:10289B007401F0908091E0FFC394065015908095E1
:1028AB00EFF07B017A807995310F908091E004F005
:1028BB0080E111489080A0EFF07B017A80799690AF
:1028CB00809D1205457A80799231451148AD077B81
:1028DB00017A807992121634E490811FF090812A4C
:1028EB00EDF0E0FF7E0078207C817D011206F290F6
:1028FB00811FE02420F582E43481F583E0FF122769
:10290B00D102003D90809AEFF0A3120545121634C8
:10291B00D201D20290809AE07011784D7C817D01BA
:10292B00A31205257E007F051206F290809AE0FF28
:10293B00A312052512166702003D90809A120545D9
:10294B009080A0E0FF744E8FF084FF740212044459
:10295B009080A0E024FFFDE434FFFC90809A1205E8
:10296B00258D828C83744F1204567E019080A0E0DB
:10297B00FDEEC39D502E90809D120525EE5403F560
:10298B00827583001203E48FF084ADF0EF8EF0A418
:10299B002DFD90809A1205258E82758300ED120411
:1029AB00560E80C87E019080A0E0FFEEC39F503D85
:1029BB00EE24FFFDE434FFFC90809A1205258D82F6
:1029CB008C831203E4FF8E827583001203E4C39F92
:1029DB00FFC394055014C374059FFF90809A120592
:1029EB00258E82758300EF1204110E80B922121608
:1029FB003430041F908154E0FFD39400400E7426B2
:102A0B002FF582E43481F583E0FE8009121D88AE38
:102A1B000780027EFF12003DAF0622A205E433FFC2
:102A2B0022AE071FEED3940040157C007D2DED1DCB
:102A3B00AA0470011CD39400EA940040E480EF22B6
:102A4B00C290A20B9292C20C90815BE0B402047F05
:102A5B000F512C908147E07004A3E064017003FFD9
:102A6B0080027F01121649C206C209E490815BF015
:102A7B0022D390815AE09400908159E09400400752
:102A8B0074FFF5F01204DF908124E02401FF9081A4
:102A9B0023E03400FE90813BE0FCA3E0FD12048AAE
:102AAB00908123ECF0A3EDF0908135E07002A3E070
:102ABB00600A908123E07002A3E0701B908155E0C7
:102ACB002401FFE433FE90812AE0FD7C0012048A8E
:102ADB00AF05908155EDF022D390815AE094009090
:102AEB008159E094004006908158E0FF2290815577
:102AFB00E0FF22908141E0FFA3E0908159CFF0A34A
:102B0B00EFF090811FE0908158F022908135E070BA
:102B1B0002A3E0600FD390815AE09400908159E0BA
:102B2B0094004004E4FEFF22908123E07002A3E0B6
:102B3B007003FEFF22908133E0FEA3E0FF7C027D59
:102B4B00D612047890813DE0FCA3E0FD12048AAB21
:102B5B0007AA0690812AE0FF7E00AD03AC021204A7
:102B6B0078D3908124E09F908123E09E5016E0FE65
:102B7B00A3E0FF12048AC3EB9DFFEA9CCF24FFCF97
:102B8B0034FFFE22908123E0FEA3E0FFC390813C43
:102B9B00E09FFF90813BE09EFE22C0E0C0F0C0832F
:102BAB00C082C085C084C0925392FEC0D075D00045
:102BBB00C000C001C002C003C004C005C006C007EE
:102BCB00121DEBD007D006D005D004D003D002D015
:102BDB0001D000D0D0D092D084D085D082D083D0F9
:102BEB00F0D0E0329080AE1205459080B1EDF07FD1
:102BFB000B7E00A2FBE433A3F0D2FBE4FD9080B18B
:102C0B00E0FCEDC39C501CEF2DF582E43EF583E018
:102C1B00FC9080AE1205258D82758300EC12045654
:102C2B000D80DA9080B2E024FF92FB229080AB12F1
:102C3B000545784276227B007A0079437D0471EF5B
:102C4B00780EE6FFC454017847F6EFC4135401081D
:102C5B00F6780EE6FFC4131354017849F6EFC4134C
:102C6B001313540108F6780EE6540F794BF77B00DB
:102C7B007A0079429080B27401F07D0A021F409075
:102C8B008192E0FF2290808B1205457BFF7A0C79B5
:102C9B00299080F612054590811AE0700C7BFF7A23
:102CAB000C79719080F91205457BFF7A0D799E9016
:102CBB0080FC1205459080FF7404F0A314F0A374FC
:102CCB0009F0A37404F09081067402F0E490810380
:102CDB00F0908119F0908104F0A3F090808B120595
:102CEB002590810712054590808E12052590810A4B
:102CFB0012054590809112052590810D1205459086
:102D0B008094120525908110120545EF601590C730
:102D1B00D6E04408F07F327E0012197690C7D6E0D9
:102D2B0054F7F0D2BBD2BC90C7AE741DF090C7ACB9
:102D3B007401F090C7A9741FF090C7AD7401F090A7
:102D4B00C7AA741FF090C7817410F0A37420F0A36E
:102D5B007430F0A37440F0A37450F090C78874C023
:102D6B00F0A37410F0A37420F0A37430F0A374409C
:102D7B00F0A37450F090C7DE7401F0A3F0E4A3F05D
:102D8B00A3F022EF547F1425E0FEEF30E70BEE7E2D
:102D9B000024B6F9EE34C7800BAF067E0074C62F45
:102DAB00F9EE34C7AF019080CFF0A3EFF0ED908038
:102DBB00CFB4010CE0FEA3E0F5828E837401F02208
:102DCB00E0FEA3E0F5828E83E4F02290C7E8E0906A
:102DDB008113F090C7E9E0908114F090C7EAE0907E
:102DEB008116F090C7EBE0908115F090C7ECE09066
:102DFB008117F090C7EEE0908118F090C7EFE0D309
:102E0B009400400690811874FFF0908113E0546099
:102E1B006002E102A3E01205D92E43002E46012EDB
:102E2B0046032E93052E40062E9F082EBC092EF12D
:102E3B000A00002F0002311502304D908113E0245F
:102E4B00FE60232402703F908116E0B4011690813E
:102E5B0014E0908103B40106E054FDF08068E04477
:102E6B0002F08062E120908116E07018908114E0EE
:102E7B00908117B40106E0FFE4FD8004E0FF7D01C3
:102E8B00B18E8042E120E1209081067403F0E49042
:102E9B008104F022908106E024FC600E047010E4A3
:102EAB0090C700F090C7B504F022908104803A805F
:102EBB0064908116E01460150470299081067403E8
:102ECB00F0E4908104F090C7B47402F02290810674
:102EDB007404F0908103E04401F0A37401F090C7F7
:102EEB00B404F022802F908105E090C700F090C7CA
:102EFB00B57401F022801E908113E0FF5460FEBE7A
:102F0B002013908118E0600BEF20E70790C7C57482
:102F1B00FFF022800790C7B47411F0227B017A80F6
:102F2B0079D290FFFD1206051205457B017A807957
:102F3B00CF90FFFD1206051205457B017A817913AF
:102F4B00C003C002C00190810712052589828A83C4
:102F5B00D001D002D003120603EF14602914602DA8
:102F6B0014603724FE601F04702A9080CF12052551
:102F7B009080D2E0FF908118E0FEC39FAD07500216
:102F8B00AD06F1A6803790C7B47402F02290C7C586
:102F9B0074FFF02290C7B47411F0229080D3120505
:102FAB00459080D6EDF09080F61205259000071223
:102FBB0003E49080D7F022908106E0FF229080D628
:102FCB00E0FD7021908119E0B4010890C7B4E04492
:102FDB0010F0229081197401F0E490C7B5F090C7FE
:102FEB00B47402F0229080D7E0FFEDC39F5007909E
:102FFB0080D6E0FF8000E4FEEEC39F501E9080D38E
:10300B001205258E827583001203E4FD74002EF5E4
:10301B0082E434C7F583EDF00E80DD9080D7E0FEBF
:10302B00EFC39E50069081197401F090C7B5EFF075
:10303B00FD9080D4E48DF01204DF9080D6E0C39F26
:10304B00F022908106E0FF64037021908117E0600D
:10305B0002210E9080F91205259000071203E4540B
:10306B0040C41313540390C701F02101EF640460B3
:10307B0002210E90C701F0908113E0247F60381479
:10308B0060382402707B908103E030E10890C70028
:10309B007402F08005E490C700F090C700E0FF9049
:1030AB0080F91205259000071203E45440C4131352
:1030BB005403FEEF4E803FE4803C908117E030E7F5
:1030CB000D547F75F002A424B4F974C7800F90815E
:1030DB0017E0547F75F002A424C4F974C735F0AF20
:1030EB00019080CFF0A3EFF09080CFE0FEA3E0F54E
:1030FB00828E83E0540190C700F090C7B57402F044
:10310B0022800090C7B47411F022908115E024FE48
:10311B00602514604324FA400221DD24086002215B
:10312B00E49080F6120525908118E0FFC394127D80
:10313B00125002AD07803C90811AE0600221DA90B8
:10314B0080F9120525908118E0FFC394497D495001
:10315B0002AD07122FA68077908116E0FC70197BC9
:10316B00017A8079FF908118E0FFC394047D0450AD
:10317B0002AD07122FA68057EC14C3940650539040
:10318B0080FC120525908116E0FF75F00390FFFD82
:10319B001205191205A9C003C002C0019080FC12D0
:1031AB000525EF1475F003A4F58285F0831205A9AC
:1031BB001203CBFF908118E0FEC39F5004AD068035
:1031CB00051203CBFFFDD001D002D003122FA602B4
:1031DB002FC890C7B47411F022022F27E4FD908101
:1031EB0003E054FBF0908106E0B40408908103E007
:1031FB0030E1010D9081067405F0908110120525C8
:10320B00E94A4B600FAF0590811012052589828A20
:10321B008312060322C0E0C0F0C083C082C085C009
:10322B0084C0925392FEC0D075D000C000C001C0C4
:10323B0002C003C004C005C006C00790C7A8E012B7
:10324B0005D9328400328F0432970832B60C32C063
:10325B001032CA1832D51C32E520338B2432E528C4
:10326B00338B2C32E530338B3432E538338B3C32B5
:10327B00E540338B440000345290C7AB7401F0121D
:10328B002DD6815290C7AB7402F0815290C7AB74AC
:10329B0004F07B007A0079009080D3120545908072
:1032AB00D6E4F0A3F0908119F0815290C7AB74086B
:1032BB00F031E7815290C7AB7410F091738152904B
:1032CB00C7A97401F0122FC8815290C7AA7401F0DC
:1032DB009080D6E4F0122F27815290C7A8E024E803
:1032EB00131313541F9080C7F0E0FF7401A8070855
:1032FB008002C333D8FC90C7A9F0EF547F75F0025E
:10330B00A424B4F974C735F0AF019080C9F0A3EFD2
:10331B00F09080C7E0547F75F080A4FFC374009FCA
:10332B00F974C795F0AF019080CBF0A3EFF09080CC
:10333B00C7E0547F75F002A424B5F974C735F0AF1C
:10334B00019080CDF0A3EFF09080CDE0FEA3E0AA3A
:10335B0006F97B0190FFFD1206051205459080CB07
:10336B00E0FEA3E0AA06F97B01C003C002C00190F6
:10337B0080C7E075F003A424D5F582E43480812B5B
:10338B0090C7A8E024E4131313541F9080C7F0E0F8
:10339B00FF7401A807088002C333D8FC90C7AAF0BA
:1033AB00EF547F75F002A424C4F974C735F0AF0154
:1033BB009080C9F0A3EFF09080C7E075F080A4FF78
:1033CB00C374C09FF974C695F0AF019080CBF0A386
:1033DB00EFF09080C7E075F002A424C5F974C735EF
:1033EB00F0AF019080CDF0A3EFF09080CDE0FEA385
:1033FB00E0AA06F97B0190FFFD1206051205459028
:10340B0080CBE0FEA3E0AA06F97B01C003C002C09B
:10341B00019080C7E075F003A424E4F582E43480C6
:10342B00F58312052589828A83D001D002D003123D
:10343B0006039080C8EFF0A3E0FCA3E0FD9080CDE5
:10344B00E0FAA3E0FB9199D007D006D005D004D0C9
:10345B0003D002D001D000D0D0D092D084D085D070
:10346B0082D083D0F0D0E0329081067402F0E490E9
:10347B008104F0A3F0908103F090810A120525E9F5
:10348B004A4B600990810A1205251205FF22A907F4
:10349B008B828A83E9B4FF0474FFF022E930E708DA
:1034AB008D828C837401F022E95460FFBF60088D1C
:1034BB00828C837402F022E97002F022E9F022C0C0
:1034CB00E0C0F0C083C082C085C084C0925392FE1E
:1034DB00C0D075D000C000C001C002C003C004C082
:1034EB0005C006C00790C7D6E030E7297480F0907E
:1034FB008103E030E12690C7D6E04402F00000E003
:10350B0054FD4401F07F077E0012197690C7D6E078
:10351B0054FEF08007908103E04404F0908103E0B7
:10352B0090810630E0057404F080037402F0908102
:10353B000D1205251205FFD007D006D005D004D0FB
:10354B0003D002D001D000D0D0D092D084D085D07F
:10355B0082D083D0F0D0E032EF24FE5403FF908072
:10356B008FE054FC4FF0E0FD7F03021CB2EF543FA1
:0B357B0090808FF0E0FD7F1C021CB26E
:00000001FF
