:020000040003F7
:10C00000383C0020E9F1030003F2030005F20300CD
:10C010000000000000000000000000000000000020
:10C02000000000000000000000000000D5C0030078
:10C03000000000000000000009F203000BF2030002
:10C040000DF203000DF203000DF203000DF20300E8
:10C050000DF20300000000000DF203000DF20300DA
:10C060000DF203000DF203000DF203000DF20300C8
:10C070000DF203000DF203000DF203000DF20300B8
:10C080000DF203000DD703000DF203000DF20300C3
:10C0900029D703000DF20300D3F003000DF20300D3
:10C0A0000DF203000DF2030000000000000000008C
:10C0B0000000000000000000000000000000000080
:10C0C0000348854603F076F90048004795C203000F
:10C0D000383C00200648704502D1EFF3098101E0A9
:10C0E000EFF30881886902380078024A104700009F
:10C0F000FDFFFFFF6DC10300401E00BF00BF00BF7A
:10C1000000BF00BF00BF00BF00BF00BF00BF00BF37
:10C1100000BFF1D170470000401E00BF00BF00BF4C
:10C1200000BF00BF00BF00BF00BF00BF00BF00BF17
:10C1300000BFF1D170470000056885F308884068AA
:10C14000FF2464B2EFF30585002D01D1A646004718
:10C150002546064621273FBAF0B4002400250026D4
:10C160000027F0B4F92040B20047000010B50C469B
:10C17000002802D00120086010BD2168002911D0DC
:10C180001E48421A814212D03C2A0DD201223C3074
:10C190003C310B7803701346521C401E491E3C2B49
:10C1A000F7D904E00E200BE03C2203F0C7F8002290
:10C1B0003C21124801F0BEFE1049891E0880002073
:10C1C000206010BD70B505000BD000223C210B484B
:10C1D00001F0B0FE094CA41E2188884203D00B2038
:10C1E00070BD0E2070BD3C220449284603F0A6F81D
:10C1F0002088401C2080002070BD0000821F00208D
:10C200000A4610B50146754801F0A4F810BD10B5F6
:10C2100000F0F0FF10BD30B571498BB00A1D3CCA6B
:10C22000059206AA38C209680991002805D005A818
:10C2300018DF002801D001F098F80F20800313DFE9
:10C24000002801D001F091F8664B4822664909A800
:10C2500002F011FF002801D001F087F801216A46A1
:10C26000084602F044FF002801D001F07EF80120CA
:10C2700069460873684602F053FF002801D001F0B8
:10C2800074F85A4802F01DFF002801D001F06DF843
:10C290000BB030BD1CB55648C1690026B12950D03D
:10C2A000002407250827012228460096002311466E
:10C2B000019600F076F86D1CBD42F4D9FF204D4D7B
:10C2C0008130A8604C480F2140698903884202D020
:10C2D000002001F04AF801200007006901218902CD
:10C2E000884202D0002001F040F8444B444A052126
:10C2F000002001F01DFA002801D001F036F80323D8
:10C300000022142011460096019300F04AF801F033
:10C3100061FD01F0A1FD0126002815D001F0ABFD63
:10C32000002801D001F021F820467040FFF773FF8C
:10C3300000F047F801F0BFFD00280AD001F015F821
:10C3400007E00124C661ACE70120FFF764FF00F0BD
:10C3500038F803263603002C04D1B06801F097FCAE
:10C36000002809D1FF240134EC6001F045FD0028CC
:10C3700001D000F0FAFFAC60B06801F088FC002842
:10C3800006D001F069FD002802D1B06801F040FD3F
:10C39000BFF34F8F1C491B48C860BFF34F8F00BFCE
:10C3A000FDE730B552000A439900039C0A4321027D
:10C3B000049D0A4329040A4314498000401802607E
:10C3C00030BD094A10B548321421082001F018F890
:10C3D000002801D000F0C9FF10BD0000EFBEADDEA7
:10C3E00010F40300D7F10300A02E00200FC20300B9
:10C3F000000500400005005000100010BBDB0300EA
:10C40000D82C00200400FA0500ED00E000070050E1
:10C41000FFB583B0074600200C9C8646268805465B
:10C420003AE07868A90042181188684681805188EE
:10C43000C1800022694601A865DF002839D168461D
:10C4400001780598814226D17046002801D000224B
:10C4500000E002222088891842180D998A4227D8C4
:10C46000714600290AD1401C80B22080069A0499A6
:10C4700011542088401C208001208646218806987F
:10C480000A18694601A865DF002812D1694620888C
:10C490000978401820806D1C3888A842C1DC70469D
:10C4A00000280AD02088801B401E80B2FF2802D9B5
:10C4B0000C2007B0F0BD069988550020F9E7FFB5BC
:10C4C00083B016460C9D0D9C1F46022200950194D8
:10C4D0000398FFF79DFF0028EBD13B461022314621
:10C4E000009501940398FFF793FFE2E7F7B584B056
:10C4F0000025168807461580406B1446002813D087
:10C5000003780598032E51D302210170218811224E
:10C51000491C89B2218042542188491C89B221805A
:10C5200043542088401C2080386B00281DD00546CD
:10C530002088059902461232B24237D811220A5495
:10C5400020881022401C80B220800A542088401C81
:10C5500020800F202A5C2388401ECA54228840B2C3
:10C56000521C22800028F5DA00253846203002903F
:10C57000807B002806D033462246059900F0F9F862
:10C58000050096D10298407B002806D0324621460D
:10C59000059800F018F905008BD1B878002822D052
:10C5A000059886462088001DB04201D90C2080E7FE
:10C5B000684679DF0028FAD121880320724650545A
:10C5C00020881921401C80B2208011542088714697
:10C5D000401C80B2208041186846008800F0C4F8F2
:10C5E000218840182080F878002817D0218803235C
:10C5F0000A46FB56C91C0598B142D7D8022181547E
:10C6000021880122491C89B2218042542188491C79
:10C6100089B2218043542088401C208078680028FB
:10C6200017D021880023C3560A46C91C0598B14279
:10C63000BCD80221815421880A22491C89B2218058
:10C6400042542188491C89B2218043542088401CCF
:10C650002080388900280AD00094384601960622A6
:10C6600002210830059BFFF72AFF05009FD1388A79
:10C6700000280AD000943846019607220321103082
:10C68000059BFFF71CFF050091D1388B00280AD0CD
:10C69000009438460196152214211830059BFFF7A7
:10C6A0000EFF050087D1386A002806D0334622469F
:10C6B000059900F006F90500D8D1786A002806D05F
:10C6C00033462246059900F03DF90500CED1029887
:10C6D000007B002807D0334622463846059900F0F3
:10C6E00065F90500C2D13878002807D033462246C4
:10C6F0003846059900F096F80500B7D12846D8E6E7
:10C70000F0B50C4693B01F216A461180072600271A
:10C710009180002809D0C17849070DD502A9FFF7FB
:10C72000E5FE002809D102AD01E000251780002CAC
:10C730000ED0E078002802D0304613B0F0BD01AA38
:10C740000AA92046FFF7D2FE0028F6D10AAA02E085
:10C7500068460022878068468088C3B268460088A1
:10C76000C1B2284672DFE8E70870000A487002206C
:10C77000704730B51588EC1C9C4201D90C2030BDA7
:10C7800002244C5513881C255B1C9BB21380CD548E
:10C7900013885B1C9BB21380012807D0022807D0A6
:10C7A000032807D0042807D0072030BD002004E06C
:10C7B000012002E0CC5401E00320C8541088401C42
:10C7C0001080002030BD7CB5054608880C46093035
:10C7D000904201D90C207CBD684671DF0028FAD157
:10C7E00021880820685420881B21401C80B22080AA
:10C7F0002954208800A9401C80B2208040190622BC
:10C80000013102F09BFD20886946801D80B22080A6
:10C810000978002900D0012129542088401C20805B
:10C8200000207CBDF8B50F46017814460546012965
:10C8300002D16878002806D02088821C9A422DD820
:10C84000012902D006E00720F8BD69784118891C4B
:10C85000994223D8181A801E86B26846068021881D
:10C86000B81C081869467DDF0028EDD12878022819
:10C8700005D169460988B14201D809210AE0082199
:10C88000012805D16878B04202D86A46108001E0DC
:10C890006846068068460088FE2801D90C20F8BD4D
:10C8A0002288401CB8542088401C80B22080395413
:10C8B00020886946401C208009884018208000207C
:10C8C000F8BDF8B50646108814468446801D0D460E
:10C8D000984201D90C20F8BD32880720062AFAD3E5
:10C8E0001927FF01554BBA4201D99A42F3D17188F9
:10C8F0000629F0D3B94201D99942ECD19A4203D02A
:10C90000994201D08A42E6D8052160462954208800
:10C910001221401C80B2208029542088401C80B203
:10C92000208041193088FFF71FFF2188401880B20E
:10C93000208041197088FFF717FF21884018208058
:10C940000020F8BD70B5144682880E460546208842
:10C95000111D4118921C994201D8FE2A01D90C20C0
:10C9600070BD521C32542088FF21401C80B22080B0
:10C9700031542088401C80B2208081192888FFF71C
:10C98000F3FE2188401880B22080AA88002A09D0AE
:10C99000A968002908D0801902F0D0FC2088A98855
:10C9A00040182080002070BD072070BDFFB50746ED
:10C9B000806A81B0144600283DD0002538462030DA
:10C9C000009033E00C20B96A68430E18B088801CD0
:10C9D000FE2802D90C2005B0F0BD22880299401C27
:10C9E000885420881622401C80B2208002990A5464
:10C9F0002088401C80B22080029941183088FFF7BF
:10CA0000B3FE2188401880B22080B288002A0AD064
:10CA1000B16800290FD0029BC01802F08FFC20885B
:10CA2000B188401820806D1C0098EDB2007BA842B0
:10CA3000C8D80020CFE70720CDE70000FFFF0000A7
:10CA400038B57949794A488890420FD04A78784C6D
:10CA5000521CD2B24A70237B934208D3091D75DF62
:10CA6000002803D0A169002900D0884738BD0025DF
:10CA70004D70217C002907D03B2176DF002803D0B0
:10CA8000A169002900D0884761690029EED0684675
:10CA90000570884738BD70B5054601461C226448BC
:10CAA00002F04CFC604C002626702968002906D054
:10CAB0000822201D02F042FC201D7ADF02E05A48C5
:10CAC000001D7BDF002807D1401E60806670594A38
:10CAD0000021594800F06CFE70BD10B55648006842
:10CAE00000F0D9FE10BDF8B54F480C3000F08FF8BB
:10CAF00000264D4D4E4C002807D0616900291CD0FE
:10CB000001206A461070684616E02878002805D093
:10CB10006169002911D0684606700DE06878002828
:10CB20000DD0A16844480022006800F07BFE002878
:10CB300003D0A169002900D088472E70F8BD616834
:10CB4000F0E7F8B53A4C02880027374DE689102AFD
:10CB500017D03949112A21D0122A2DD0502A0FD1AD
:10CB6000C288801DB2420BD14289022A08D1427B81
:10CB7000037B10021843C007C00F13D0FFF7B3FFA9
:10CB8000F8BD8188698001462748082218310C3099
:10CB900002F0D4FB6F70002EF0D0F8BD0020C0432F
:10CBA00068806F70086800F076FE0028F5D0A169F3
:10CBB0000029F2D08847F8BD082281181A480C30A5
:10CBC00002F0BCFBDAE7F8B5014617480822001D61
:10CBD00002F0B4FB1448001D7ADF04000DD11248A6
:10CBE0000C3000F014F80125002808D010484169E5
:10CBF000002902D06846057088472046F8BD0A4ED5
:10CC00003570311D708875DF04467570F5E7418811
:10CC10000548001D0288914204D34088814201D812
:10CC20000120704700207047002C0020FFFF00000B
:10CC30005830002041CA030024F4030030B585B009
:10CC4000002822D00388FE4CA34220D0FD4B1B7845
:10CC5000002B1CD0FB4B10255B1C1D705970002451
:10CC600001259A70032269460A8200940194029475
:10CC70000394028A0A808D708C8004A90291039328
:10CC800000886946A6DF05B030BD0E20FBE708200E
:10CC9000F9E7F0B58BB00C460546022168460173F2
:10CCA00001268674228982826289C28220460C30E3
:10CCB00000270690089768460184478407A80990D2
:10CCC000A98A288808AAA5DF002804D0E96A0029D3
:10CCD00019D0884717E06846808BC007C00F12D074
:10CCE00068460782288803A9A8DF002812D1217B83
:10CCF00020460D300B0002F06FFB09420F1C22246E
:10CD00002729402B4200FF20FE30694608822888F0
:10CD100003A9A8DF0BB0F0BD6A4617700BE006222E
:10CD20001BE069460E720190AA6A284690470020CF
:10CD3000F0E76A4616706289022AF2D2EFE7022013
:10CD400000E00320694614E00420FBE70520F9E732
:10CD50006189032905D2032208212846FFF76EFFC7
:10CD6000D8E741780278080210436946888002D0EB
:10CD700006200870D8E70720FBE70920E2E7032236
:10CD8000EBE730B585B00D46040038D0002D36D025
:10CD90006868002833D00020C043AB4B20800FCB05
:10CDA000049301AB07C3A9486946088001A8811E06
:10CDB00063DF002822D1221D69460120A0DF002860
:10CDC0001CD168468078A071204600F0CEF800287B
:10CDD00014D1204600F059F900280FD129462046E9
:10CDE00000F004F9002809D16868A062A86800284A
:10CDF00000D0E062934901200870002043E70E2034
:10CE000041E73EB5002828D0002926D0826A002AB2
:10CE100023D00A88102A21D0112A30D0502A1FD0BE
:10CE2000512A1AD10A460446891D0878022814D1CD
:10CE30004888238A984210D1907B04280DD0062878
:10CE40000BD0052809D02046891CFFF722FF0028B7
:10CE500003D0E16A002900D088473EBD898810E0F0
:10CE6000CB8802899342F8D108226B461A700A7C5B
:10CE70001A7212310191826A694690473EBD0021C3
:10CE8000C94301803EBDF0B585B00A4605002DD0EE
:10CE900028886B4988422BD06A480078002827D020
:10CEA000684C1020641C2070072060700127A77058
:10CEB0000321684601820026E11C104600F04CF870
:10CEC00001466846008A0918684601820096019664
:10CED00002960396298A01808770868004A80394AD
:10CEE000029028886946A6DF05B0F0BD0E20FBE75A
:10CEF0000820F9E7F0B585B00A46050028D0288853
:10CF00004F49884226D04F480078002822D04D4C07
:10CF10001120641C20700127684607820026611CCE
:10CF2000104600F019F801466846008A091868465C
:10CF300001820096019602960396298A01808770E5
:10CF4000868004A80394029028886946A6DFCBE770
:10CF50000E20C9E70820C7E70870020A4A70020CD1
:10CF60008A70000EC8700420704730B58FB0054637
:10CF70001C21684602F0FBF9694608780421084341
:10CF8000694608700024019403940494059406945F
:10CF9000A87908A988702D486946801C0884601CFF
:10CFA00000070794000F0C77103048778A7FF9202C
:10CFB0000240F720921C0240EF2002400120024371
:10CFC0008A77142109A802F0D2F908A8099007A8C5
:10CFD0000A9069468C851420CC8508860D942B46D2
:10CFE000A888083309AAA2DF0FB030BDF0B58FB012
:10CFF0000F4605461C21684602F0B9F968460178DB
:10D000000226314301700024019403940494059492
:10D010000694A97908A881700C496846091D018405
:10D02000601C0107090F6846103107940177002042
:10D03000014668464177817FF9200140F72007E0EB
:10D04000FFFF0000142C002028F40300301500001E
:10D05000891C0140EF20014001200143684681778F
:10D06000142109A802F083F908A8099007A80A90DA
:10D0700068468685C48506860D972B46A88820338A
:10D0800009AA6946A2DF0FB0F0BD30B58FB00546E2
:10D090001C21684602F06BF96946087808210843AC
:10D0A00010221043694608700024019403940494EC
:10D0B00005940694A87908A98870144869460884DC
:10D0C000601C00070794000F0C7710304877887FAA
:10D0D000F9210840F721801C084010430121084332
:10D0E00069468877142109A802F041F908A8099037
:10D0F00007A80A9069468C851720CC8508860D9470
:10D100002B46A888103309AAA2DF6DE7311500006D
:10D1100031B5054C04E0401E00902046FEF7ECFFC0
:10D1200000980028F7D138BDE703000018225043CB
:10D13000864A00218018017181604161032281616A
:10D140000261C160704770B5804C182221780F20B1
:10D1500051430A197E4916795369121D4D68012EF3
:10D160000FD0032E0CD101200007006981B21846B0
:10D1700002F0CEF8401928DF002801D10121A1706A
:10D1800070BDA802556851692D1A091892681818BF
:10D19000101801229202954202D2AA0829DFEBE779
:10D1A000FF22013229DFE7E7F8B5684C069E657873
:10D1B0000A2D1DD027787D19EDB20A2D01D30A3D25
:10D1C000EDB218277D432D192871AA6103C9EE60BD
:10D1D000AB6069612861A1780020002904D1FFF7C4
:10D1E000B2FF112800D100206178491C6170F8BDA0
:10D1F0000420F8BDF8B5554C0022A17801293ED194
:10D200000023A37006462146087818270546784370
:10D210004118022E03D0032E31D10D202CE04C48B2
:10D220004668761C46608968B6028E4214D3436015
:10D230006078401E6070681CC0B220700A2801D35C
:10D240000A3820701820684301191046091D00F0A3
:10D250006DF82846FFF76AFF607800280FD0A078A5
:10D2600000280CD1FFF76FFF002808D0112806D046
:10D270002178182251430919091D00F057F8F8BD0B
:10D2800070B50024324E314874600470447084706C
:10D2900025462846FFF74AFF6D1C0A2DF9D32B4976
:10D2A00034600020F43174608200401C8C500328EC
:10D2B000FAD3002070BD10B5254B1A68032A09D097
:10D2C0000A60224C9100F43400686050521C002027
:10D2D0001A6010BD042010BD06207047F8B507463F
:10D2E0001D4616460C46084600F01AF800280CD0D9
:10D2F000601900F015F8002807D033462246394659
:10D3000001200095FFF750FFF8BD1020F8BD08B5CB
:10D310000B460022014603200092FFF745FF08BD9F
:10D32000800701D0002070470120704738B50C46B7
:10D33000E268064B9200F4339D58097862680092C7
:10D34000024620460C306369A84738BD743000207F
:10D350001C2C00200EB56B461980019202906A4683
:10D3600000211E4800F03EF80EBD0EB500210290CF
:10D3700000916A460191194800F034F80EBD18B5C5
:10D3800001246B461C701B78154B186059609A601D
:10D3900012494942401807D001280FD1DA60D868F5
:10D3A00000889861D86807E01A6118698068586138
:10D3B00018690088986118694068D86118685868C9
:10D3C0009868D868186958699869D86972B66846C3
:10D3D00000780028FBD162B618BD000001400000B3
:10D3E00074310020BFF34F8F04490348C860BFF376
:10D3F0004F8F00BFFDE700000400FA0500ED00E0DC
:10D4000030B5CB0008339DB293070024002B01D028
:10D41000072030BD404B9A605219DA605C701C7076
:10D4200058809980002030BDF7B53B4C82B06088B1
:10D430000E4681423FD800256846384F057000F0FF
:10D44000D4FB22786078A188884201DA401C00E091
:10D450000020C0B2904204D16846007800F0DDFBA5
:10D4600027E065786078884201DA401C00E00020FF
:10D4700060706846007800F0D0FBBD4219D0A0680B
:10D48000EF000499C151029900290CD0002E0AD056
:10D49000608832464543E068281801F04FFFA068D5
:10D4A0003818868002E0002138188180002005B0FD
:10D4B000F0BD0420FBE70920F9E70EB504E068465B
:10D4C0008188029A0098904702AA01A9684600F054
:10D4D00003F80028F3D00EBD70B50F4B05241D785E
:10D4E0005E78AE4215D01D781C789E88B44201DA71
:10D4F000641C00E000241C705C88DE686C43A41986
:10D5000004609B68E800C418A4880C8018580024A4
:10D510001060204670BD0000242C0020FFFF00009A
:10D520008307FF22DB0E9A408907090E99400028E5
:10D530000BDA0007000F08388308F8489B0018181A
:10D54000C36993430B43C36170478308F4489B004E
:10D550001B181868904308431860704770B5012481
:10D56000F04960040860F04940108860EE49403995
:10D570008860EE4D6C602F20FEF7CEFDAC60EC4D68
:10D5800000242F202C61FEF7C7FDEC7070BDF8B5AC
:10D59000E749C8680A690C780F7989688646944615
:10D5A00000913EE00099E20055182A7836E01823F1
:10D5B00053436968521CC918AB78D2B2934200D168
:10D5C00000220B78022B02D0032B27D123E04E68D8
:10D5D0000346014603E0B14204D00B46C969002965
:10D5E0001CD0F8E7002919D08B4208D1C069002867
:10D5F00005D1CE4F0126BE600026B44601270E6835
:10D60000C969D961002909D00B689B190B6005E035
:10D610000174C06900E000210028F9D169789142C5
:10D62000C5D12146641EE4B20029BBD1C04962467F
:10D630000A61C8600F71704501D00120F8BD00205B
:10D64000F8BDF8B50446BA480026C16800910778CD
:10D650004EE0B748F90080680D1843E0002C02D076
:10D660002046E4691FE02878182141436A68401C7D
:10D67000C0B251182870AA78904200D12E700A7852
:10D680004868012A30D1027C002A2DD18A68426084
:10D69000CA6882600A69C26049698161A4490979DE
:10D6A000002900D04660A24943680A699C46991A3D
:10D6B0000902A04B090A994202D28268891807E040
:10D6C0006146511A09028268090A8A4202D9511A2E
:10D6D000016000E006604660012186600174C66159
:10D6E00000F03FF9002CB9D1287869788842BAD186
:10D6F00038467F1EFFB20028ABD18D48C168009824
:10D70000814201D00120F8BD0020F8BD10B58A4942
:10D710000020086048608860C86087494039086018
:10D72000486000F041F910BD10B500F078F910BD67
:10D73000FFB59007002581B014460E46002833D16E
:10D740007B4F002C32D0FFF709FF0498786103204B
:10D75000387033461821224600204B43BC601834F1
:10D76000C10089180D704D708E704C601C19401CE2
:10D770000328F5DBFD607D7001247048BD70240531
:10D78000046003211420FFF7CBFE66488038046054
:10D790006B4C0198A06003211120FFF7C1FE606867
:10D7A0003861002005B0F0BD0720FBE7BD60FBE756
:10D7B0005F4B9B68002B07D0002A07D0002805D0BC
:10D7C0000068037C002B03D00820704707207047B7
:10D7D0004174426100207047EFF30580C005C00D21
:10D7E0001AD0103840B2002808DA0107090F0839AA
:10D7F00089084A4A89008918C96904E08108484AA9
:10D800008900891809688007C00EC1400806800F8A
:10D81000012803D0032803D002207047002070475E
:10D8200001207047FEB50D464149174689680446F8
:10D8300000292AD0002C28D0052D01D20720FEBDBA
:10D840006069002821D0607C012820D00026FFF7E5
:10D85000C3FFC0003649019089684018694600F04E
:10D860001EF9002815D0012101703549446049682E
:10D870000830E2C02E49019889684118684600784E
:10D88000487000F08CF80020FEBD0820FEBD2E463A
:10D89000DDE70420FEBDF8B5254D0446A968002942
:10D8A0001CD0002C1AD06069002817D000262674DE
:10D8B000FFF792FFC700A8686946381800F0EFF834
:10D8C00000280DD0022101704460A868391868460C
:10D8D0000078487000F063F83046F8BD0820F8BDC5
:10D8E0000420F8BDF8B5124CA06800282AD0FFF734
:10D8F00073FFC600A0686946301800F0D0F8002811
:10D9000022D00321017000254560A06831186846C7
:10D910000078487000F043F82846F8BD00ED00E0BC
:10D9200000E400E080E100E040130140001001400D
:10D93000342C0020FFFF7F004011014080E200E016
:10D94000001501400820E8E70420E6E78F49496810
:10D95000016000207047401A0002000A1060002099
:10D96000704710B58A4BD968002906D002680C6848
:10D97000A24204D8A21A0A60C161D86010BD0B4649
:10D9800004E00B46C969121B002904D00C689442BC
:10D99000F7D3A41A0C600260C161D86110BD0120E8
:10D9A0007C49000508607047F8B5794DEC68002C9B
:10D9B000B3D07648002740682969401A0602360A23
:10D9C0002068B04218D8361AC7192246107CE4697C
:10D9D00000280FD0002010746B69002B07D09169CC
:10D9E00050699847002805D0FFF7BFFC02E0516955
:10D9F00090698847002CE3D16978A878814206D1E4
:10DA0000401CC0B2A870022801D10020A870604953
:10DA10000006800D18310F50FFF7C1FF7DE7FEB5FE
:10DA20005B4C00252769E0680290684600F04AF8E0
:10DA30000190FFF7ACFD06460198002822D0002394
:10DA40000098E16817E00E680A46864202D9301A4B
:10DA5000086012E0801BF31800261660D668D169B2
:10DA6000B446002E07D0FE183602360A56606646C7
:10DA70009660D56115460029E5D12846E160FFF79B
:10DA8000E0FD06E02846FFF7DCFD002801D1002E6E
:10DA900002D0029800F033F800202071FEBD4278D9
:10DAA0008378521CD2B2934200D100220378934271
:10DAB00001D1002070470A70416840781822504315
:10DAC0000818704710B5324900234A788C78A24272
:10DAD00012D0521CD2B24A70022A00D14B704A783E
:10DAE0002B4B920018339A580260086910180002F4
:10DAF000000A0861012010BD0360002010BDF8B5C8
:10DB00002348C16800293ED00E6820494C68076947
:10DB1000C078E11B0D022D0AED1C002815D1012053
:10DB20001D4A000450601C4A403A506019494000A8
:10DB300080310860194908601949012008602F20C8
:10DB4000FEF7EAFA12490120C870B54200D2354604
:10DB5000E81900020D4B000A403318600B4A516867
:10DB6000001B091B0902090A0002000AC91C8142A4
:10DB700008D9506818602F20FEF7CEFA0120054919
:10DB800040040860C9E6FFF7E9FCC6E6001501405D
:10DB9000342C002000E200E04013014000E100E0EE
:10DBA0000010014010B50446082902D00020FFF7FC
:10DBB000DCFB21686068884710BD1CB501910090AE
:10DBC000024A08216846FFF72FFC1CBDA5DB0300B5
:10DBD00072B61B480168491C016070471849086803
:10DBE000401E086000D162B6704730B5EFF3108177
:10DBF00072B6144A54680123002C04D00370002923
:10DC000000D162B630BD53600F4B1D680F4C2540EC
:10DC100015601C6000220270F1E70A494A68002A78
:10DC20000DD000280BD1EFF3108072B60A68064BB6
:10DC3000803B1A6000224A60002800D162B670471B
:10DC4000542C0020CC2C002080E100E0FC06FFBC1E
:10DC500010B5AF480378012B03D1012901D102216E
:10DC60000170100001D0FFF780FB10BD10B5A84C6B
:10DC700048DF002801D0FFF778FBFFF71EFC207873
:10DC8000022803D0032801D00428F1D110BD38B5F3
:10DC90000068401C19D00024684600F041F9009843
:10DCA0000178012910D1418800290AD08168032018
:10DCB00000038068002200F03DF900994988814204
:10DCC00001D1012400E00024204638BD10B50446EF
:10DCD0008F481C21001DFFF71AFB002801D0FFF719
:10DCE00044FB8B4800231C222146001DFFF7F6FA57
:10DCF000002801D0FFF739FB10BD0FB4F8B5684616
:10DD000000F00EF96846027E418B0123804CFF250E
:10DD10008048002A12D0012A16D0032A2AD00021D6
:10DD2000022A36D0052A46D0042A4CD0062A01D130
:10DD300004202070F8BC08BC04B018474180099941
:10DD400081600370057110E04180089A0799891875
:10DD5000099A89188160A521017005710799C16030
:10DD60000899426101610A99816123706948FFF74E
:10DD7000ADFFDFE700990A7802704A88428089681F
:10DD80008160AA2101710799C1600899016109990F
:10DD90000BE0009A1678A52E09D0067056884680AA
:10DDA000926882600571C16001614161DDE7418077
:10DDB00081600570F6E700F02BFD002801D0FFF729
:10DDC000D4FA0320B5E74180816005700099097994
:10DDD0000171CBE70EB5504A6B4607CA07C3FFF780
:10DDE0004FFA002807D14A49FF208002091D4860E8
:10DDF0006846FFF760FA0EBD10B500F0BDF90028C7
:10DE000005D100F0D8FE0446FFF730FF204610BDD4
:10DE100070B511DF002801D0FFF7A7FA3F490020B5
:10DE20000A683E4B012180330C468440144204D0E2
:10DE3000C506ED0E0C46AC401C60401C2028F3D3F8
:10DE400003242403A06813DF002801D0FFF78DFA14
:10DE5000A06800F06BF870BD08B5684600F060F887
:10DE600000980178A52904D00079AA2801D00020C3
:10DE700008BD012008BD10B500F080FB002803D1CB
:10DE800000F058FB002815D06420FFF741F900F09E
:10DE9000F4FA002801D0FFF768FA00F06FFB0028C1
:10DEA00001D0FFF762FA00F022FB041E01D0FFF759
:10DEB0005CFA204610BD00B5174987B014220C311A
:10DEC00001A801F03BFA0598009001A80FC8FFF7E0
:10DED00014FFFFF7CBFE002007B000BD38B50446A5
:10DEE000684600F01DF8009800782070009840887F
:10DEF000608000988168A16001792171C168E1604A
:10DF000001692161416961618069A06138BD0000DA
:10DF1000582C00209431002038F4030000E100E088
:10DF2000014901607047000000FC030010B5FEF7D6
:10DF300003F910BD10B50446002A02D01088002253
:10DF400010E00A48FBE7030A00020343A05C5840C4
:10DF500003061B0F43401803584083B21806C00C39
:10DF60005840521C8A42EED310BD0000FFFF000053
:10DF700070B5FB4C1E4660781546012902D0032976
:10DF800016D108E0052813D16369002B10D0324662
:10DF9000294604200BE002280AD1F2484068804755
:10DFA000032060706369002B02D0324629469847EF
:10DFB000280001D0FFF7D9F970BD00B5E84987B056
:10DFC000012008700520694608710598009001A895
:10DFD0000FC8FFF792FE07B000BD10B5E04800780B
:10DFE000002801D0082010BDDF4C2068FFF753FC4B
:10DFF000002801D0FFF7B9F90F2100228904206819
:10E00000FFF710FC041E01D0FFF7AFF9204610BD4A
:10E01000D34910B5D2482031016102214170C16855
:10E020002030FFF774F9002801D0FFF79EF910BDEA
:10E03000CB4910B5CA481831016102214170032053
:10E04000000381680F208003401A4105490D401AE2
:10E050004108C3481830FFF75AF9002801D0FFF7EC
:10E0600084F910BD704700B5BF4987B01422091D5F
:10E0700001A801F063F90598009001A80FC8FFF707
:10E080003CFEA8E7B749002090394A6803210903FC
:10E0900089688A4208D9511A880A80028905890D3F
:10E0A00002D0012189024018704700B587B00121D4
:10E0B00068460171AA4881886846C1800320000330
:10E0C00080680590A7489038416802918168039163
:10E0D000C0680490059800900A46049B0299019834
:10E0E000FFF70BFE002076E730B59E4C9C48903C35
:10E0F00087B02030E168FFF70AF9002801D0FFF768
:10E1000034F99748E2681830416800230830FFF777
:10E11000E5F8050012D1142101A801F028F9002129
:10E12000684601718E4881886846C180E068049025
:10E130000598009001A80FC8FFF7DFFD284607B03B
:10E1400030BD00B587B003216846017184488188DD
:10E150006846C18083489038416802918168039184
:10E16000C0680490059800900A46049B02990198A3
:10E17000FFF7C3FD00202EE7FEB57B4E6B46304611
:10E18000183007C807C3764C0025A5702146A58026
:10E1900020316846FFF78FF8002801D06570FEBD7A
:10E1A00003206F49000380682031486020390A4607
:10E1B000126A8A610F218903091A4A05520D891AC8
:10E1C000490808186649694A1831486000216648BC
:10E1D000FFF7EEFA002801D0FFF7C7F80F21002261
:10E1E00089043068FFF71EFB002801D0FFF7BDF857
:10E1F0000120A56060700020FEBD5949486170474C
:10E2000070B5426857481468536891689038D2686E
:10E2100004604360C26081600078440701D58407D0
:10E2200005D19C0703D18C0701D1940701D00620AA
:10E2300070BD5B189A184A4D0F239B02EA60994201
:10E2400016D84B4B4B49474CC60709D09868081A5B
:10E2500090420DD34848206048486060484812E02A
:10E260009B68C91A4B055B0DC91A4908914201D236
:10E270000C2070BD4349216043496160800701D58E
:10E28000424800E04248A0606878012802D0082691
:10E29000304670BDFFF7A1FE0600FAD12168E8689C
:10E2A0008847F5E770B5050004D0287A800703D0C9
:10E2B000102070BD0E2070BD294C6078032803D05B
:10E2C000042801D0052801D0082070BD6868E168E5
:10E2D0008600A0688019884204D90020C043A0604D
:10E2E0000C2070BDFFF779FE0028FAD1A9683246EC
:10E2F000A3682069FEF7F2FF0028F2D1A16889190E
:10E30000A160E2689142ECD0092070BD10B5144CB8
:10E310000820A168002900D010BD61780429FBD134
:10E320001048A178803800F071F9002802D000214F
:10E33000A17010BD0521617010BDF8B5084C0746ED
:10E340006078032804D0042804D008252846F8BDA6
:10E3500004206070A06800281CD00820F8BD0000D0
:10E36000642C00206032002058F40300BBDF03005F
:10E370000030000000C0030011E0030067E003006C
:10E38000ABE0030031E0030065E0030043E103007C
:10E39000E9E00300FFF721FE0500DFD17868860081
:10E3A000A0788119802901D90920F8BD944AB9685B
:10E3B0001018324600F0C2FFA0788019A070C5E79F
:10E3C00010B5904C6078052813D1E168A0688842A8
:10E3D0000FD106206070FFF700FE002808D12069E9
:10E3E000E168406800F04DF9002801D10721617013
:10E3F00010BD082010BD10B582484078072801D014
:10E40000082010BD80480068FFF745FA002801D0B9
:10E41000FEF7ABFF7A4880308068804710BD00B5BA
:10E4200087B00620694608710598009001A80FC8BA
:10E43000FFF763FCCFE5F8B51C4617460D460646C8
:10E4400000F0C8F8002817D001200003854207D942
:10E450002346291B301B1A46FFF7EDFF00280BD17E
:10E460003A462946304600F0C0F8002804D13A4622
:10E470002946304600F0AEF8F8BDF0B589B06846E0
:10E48000FFF72CFD039800282AD001210903069AE2
:10E490004018904226D9501A45081046039A0C4657
:10E4A0008718024668001618001907900320000319
:10E4B0008068039988420DD261190846042200F051
:10E4C00094F800280CD121460422084600F08DF86B
:10E4D000002805D1BA1B2B4630460799FFF7ABFF42
:10E4E00009B0F0BD039A069800F07FF8F8E700B590
:10E4F0008DB06846FFF7F2FC049800280DD0039811
:10E5000000280CD003990698401808900021049820
:10E5100007918008099007A818DF0DB000BD0320FF
:10E52000000381680F208003401A4205520D801AB3
:10E530004008E9E700B58BB004A8FFF7CFFC0898C6
:10E54000002810D00F210798890300280DD0079AC2
:10E550000A9801918018029003220898009280087E
:10E560000390684618DF0BB000BD032000038268EB
:10E57000881A43055B0DC01A4008EAE730B58FB032
:10E580006846FFF7ABFC0398002814D0012109036B
:10E59000069A4018904214D9501A43081046039A1C
:10E5A0005C0082180019611803242403A468039DE9
:10E5B000AC4202D20E200FB030BD121AFFF73BFF63
:10E5C000F9E703200BAB07C3039880080E900BA854
:10E5D00018DFF0E71FB50323019090080390009324
:10E5E0000291684618DF04B010BD1FB501230190E9
:10E5F0009008039000930291684618DFF3E700004B
:10E60000E0310020642C002058F4030070B5002590
:10E610000C290ED304464318008941000919581AE1
:10E620000A38C2B21E48022A027002D30A318B4253
:10E6300001D2092070BD1B4800F080FE1A481B491A
:10E6400002888A4202D02388934218D140888842A7
:10E6500002D06188814212D1144A0323521E2089BC
:10E660001B03A8420BD9690009194989914204D0BA
:10E670009E896D1CB6B2B142F3D1002070BD0B2053
:10E6800070BD10B50022FFF755FC064A517812788C
:10E6900009021143884201D00B2010BD002010BD9B
:10E6A0008C2C00206C32002080100010FFFF000036
:10E6B00008280CD004DC002807D006280FD108E079
:10E6C0000B280AD00C280AD105E00120704702204F
:10E6D00070470320704704207047042901D00620AA
:10E6E00070470520704770B515460A4603281FD0AD
:10E6F00004281CD1FE4C002906D0E088FD49884240
:10E7000015D0132176DF0EE0284600F00CFC00281F
:10E7100001D0FEF72AFEA069A84208D101220321F8
:10E72000F548FEF78BFA002801D0FEF71EFE70BDFB
:10E7300001211046FFF7BCFF02460121F0E7F0B5CA
:10E740000546087A0E4685B081070AD00322114695
:10E750002846FEF773FA002801D0FEF706FE05B042
:10E76000F0BDE3490090143100F0B6FB010011D177
:10E77000DF4C7168009A606900F0E0FD009800F0DD
:10E7800005FC010006D120466946143000F00AFC61
:10E79000010003D0284600F0C8FAE0E70420019009
:10E7A0000098800802906069039001A8FFF77AFD45
:10E7B00007000BD0092F10D0606900F0B4FB0100F6
:10E7C00002D0284600F0B1FA3946E3E7307A2169F1
:10E7D000401820616069A061C1E7307A2169411861
:10E7E000216160780028BAD06089401E0004000CC6
:10E7F0006081B4D12846FEF77DFB002801D0FEF7EA
:10E80000B4FD20896081AAE710B5FEF7AEFD10BD0A
:10E8100010B5B74C01202070E088B649884206D078
:10E82000132176DF00280FD0FEF79FFD0CE0A078C3
:10E83000002809D074DF002801D0FEF796FD0720DC
:10E8400000F041FA0020A070FEF747F9002801D03F
:10E85000FEF78BFD002010BD70B50D780446012039
:10E86000A34A2B0000F0B8FD0A252A3D06111C51D1
:10E8700056405A10FFF7A4FD0421FFF719FF024686
:10E88000042128E0FEF771FD70BDFFF7C1FF0028ED
:10E8900001D0FEF76AFDFFF7AEFD002806D170BD7E
:10E8A000FFF7B6FF002801D0FEF75FFDFFF7B7FDC9
:10E8B00070BD107148680078507170BD02201071F1
:10E8C000486800780128F8D1FFF720FD0221FFF702
:10E8D000EFFE024602212046FEF7B0F90028D1D112
:10E8E00070BD0320107170BD12792046012A06D038
:10E8F000022A07D0032AF6D1FFF721FF70BD00F0EE
:10E9000025FA70BD00F05DFA70BD507088881081E6
:10E91000508170BD00205070108170BD204611697B
:10E92000FEF7B1FADAE710B50446734892B0817980
:10E930006846817371498181382104A800F017FD70
:10E9400002216846017400218174C4746021018031
:10E950000720C00302900421684681800D900021A9
:10E9600004A8FDF7CDFE002801D0FEF7FEFC12B092
:10E9700010BDF0B55E4C8BB0A07800283BD15E484E
:10E980001821183800F0F3FC20465B4CC078183C86
:10E9900000250126002838D02746483700950195E4
:10E9A000029510226946F81D039500F0EBFC002843
:10E9B00023D0F81D089009976846067509A80490A9
:10E9C0006846067708A806900420FFF7ACFF25707C
:10E9D0000220207204A8E060282020824648658238
:10E9E000183873DF002801D0FEF7BFFC44498020AF
:10E9F000C8603F4886700BB0F0BD0520FFF793FF5D
:10EA00002670676025722582E8E70620FFF78BFFF6
:10EA1000257065602572DFE7F0B50546344C008847
:10EA200000270122E688A7B0192810D024DC11287D
:10EA300043D00EDC02285AD0102808D130490001FA
:10EA4000C860072000F03FF9A888E080A77027B0D1
:10EA5000F0BD294C303427461837132852D01428DB
:10EA6000F5D1288A628D0021904200D139460023D9
:10EA7000A888E21D86DF1BE051286CD00EDC1A2826
:10EA80007ED01B28E3D1287A0028E0D1A770E06867
:10EA9000401EE0604FD0FFF76CFFD8E7522876D0D9
:10EAA0005528D4D1A8790028D1D11321304676DF5A
:10EAB0000028CCD0FEF759FCC9E780206946888041
:10EAC0003220E060082000F0FEF8012301AA06A928
:10EAD000E088AADF002801D0FEF747FC2078002854
:10EAE00001D1FFF746FF0020C043E080AFE72EE0F2
:10EAF000902C0020FFFF0000903200203015000015
:10EB0000000500500722D24912A800F017FC10227D
:10EB1000E11D0EA800F012FC1C22394614A800F0DA
:10EB20000DFC0EA80B9014A80A9006ABC94A8521CB
:10EB300030467FDFBCE71422C74906A800F0FEFB81
:10EB40000A9806AC00900FCCFFF7D7F87FE70021BA
:10EB5000304667DFACE7A97900299ED0A87B04285E
:10EB600003D0062801D0052897D102290BD068468A
:10EB70000272FF2083306946888102A9304600E096
:10EB800005E0A8DF94E7022069460872F1E700F08B
:10EB90009FF88DE710B50446FDF7D3FFAC4821463A
:10EBA0003038FEF72EF92046FFF736FF10BD10B5BE
:10EBB000FEF7DBFB10BD30B5A64D87B000241C3D31
:10EBC0002C702C71072000F078F8082000F075F800
:10EBD000072000F078F8082000F075F89F4800F052
:10EBE00068FA002864D19E48FFF707FB00F04EF951
:10EBF00000285DD19648FDF7E5FA00285AD068460E
:10EC000071DF002801D0FEF7B0FB69464878401C50
:10EC10004870002070DF002801D0FEF7A6FB11200D
:10EC20006946087207228FA102A87CDF002801D064
:10EC3000FEF79BFB00940C2168460194018018218B
:10EC40004180FF2184809131C1807ADF002801D08A
:10EC5000FEF78BFB082069460094088083480190EA
:10EC6000834802907A483038FEF78BF8002801D0AC
:10EC7000FEF77BFB1C21684600F079FB7D48019084
:10EC80000120800302900094032168460173C4812F
:10EC900004747948069005946846FDF7FCFE002848
:10ECA00001D0FEF762FB00F0B9F8FFF762FE00202A
:10ECB00007B030BD0120E870B1E7704A0321800041
:10ECC000801801607047012181406D488160704764
:10ECD00070B5604C6B4D1C3CE088A84201D1082007
:10ECE00070BDE17800291BD0594901230822343135
:10ECF000A9DF0028F4D1022300221146E088A9DF11
:10ED00000028EDD12A460C21E088A7DF5E49884221
:10ED100004D0082802D0891C8842E1D1002070BDAF
:10ED200000231A461946A9DF70BD10B50A460446ED
:10ED300003211046FFF7BCFC024603212046FDF7E5
:10ED40007DFF002801D0FEF710FB10BD30B5054651
:10ED500087B0002000900190029003903D486A46E1
:10ED60001C38407910703C4A0C3A10689268049044
:10ED7000684606920590087A0C2804D0032219E010
:10ED8000FEF7F3FA94E74C68204600F056F801903D
:10ED9000201D00F052F802902046083000F04DF897
:10EDA000039004A8FFF72CFA002881D00121FFF777
:10EDB0007FFC024601212846FDF740FF0028DFD1F5
:10EDC00076E7FEB50446087A82070ED08207920FD6
:10EDD00004239B1A0022154604E04E683554401C5B
:10EDE000C0B2521C9A42F8D30872012000904868C1
:10EDF0000290087A800801906846FFF79EFA002882
:10EE00000BD00221FFF754FC024602212046FDF7F9
:10EE100015FF002801D0FEF7A8FAFEBD0D4981229A
:10EE2000087840084000104030304006400E08701E
:10EE30000720487010208870704710B5044600F015
:10EE4000AEFA0002E178000A0906084310BD00008E
:10EE5000C0320020AC2C002088F4030095EB0300A6
:10EE6000E7E60300446675546172670059E80300E1
:10EE7000AFEB0300CD0C000009E8030000070050D1
:10EE800000050050FFFF000002300000564800213E
:10EE900001705748554A02608160C16001610822D3
:10EEA0004161426081610846704700207047002838
:10EEB00005D04D490A78002A03D0042070470E205F
:10EEC000704701220A704849491C016000207047C0
:10EED000454900200870704710B500291DD0002258
:10EEE0000A60434A5368002B1BD0202817D85B1EAA
:10EEF0005360D0682423401CD060106914684343D9
:10EF0000E3180B60012383409169401C19434007BB
:10EF1000400F91611061002010BD0E2010BD0C202B
:10EF200010BD042010BDF0B5314A06469168002995
:10EF30002AD057691020791A4907490F14680B46DF
:10EF400024254D436519B54206D1012495698C40AD
:10EF500065400020956104E0491C4907490F8F4234
:10EF6000EED1491C4E07760F956901210C469C4055
:10EF700025420AD19368002B07D05B1E936053682B
:10EF80005B1C53603346F1E70420F0BD184A24238C
:10EF9000117C1268491E4907490F594320315050CE
:10EFA0000020704770B500281AD0002918D0104AE8
:10EFB000D368002B16D05B1ED360936824265B1C9D
:10EFC0009360536915681C467343EE18203306603E
:10EFD000E858641C08606007400F5061002070BD55
:10EFE0000E2070BD042070BDB12C0020FC3200202A
:10EFF0001C34002010B5FEF7F5F910BDF8B5694CCA
:10F000002078002833D02069002807D00026E06847
:10F01000002805D00025002E04D011E00126F6E7D7
:10F020000125F8E7684652DF052804D0002804D0FF
:10F03000FEF79BF904E0012602E021690098884769
:10F04000002D10D1608869460880A06861DF05281E
:10F0500004D0002804D0FEF788F904E0012502E07E
:10F06000E168A0688847002EDCD0002DD3D0F8BD21
:10F070004C480078704770B5002901D08C0701D04A
:10F08000072070BD474C0125A1606280464963603E
:10F0900010DF0028F5D12570162000F048F870BD6B
:10F0A00011DF002801D0012100E000213D4A11704C
:10F0B0007047002803D03B49C860002070470E20ED
:10F0C0007047002803D037490861002070470E20A0
:10F0D000704710B533484068002805D080470028A5
:10F0E00001D0FEF742F910BDFFF788FF10BD70B5E3
:10F0F0000E46054614461421104600F038F901204A
:10F10000002120802161217326726572002D00D0BC
:10F11000A072002070BD08B524490020009108BDF0
:10F120001CB5224901910091694660DF1CBD10B5F4
:10F130000121202805DA1E4A8140114201D11D48D3
:10F1400010BD8107C90E002808DA0207120F083A1D
:10F150009208194B9200D218D26904E08208174B2A
:10F160009200D2181268CA401106890F042912D2DF
:10F17000002910D002290ED00A4914314C68C30668
:10F18000DB0E01229A40002C08D0400980000B5869
:10F1900013430B5004E00748401C10BD08480260B0
:10F1A000002010BDB82C0020F5EF0300002C00203B
:10F1B000FC06FFBC0120000000ED00E000E400E0E0
:10F1C00000E100E010B5002902D00020FEF7CDF8E4
:10F1D000FFF714FF10BD10B50021024A0846FEF7E4
:10F1E00023F910BDC5F103000321094802680A4351
:10F1F0000260084802680A430260074880470748DF
:10F200000047FEE7FEE7FEE7FEE7FEE7FEE7000059
:10F21000240500405405004029F20300C1C003004A
:10F22000334932480860704710B500F03EF80028B6
:10F2300005D031492F484860C813304988613048AB
:10F24000018CC9B201290BD1828C120708D1028D21
:10F250001206120F042A03D1828D1206120F0AD051
:10F26000012921D1818C09071ED1018D0906090FC1
:10F270000A2904D007E0234A01219160F5E7828D35
:10F280001206120F05D00D290ED1808D0006000F39
:10F290000AD11D480168012904D01C490160016898
:10F2A0000129FCD1C021416110BD1548018CC9B2B2
:10F2B000012917D1818C090714D1018D09060A0F84
:10F2C00003D1828D1206120F0ED0090F012903D12E
:10F2D000828D1206120F07D0032903D1808D0006FC
:10F2E000000F01D000207047012070470024F40077
:10F2F000D42C0020DFFF07C000050040006C004058
:10F30000C00F00F00006004000EC064075930000BE
:10F3100030B50B46014600202022012409E00D46AD
:10F32000D5409D4205D31D469540491B2546954035
:10F3300040191546521E002DF1DC30BD03460B432B
:10F340009B0703D009E008C9121F08C0042AFAD29B
:10F3500003E00B780370401C491C521EF9D2704721
:10F36000D2B201E00270401C491EFBD2704700225D
:10F37000F6E710B513460A4604461946FFF7F0FFB4
:10F38000204610BD30B504460020034600E05B1C5B
:10F39000934203D2E05CCD5C401BF8D030BD03212A
:10F3A000001D401E037812021A43491EF9D510466B
:10F3B00070470000064C0125064E05E0E36807CCC7
:10F3C0002B430C3C98471034B442F7D3FCF77CFE37
:10F3D0009CF40300BCF4030030B47446641E25782A
:10F3E000641CAB4200D21D46635D5B00E31830BC79
:10F3F000184702E008C8121F08C1002AFAD1704756
:10F400007047002001E001C1121F002AFBD17047A4
:10F4100000100007020000000000000000000000D3
:10F42000000000003830002023D1BCEA5F782315AB
:10F43000DEEF12120000000051DC030000000000AB
:10F4400000000000020000000000000000000000BA
:10F450000000000000000000B031002004000000A7
:10F46000000000000000000000000000000000009C
:10F4700071DF030000000000000000000300000036
:10F480000000000000000000050000000000000077
:10F49000000000000000000000000000BCF40300B9
:10F4A000002C0020D8000000F2F3030094F50300C4
:10F4B000D82C0020600F000002F4030000000000C0
:10F4C000000000000000000000000000000000003C
:10F4D000000000000000000000000000000000002C
:10F4E000000000000000000000000000000000001C
:10F4F000000000000000000000000000000000000C
:10F5000000000000000000000000000000000000FB
:10F5100000000000000000000000000000000000EB
:10F5200000000000000000000000000000000000DB
:10F5300000000000000000000000000000000000CB
:10F5400000000000000000000000000000000000BB
:10F550000000FFFF0000000032000000000000007B
:10F56000000000000000000000000000000000009B
:10F57000000000000000000000000000000000008B
:10F58000000000000000000000000000000000007B
:04F590000024F4005F
:020000040003F7
:10FC000001000000000000000000000000000000F3
:10FC100000000000000000000000000000000000E4
:10FC200000000000000000000000000000000000D4
:10FC300000000000000000000000000000000000C4
:10FC400000000000000000000000000000000000B4
:020000041000EA
:0410140000C0030015
:040000050003C0C173
:00000001FF
